:100000000C945B000C9483000C9483000C9483008C
:100010000C9483000C9483000C9483000C94830054
:100020000C9483000C9483000C9483000C94830044
:100030000C9483000C9483000C9483000C94830034
:100040000C94C4050C9483000C9445080C94830014
:100050000C9483000C9483000C9483000C94830014
:100060000C9483000C948300000024272A000025B0
:10007000282B000023262904040404040404040299
:100080000202020202030303030303010204081035
:100090002040800102040810200102040810200002
:1000A0000000070002010000030406000000000039
:1000B000000000001C0411241FBECFEFD4E0DEBFFF
:1000C000CDBF11E0A0E0B1E0ECEAF7E102C005909D
:1000D0000D92A436B107D9F712E0A4E6B1E001C051
:1000E0001D92A831B107E1F710E0C6EBD0E004C0E3
:1000F0002297FE010E94990BC43BD107C9F70E94C9
:1001000015040C94D40B0C94000096E094B995B1AE
:10011000997F926095B995B1966095B946E050E0A7
:10012000A1E0B0E0E82FF0E09D01042E02C0220F14
:10013000331F0A94E2F72E233F23042E02C0359585
:1001400027950A94E2F7220F85B1897F822B85B922
:1001500085B1897F8460822B85B9415050408FEFF3
:100160004F3F580709F747E050E0E1E0F0E070E06A
:100170009F01042E02C0220F331F0A94E2F72623A8
:100180003723042E02C0359527950A94E2F7220FF3
:1001900085B1897F822B85B985B1897F8460822B67
:1001A00085B9415050408FEF4F3F580709F70895E8
:1001B00096E094B995B1997F95B995B1997F94607E
:1001C00095B946E050E0E1E0F0E0682F70E09F0173
:1001D000042E02C0220F331F0A94E2F7262337238E
:1001E000042E02C0359527950A94E2F7220F85B1B7
:1001F000897F822B85B985B1897F8460822B85B9FF
:10020000415050408FEF4F3F580709F784E084B9C1
:1002100085B1897F846085B982E390E00E945906A8
:1002200030E047E050E085B1897F85B925B1297F6D
:10023000246083B190E08270907095958795042E2C
:1002400002C0880F991F0A94E2F7382B25B9415054
:1002500050408FEF4F3F580731F738B9832F08953B
:100260000F931F9383E40E94D800082F82E40E941A
:10027000D800992787FD90952091660130916701FC
:10028000280F391F3093670120936601112707FD5E
:1002900010958091640190916501800F911F90935A
:1002A0006501809364011F910F91089560E070E0F3
:1002B00085E00E94C20660E070E086E00E94C2060F
:1002C00060E083E00E94340760E084E00E9434072D
:1002D0000895EF92FF920F931F937B010FEF10E0B1
:1002E000B801681B790B85E00E94C2060E191F0930
:1002F000B80186E00E94C20661E083E00E943407F4
:1003000061E084E00E9434071F910F91FF90EF900D
:1003100008950F931F938B01BC0185E00E94C206D4
:10032000B80186E00E94C20660E083E00E943407C4
:1003300060E084E00E9434071F910F910895AF920E
:10034000BF92CF92DF92EF92FF920F931F93CF93C2
:10035000DF939C01AB014396879710F420E030E0D7
:10036000CA014396879710F440E050E0809157010E
:1003700090915801B901821793070CF4BC01222710
:100380003327281B390B6B01621773070CF46901C3
:10039000BA01841795070CF4BC01EB0162177307CF
:1003A0000CF4E9011C141D0434F460E083E00E94A5
:1003B0003407B6013DC0C114D104A1F161E083E06E
:1003C0000E943407E0915701F0915801EE24FF2478
:1003D000EE1AFF0A0027F7FC0095102FB6018827B8
:1003E00077FD8095982F2FEF30E02E1B3F0B442791
:1003F00037FD4095542F5F934F933F932F93FFEF1B
:10040000AF2EB12CC12CD12C20E030E040E050E0E8
:100410000E94820885E00E94C2060F900F900F9004
:100420000F9009C060E083E00E94340760E070E054
:1004300085E00E94C2061C161D0634F460E084E0CC
:100440000E943407BE013CC02097A1F161E084E026
:100450000E943407E0915701F0915801EE24FF24E7
:10046000EE1AFF0A0027F7FC0095102FBE0188271F
:1004700077FD8095982F2FEF30E02E1B3F0B442700
:1004800037FD4095542F5F934F933F932F93EFEF9A
:10049000AE2EB12CC12CD12C20E030E040E050E059
:1004A0000E94820886E00E94C2060F900F900F9073
:1004B0000F9009C060E084E00E94340760E070E0C3
:1004C00086E00E94C206DF91CF911F910F91FF90AD
:1004D000EF90DF90CF90BF90AF9008950F931F9350
:1004E0000AE811E060E071E0C8010E944504409113
:1004F000660150916701662757FD6095762F2AE0C7
:1005000030E0C8010E94A4056EE071E0C8010E94BD
:1005100045044091640150916501662757FD60953F
:10052000762F2AE030E0C8010E94A4056AE171E05C
:10053000C8010E94450440916E0150916F016627E9
:1005400057FD6095762F2AE030E0C8010E94A4058F
:100550006CE271E0C8010E9445044091760150911F
:100560007701662757FD6095762F2AE030E0C801B5
:100570000E94A4056EE371E0C8010E944504409109
:10058000780150917901662757FD6095762F2AE012
:1005900030E0C8010E94A405C8010E945D041F91BB
:1005A0000F9108954F925F926F927F928F929F92D8
:1005B000AF92BF92CF92DF92EF92FF920F931F9371
:1005C0000E94300180905501909056018091660103
:1005D00090916701881A990A909269018092680146
:1005E00080916A0190916B017401E81AF90AF09206
:1005F0006D01E0926C01B401882777FD8095982FFA
:100600000E94250A20917A0130917B0140917C0162
:1006100050917D010E94B10A5B016C010027F7FC3B
:100620000095102FC801B7010E94250A20917E0174
:1006300030917F0140918001509181010E94B10A67
:100640009B01AC01C601B5010E948E090E94F2090E
:100650005B016C0190926B0180926A018090740141
:10066000909075018091640190916501881A990AB2
:1006700090926F0180926E01809170019091710152
:100680007401E81AF90AF0927301E0927201B40160
:10069000882777FD8095982F0E94250A2091820156
:1006A0003091830140918401509185010E94B10AEB
:1006B0002B013C010027F7FC0095102FC801B70162
:1006C0000E94250A2091860130918701409188017E
:1006D000509189010E94B10A9B01AC01C301B20192
:1006E0000E948E090E94F2099B012A0D3B1D309346
:1006F000770120937601A61AB70AB0927901A092E9
:10070000780190927101809270010E946E02609156
:1007100078017091790180917601909177010E9422
:100720009F018AE891E00E942D04882371F00E94C5
:10073000560128E088E190E00FB6F894A8958093E0
:1007400060000FBE20936000FFCF1F910F91FF90BC
:10075000EF90DF90CF90BF90AF909F908F907F9061
:100760006F905F904F9008958DEC9CECACE4BEE3ED
:1007700080937A0190937B01A0937C01B0937D01DB
:100780008AE999E9A9E9BEE380937E0190937F010C
:10079000A0938001B09381018093820190938301A3
:1007A000A0938401B0938501809386019093870183
:1007B000A0938801B09389018091550190915601D1
:1007C0002091660130916701821B930B90936B011E
:1007D00080936A0180917401909175012091640168
:1007E00030916501821B930B90937101809370018E
:1007F00061E082E00E94160761E083E00E94160734
:1008000061E084E00E94160761E085E00E9416071F
:1008100061E086E00E94160740E05BE460E070E083
:100820008AE891E00E94300408950E9467060E94C1
:10083000B4030E94D202FDCF8DE591E090938B012D
:1008400080938A010895862F0E94040808950E94CB
:100850003C0808950E941D0808950E940C08089500
:10086000CB01BA010E94CB070895DC01ED91FC9108
:100870000190F081E02D09950895DC01ED91FC9146
:100880000190F081E02D099508950F931F93CF9368
:10089000DF938C01EB0109C02196D801ED91FC9109
:1008A0000190F081E02DC801099568816623A1F7C8
:1008B000DF91CF911F910F9108950F931F938C019A
:1008C000DC01ED91FC910190F081E02D6DE0099546
:1008D000D801ED91FC910190F081E02D6AE0C80112
:1008E00009951F910F9108950F931F938C01DC01BF
:1008F000ED91FC910190F081E02D0995C8010E94D5
:100900005D041F910F9108950F931F938C010E9416
:100910004504C8010E945D041F910F9108950F9333
:100920001F938C01DC01ED91FC910190F081E02D91
:100930000995C8010E945D041F910F9108952F929F
:100940003F924F925F926F927F928F929F92AF925F
:10095000BF92CF92DF92EF92FF920F931F93DF939C
:10096000CF93CDB7DEB7A0970FB6F894DEBF0FBE1A
:10097000CDBF1C016A017B0141155105610571055F
:1009800049F4DC01ED91FC910190F081E02D60E3F0
:10099000099554C0882499245401422E5524662474
:1009A000772401E010E00C0F1D1F080D191DC70171
:1009B000B601A30192010E94460BF80160830894DE
:1009C000811C911CA11CB11CC701B601A30192019D
:1009D0000E94460BC901DA016C017D01C114D104EA
:1009E000E104F104F1F681E0E82EF12CEC0EFD1E9D
:1009F000E80CF91C3E010894611C711CD501C4016E
:100A00000197A109B1096C01C818D90814C0F601F1
:100A1000EE0DFF1D60816A3010F4605D01C0695CFD
:100A2000D101ED91FC910190F081E02DC10109957A
:100A30000894E108F1086E147F0449F7A0960FB6F8
:100A4000F894DEBF0FBECDBFCF91DF911F910F9104
:100A5000FF90EF90DF90CF90BF90AF909F908F90DE
:100A60007F906F905F904F903F902F9008952AE075
:100A70000E949F0408950F931F938C010E943705D5
:100A8000C8010E945D041F910F910895AB0160E0C1
:100A900070E00E94370508950F931F938C01AB01FE
:100AA00060E070E00E943705C8010E945D041F915C
:100AB0000F910895EF92FF920F931F93CF93DF93BF
:100AC000EC017A018B0177FF0FC0E881F981019079
:100AD000F081E02D6DE2099510950095F094E09479
:100AE000E11CF11C011D111D2AE0B801A701CE0176
:100AF0000E949F04DF91CF911F910F91FF90EF9083
:100B000008950F931F938C010E945A05C8010E94FB
:100B10005D041F910F910895AB01662757FD609505
:100B2000762F0E945A0508950F931F938C01AB01F5
:100B3000662757FD6095762F0E945A05C8010E94CE
:100B40005D041F910F910895DC012115310541F4D9
:100B5000ED91FC910190F081E02D642F09950895AD
:100B60002A30310519F40E945A0508950E949F0405
:100B700008950F931F938C010E94A405C8010E9441
:100B80005D041F910F9108951F920F920FB60F925F
:100B900011242F938F939F93AF93BF9380918C01D8
:100BA00090918D01A0918E01B0918F018050904C59
:100BB000AF4FBF4F80938C0190938D01A0938E0116
:100BC000B0938F0127C080918C0190918D01A091ED
:100BD0008E01B0918F0180589E43A040B040809319
:100BE0008C0190938D01A0938E01B0938F01809121
:100BF000900190919101A0919201B0919301019681
:100C0000A11DB11D8093900190939101A093920139
:100C1000B093930180918C0190918D01A0918E01F0
:100C2000B0918F0181589E43A040B04060F6BF91C3
:100C3000AF919F918F912F910F900FBE0F901F90AA
:100C400018958FB7F89420919001309191014091BF
:100C50009201509193018FBFB901CA010895EF929B
:100C6000FF920F931F937B018C018FB7F8944091F3
:100C700090015091910160919201709193018FBF09
:100C80002FB7F8948091900190919101A0919201D9
:100C9000B09193012FBF841B950BA60BB70B8E153C
:100CA0009F05A007B10760F31F910F91FF90EF9090
:100CB0000895019759F0FC01EE0FFF1FEE0FFF1F83
:100CC00032978FB7F8943197F1F78FBF08957894E2
:100CD00084B5826084BD84B5816084BD85B5826041
:100CE00085BD85B5816085BDEEE6F0E080818160DF
:100CF0008083E1E8F0E08081826080838081816090
:100D00008083E0E8F0E0808181608083E1EBF0E0C7
:100D1000808184608083E0EBF0E08081816080836B
:100D2000EAE7F0E080818460808380818260808354
:100D30008081816080838081806880831092C1007F
:100D4000089580935F0108958F7090915F0192954F
:100D5000990F990F907C982B90937C0080917A004A
:100D6000806480937A0080917A0086FDFCCF209188
:100D7000780040917900942F80E030E0282B392BC7
:100D8000C90108951F93CF93DF93182FEB0161E002
:100D90000E941607E12FF0E0E156FF4F8491833067
:100DA00051F480918000806880938000D093890006
:100DB000C093880037C0843051F4809180008062F5
:100DC00080938000D0938B00C0938A002BC0813029
:100DD00029F484B5806884BDC7BD24C0823029F45D
:100DE00084B5806284BDC8BD1DC0863041F4809149
:100DF000B00080688093B000C093B30013C0873008
:100E000041F48091B00080628093B000C093B40040
:100E100009C0C038D10514F460E001C061E0812F41
:100E20000E943407DF91CF911F910895282F30E061
:100E3000C90185579F4FFC01949129583F4FF901F3
:100E40008491882381F0E82FF0E0E859FF4FE49186
:100E5000F0E0662329F480819095892380830895AA
:100E60008081892B80830895482F50E0CA018156E4
:100E70009F4FFC012491CA0185579F4FFC0194911B
:100E800049585F4FFA0134913323C1F1222331F1E4
:100E9000233021F4809180008F7705C0243031F415
:100EA000809180008F7D8093800018C0213019F4DC
:100EB00084B58F7704C0223021F484B58F7D84BD42
:100EC0000DC0263021F48091B0008F7705C0273007
:100ED00029F48091B0008F7D8093B000E32FF0E083
:100EE000E359FF4FE491F0E0662329F48081909567
:100EF0008923808308958081892B80830895482FDA
:100F000050E0CA0181569F4FFC012491CA018557C8
:100F10009F4FFC01949149585F4FFA01349133235C
:100F200019F420E030E035C0222331F1233021F4E0
:100F3000809180008F7705C0243031F4809180004B
:100F40008F7D8093800018C0213019F484B58F778D
:100F500004C0223021F484B58F7D84BD0DC02630BD
:100F600021F48091B0008F7705C0273029F480915B
:100F7000B0008F7D8093B000E32FF0E0EE58FF4F7C
:100F8000E491F0E0808120E030E0892311F021E05D
:100F900030E0C9010895EF92FF920F931F937B01F8
:100FA0008C0122E030E040E050E00E94680B205CC1
:100FB0003D4B404F5F4FCA01B901A80197010E9404
:100FC000680BC901DA010197A109B109292F3A2F4C
:100FD0004B2F552747FD5A950196A11DB11D209312
:100FE000C50081508093C400E1ECF0E08081806115
:100FF00080838081886080838081806880831F9166
:101000000F91FF90EF900895982F8091C00085FF79
:10101000FCCF9093C6000895809194019091950122
:1010200080589F4F2091960130919701821B930B1E
:1010300060E870E00E94330B089540919601509152
:10104000970180919401909195018417950719F467
:101050002FEF3FEF0FC0FA01E856FE4F2081CA0183
:10106000019660E870E00E94330B909397018093A3
:10107000960130E0C9010895809196019091970101
:10108000909395018093940108951F920F920FB64B
:101090000F9211242F933F934F935F936F937F93FE
:1010A0008F939F93AF93BF93EF93FF934091C600AD
:1010B000E0919401F0919501CF01019660E870E014
:1010C0000E94330B9C018091960190919701281703
:1010D000390739F0E856FE4F40833093950120934D
:1010E0009401FF91EF91BF91AF919F918F917F916B
:1010F0006F915F914F913F912F910F900FBE0F9085
:101100001F9018952F923F924F925F926F927F920D
:101110008F929F92AF92BF92CF92DF92EF92FF9207
:101120000F931F93DF93CF93CDB7DEB73B014C01F5
:1011300019012A016D897E898F89988D6A197B0929
:101140008C099D09621A730A840A950AA401930105
:101150000E94140BE218F30804091509A80197016D
:101160000E94680B2A0D3B1D4C1D5D1DB901CA0173
:10117000CF91DF911F910F91FF90EF90DF90CF9073
:10118000BF90AF909F908F907F906F905F904F90A7
:101190003F902F900895AF92BF92CF92DF92EF923F
:1011A000FF920F931F935B016C016115710581051F
:1011B000910529F420E030E040E050E01FC00E949B
:1011C0007D097C010E947D090027F7FC0095102F06
:1011D0008701FF24EE24AA2797FDA095BA2FE80ED9
:1011E000F91E0A1F1B1FC801B701A60195010E9425
:1011F000680BAC01CB01DA019C01AD01B901CA0158
:101200001F910F91FF90EF90DF90CF90BF90AF9024
:101210000895EF92FF920F931F937B018C01621749
:1012200073078407950764F4261B370B480B590B8B
:10123000CA01B9010E94CB08E60EF71E081F191F4C
:10124000B701C8011F910F91FF90EF90089500978B
:1012500011F00E9482090895A0E0B0E0E2E3F9E015
:101260000C94A50BEC01A880B980CA80DB80A11486
:10127000B104C104D10441F484E2A82E89EDB82E52
:101280008BE5C82E87E0D82EC601B5012DE133EFDE
:1012900041E050E00E94680B27EA31E440E050E072
:1012A0000E94140B7B018C01C601B5012DE133EFC7
:1012B00041E050E00E94680BCA01B9012CEE34EF06
:1012C0004FEF5FEF0E94140B6E0D7F1D801F911F6B
:1012D00097FF04C0615070408040904868837983D4
:1012E0008A839B839B013F77C901CDB7DEB7EAE0D4
:1012F0000C94C10B0E942C09089580E691E00E9495
:101300002C090895A0E0B0E0809360019093610102
:10131000A0936201B093630108955058BB27AA2798
:101320000ED0E5C0D6D030F0DBD020F031F49F3FB6
:1013300011F41EF4CBC00EF4E095E7FBC1C0E92F19
:10134000E7D080F3BA17620773078407950718F090
:1013500071F49EF5FFC00EF4E0950B2EBA2FA02D70
:101360000B01B90190010C01CA01A0011124FF2752
:10137000591B99F0593F50F4503E68F11A16F0404D
:10138000A22F232F342F4427585FF3CF469537954C
:101390002795A795F0405395C9F77EF41F16BA0B11
:1013A000620B730B840BBAF09150A1F0FF0FBB1FBF
:1013B000661F771F881FC2F70EC0BA0F621F731F08
:1013C000841F48F4879577956795B795F7959E3F65
:1013D00008F0B3CF9395880F08F09927EE0F9795F3
:1013E0008795089504D06894B111B5C0089598D038
:1013F00088F09F5790F0B92F9927B751A0F0D1F0FE
:10140000660F771F881F991F1AF0BA95C9F712C087
:10141000B13081F09FD0B1E008959CC0672F782F44
:101420008827B85F39F0B93FCCF3869577956795F3
:10143000B395D9F73EF490958095709561957F4F5F
:101440008F4F9F4F0895E89409C097FB3EF4909505
:101450008095709561957F4F8F4F9F4F9923A9F08D
:10146000F92F96E9BB279395F6958795779567951C
:10147000B795F111F8CFFAF4BB0F11F460FF1BC060
:101480006F5F7F4F8F4F9F4F16C0882311F096E9F3
:1014900011C0772321F09EE8872F762F05C06623A1
:1014A00071F096E8862F70E060E02AF09A95660F5A
:1014B000771F881FDAF7880F9695879597F9089513
:1014C00097F99F6780E870E060E008959FEF80ECF7
:1014D000089500240A94161617061806090608959A
:1014E00000240A9412161306140605060895092E00
:1014F0000394000C11F4882352F0BB0F40F4BF2B6F
:1015000011F460FF04C06F5F7F4F8F4F9F4F0895AE
:1015100057FD9058440F551F59F05F3F71F04795A4
:10152000880F97FB991F61F09F3F79F08795089589
:10153000121613061406551FF2CF4695F1DF08C0A8
:10154000161617061806991FF1CF869571056105C5
:1015500008940895E894BB2766277727CB0197F96D
:1015600008950BD0C4CFB5DF28F0BADF18F095236B
:1015700009F0A6CFABCF1124EECFCADFA0F3959F21
:10158000D1F3950F50E0551F629FF001729FBB276A
:10159000F00DB11D639FAA27F00DB11DAA1F649F16
:1015A0006627B00DA11D661F829F2227B00DA11DC9
:1015B000621F739FB00DA11D621F839FA00D611D4F
:1015C000221F749F3327A00D611D231F849F600D70
:1015D000211D822F762F6A2F11249F5750408AF0A9
:1015E000E1F088234AF0EE0FFF1FBB1F661F771F35
:1015F000881F91505040A9F79E3F510570F060CF71
:10160000AACF5F3FECF3983EDCF38695779567951C
:10161000B795F795E7959F5FC1F7FE2B880F911D52
:101620009695879597F90895629FD001739FF00171
:10163000829FE00DF11D649FE00DF11D929FF00D62
:10164000839FF00D749FF00D659FF00D9927729F99
:10165000B00DE11DF91F639FB00DE11DF91FBD0124
:10166000CF011124089597FB092E07260AD077FD94
:1016700004D049D006D000201AF4709561957F4FB0
:101680000895F6F7909581959F4F0895A1E21A2E3F
:10169000AA1BBB1BFD010DC0AA1FBB1FEE1FFF1F16
:1016A000A217B307E407F50720F0A21BB30BE40B66
:1016B000F50B661F771F881F991F1A9469F76095AD
:1016C0007095809590959B01AC01BD01CF01089567
:1016D00097FB092E05260ED057FD04D0D7DF0AD080
:1016E000001C38F450954095309521953F4F4F4F51
:1016F0005F4F0895F6F790958095709561957F4FAF
:101700008F4F9F4F0895AA1BBB1B51E107C0AA1F13
:10171000BB1FA617B70710F0A61BB70B881F991F92
:101720005A95A9F780959095BC01CD010895EE0FCB
:10173000FF1F0590F491E02D09942F923F924F9254
:101740005F926F927F928F929F92AF92BF92CF9251
:10175000DF92EF92FF920F931F93CF93DF93CDB75A
:10176000DEB7CA1BDB0B0FB6F894DEBF0FBECDBFD2
:1017700009942A88398848885F846E847D848C84A3
:101780009B84AA84B984C884DF80EE80FD800C81AC
:101790001B81AA81B981CE0FD11D0FB6F894DEBF8F
:0C17A0000FBECDBFED010895F894FFCFFF
:1017AC007472616E736C6174696F6E3D200020728F
:1017BC006F746174696F6E3D200020726F74617478
:1017CC00696F6E206572726F723D2000206C6566C9
:1017DC00744D6F746F7253706565643D2000207298
:1017EC00696768744D6F746F7253706565643D20E2
:1017FC000014003200E80364000000000023040120
:04180C0001000000D7
:00000001FF
