:100000000C945C000C9484000C9484000C94840088
:100010000C9484000C9484000C9484000C94840050
:100020000C9484000C9484000C9484000C94840040
:100030000C9484000C9484000C9484000C94840030
:100040000C9439090C9484000C94BA0B0C94840021
:100050000C9484000C9484000C9484000C94840010
:100060000C9484000C948400000024272A000025AE
:10007000282B000023262904040404040404040299
:100080000202020202030303030303010204081035
:100090002040800102040810200102040810200002
:1000A0000000070002010000030406000000000039
:1000B00000000000CF01910711241FBECFEFD4E054
:1000C000DEBFCDBF11E0A0E0B1E0E6E9FEE102C095
:1000D00005900D92AE3EB107D9F712E0AEEEB1E059
:1000E00001C01D92A63BB107E1F710E0C8EBD0E0DC
:1000F00004C02297FE010E940E0FC43BD107C9F72E
:100100000E948A070C94490F0C940000982F845089
:10011000843088F09E3179F09E3069F09F3059F03C
:10012000903149F09B3139F09C3129F080E09D31CC
:1001300019F481E0089581E008958B3169F08E30E3
:1001400059F08F3049F0803139F08E3129F08C31FF
:1001500019F090E08D3109F491E0892F08951F93F3
:100160001091EF01812F0E949D004091F2018823A0
:1001700021F030E0411789F40FC030E050E02091C9
:10018000F001812F90E0820F911D2091F101820FEB
:10019000911D4817590709F431E0832F1F910895E5
:1001A000109208021092070210920A02109209029D
:1001B0001092F8011092F7011092F6011092F501D9
:1001C0008091EF01873009F446C0883040F48530D3
:1001D000A9F08630B8F5843009F08DC00AC08D31A1
:1001E00009F480C08E3109F45AC08C3109F083C003
:1001F0006FC08091F3019091F40107C08091F301E9
:100200009091F401909581959F4F9093080280936F
:10021000070210920A02109209028091F90190914E
:10022000FA019093F8018093F7018091FF0190917A
:1002300000029093F6018093F5018091D601909190
:10024000D70141C010920802109207028091F30179
:100250009091F4010BC01092080210920702809155
:10026000F3019091F401909581959F4F90930A022C
:10027000809309028091F9019091FA019093F8011D
:100280008093F7018091FF01909100029093F60115
:100290008093F5018091D8019091D90114C01092FA
:1002A00008021092070210920A021092090210929C
:1002B000F8011092F7011092F6011092F501809169
:1002C000DA019091DB019093060280930502089574
:1002D00088E097E09093DD018093DC0181E08093DA
:1002E0002702089588E29AE09093DD018093DC0173
:1002F00081E080932702089596E094B995B1997FA3
:10030000926095B995B1966095B946E050E0A1E04C
:10031000B0E0E82FF0E09D01042E02C0220F331F51
:100320000A94E2F72E233F23042E02C03595279529
:100330000A94E2F7220F85B1897F822B85B985B1B6
:10034000897F8460822B85B9415050408FEF4F3FA9
:10035000580709F747E050E0E1E0F0E070E09F0166
:10036000042E02C0220F331F0A94E2F726233723FC
:10037000042E02C0359527950A94E2F7220F85B125
:10038000897F822B85B985B1897F8460822B85B96D
:10039000415050408FEF4F3F580709F70895809123
:1003A000D6019091D7019093060280930502609147
:1003B000DE017091DF01882777FD8095982F0E94DC
:1003C0009A0D26E636E646EE5EE30E94260E0E9471
:1003D000670D7093100260930F0270931202609386
:1003E0001102089596E094B995B1997F95B995B1A8
:1003F000997F946095B946E050E0E1E0F0E0682F25
:1004000070E09F01042E02C0220F331F0A94E2F70E
:1004100026233723042E02C0359527950A94E2F748
:10042000220F85B1897F822B85B985B1897F846050
:10043000822B85B9415050408FEF4F3F580709F745
:1004400084E084B985B1897F846085B982E390E0D6
:100450000E94CE0930E047E050E085B1897F85B940
:1004600025B1297F246083B190E0827090709595CA
:100470008795042E02C0880F991F0A94E2F7382B43
:1004800025B9415050408FEF4F3F580731F738B9E9
:10049000832F08950F931F9383E40E94F201082F86
:1004A00082E40E94F201992787FD90952091F7013F
:1004B0003091F801280F391F3093F8012093F7018C
:1004C000112707FD10958091F5019091F601800F9D
:1004D000911F9093F6018093F5011F910F9108955C
:1004E00060E070E085E00E94370A60E070E086E03E
:1004F0000E94370A60E083E00E94A90A60E084E07D
:100500000E94A90A0895EF92FF920F931F937B0117
:100510000FEF10E0B801681B790B85E00E94370AE5
:100520000E191F09B80186E00E94370A61E083E0D6
:100530000E94A90A61E084E00E94A90A1F910F911C
:10054000FF90EF9008950F931F938B01BC0185E0FE
:100550000E94370AB80186E00E94370A60E083E013
:100560000E94A90A60E084E00E94A90A1F910F91ED
:100570000895AF92BF92CF92DF92EF92FF920F93C6
:100580001F93CF93DF939C01AB010996439710F41F
:1005900020E030E0CA010996439710F440E050E0B3
:1005A0008091DE019091DF01B901821793070CF46D
:1005B000BC0122273327281B390B6B0162177307F5
:1005C0000CF46901BA01841795070CF4BC01EB0126
:1005D000621773070CF4E9011C141D0434F460E085
:1005E00083E00E94A90AB6013DC0C114D104A1F163
:1005F00061E083E00E94A90AE091DE01F091DF0151
:10060000EE24FF24EE1AFF0A0027F7FC0095102FB6
:10061000B601882777FD8095982F2FEF30E02E1BAD
:100620003F0B442737FD4095542F5F934F933F93E3
:100630002F93FFEFAF2EB12CC12CD12C20E030E056
:1006400040E050E00E94F70B85E00E94370A0F90CF
:100650000F900F900F9009C060E083E00E94A90AFC
:1006600060E070E085E00E94370A1C161D0634F435
:1006700060E084E00E94A90ABE013CC02097A1F17D
:1006800061E084E00E94A90AE091DE01F091DF01BF
:10069000EE24FF24EE1AFF0A0027F7FC0095102F26
:1006A000BE01882777FD8095982F2FEF30E02E1B15
:1006B0003F0B442737FD4095542F5F934F933F9353
:1006C0002F93EFEFAE2EB12CC12CD12C20E030E0D7
:1006D00040E050E00E94F70B86E00E94370A0F903E
:1006E0000F900F900F9009C060E084E00E94A90A6B
:1006F00060E070E086E00E94370ADF91CF911F91A1
:100700000F91FF90EF90DF90CF90BF90AF90089542
:100710000F931F9308E212E060E071E0C8010E94AD
:10072000BA074091F7015091F801662757FD60958F
:10073000762F2AE030E0C8010E9419096EE071E0CE
:10074000C8010E94BA074091F9015091FA01662749
:1007500057FD6095762F2AE030E0C8010E94190904
:1007600063E271E0C8010E94BA074091F50150911F
:10077000F601662757FD6095762F2AE030E0C80124
:100780000E9419096FE271E0C8010E94BA07409106
:10079000FF0150910002662757FD6095762F2AE0F1
:1007A00030E0C8010E94190961E471E0C8010E94AB
:1007B000BA0740910B0250910C02662757FD6095D5
:1007C000762F2AE030E0C8010E94190963E571E044
:1007D000C8010E94BA0740910D0250910E0266278F
:1007E00057FD6095762F2AE030E0C8010E94190974
:1007F000C8010E94D2071F910F910895BC0188E2A1
:1008000092E00E94F90708950F931F9308E212E007
:1008100066E671E0C8010E94BA076AE671E0C801A5
:100820000E94F90763E771E0C8010E94F90768E7D1
:1008300071E0C8010E94F9071F910F9108952F924E
:100840003F924F925F926F927F928F929F92AF9260
:10085000BF92CF92DF92EF92FF920F931F93CF93AD
:10086000DF930E944A026090070270900802809114
:10087000F7019091F801681A790A7092FA01609272
:10088000F9018091FB019091FC011301281A390AAA
:100890003092FE012092FD01C0910902D0910A021E
:1008A0008091F5019091F601C81BD90BD0930002FD
:1008B000C093FF0180910102909102022E01481A1B
:1008C000590A50920402409203022091050230918D
:1008D00006028091D6019091D7012817390709F0B7
:1008E000EAC0C30189539F4F8F58914008F072C0EE
:1008F000B301882777FD8095982F0E949A0D20914B
:1009000013023091140240911502509116020E9478
:10091000260E7B018C01B101882777FD8095982FE9
:100920000E949A0D209117023091180240911902ED
:1009300050911A020E94260E9B01AC01C801B7011A
:100940000E94030D0E94670D7B018C0180E090E006
:10095000A0E8BFE380931B0290931C02A0931D02AA
:10096000B0931E0280E090E0A0E0B0E080931F0210
:1009700090932002A0932102B0932202BE01882707
:1009800077FD8095982F0E949A0D5B016C01B20152
:10099000882777FD8095982F0E949A0D20E030E0FF
:1009A00040E050E00E94260E9B01AC01C601B5015B
:1009B0000E94030D0E94670D9B012E0D3F1D309379
:1009C0000C0220930B02E61AF70AF0920E02E09254
:1009D0000D0261C11614170464F480910F02909106
:1009E000100290930C0280930B0290930E0280935E
:1009F0000D0277FE0FC080910F029091100290952A
:100A000081959F4F90930C0280930B0290930E025E
:100A100080930D028DEC9CECACECBEE380931B024A
:100A200090931C02A0931D02B0931E0280E090E000
:100A3000A0E0B0E080931F0290932002A0932102D7
:100A4000B0932202BE01882777FD8095982F0E94DF
:100A50009A0D2DEC3CEC4CEC5EE30E94260E7B01E3
:100A60008C01B201882777FD8095982F0E949A0DFE
:100A700020E030E040E050E00E94260E9B01AC01F7
:100A8000C801B7010E94030D0E94670D20910B025F
:100A900030910C02260F371F30930C0220930B026B
:100AA00020910D0230910E02261B370B30930E025F
:100AB00020930D02F0C08091D8019091D9012817A0
:100AC000390709F0E8C0CE018D599F4F873C910549
:100AD00008F083C08AE999E9A9E9BEE380931B0283
:100AE00090931C02A0931D02B0931E0280E090E040
:100AF000A0E0B0E080931F0290932002A093210217
:100B0000B0932202BE01882777FD8095982F0E941E
:100B10009A0D2AE939E949E95EE30E94260E7B0134
:100B20008C01B201882777FD8095982F0E949A0D3D
:100B300020E030E040E050E00E94260E9B01AC0136
:100B4000C801B7010E94030D0E94670D7B018C0153
:100B500088249924861A970AD0930002C093FF0133
:100B60005092040240920302B301882777FD8095DA
:100B7000982F0E949A0D20911302309114024091F7
:100B80001502509116020E94260E5B016C01B10104
:100B9000882777FD8095982F0E949A0D2091170243
:100BA000309118024091190250911A020E94260EAB
:100BB0009B01AC01C601B5010E94030D0E94670DA7
:100BC000E60EF71EF0920C02E0920B02860E971EC4
:100BD00090920E0280920D025EC01C161D067CF4DF
:100BE000809111029091120290930C0280930B025B
:100BF000909581959F4F90930E0280930D02D7FFA1
:100C00004AC0A0901102B0901202CC24DD24CA1870
:100C1000DB0880E090E0A0E8BFE3809313029093AC
:100C20001402A0931502B093160280E090E0A0E0B9
:100C3000BFE38093170290931802A0931902B09318
:100C40001A02B301882777FD8095982F0E949A0D8C
:100C50007B018C01B101882777FD8095982F0E9438
:100C60009A0D20E030E040E05FE30E94260E9B01F9
:100C7000AC01C801B7010E94030D0E94670DC60EAA
:100C8000D71ED0920C02C0920B026A0D7B1D70938E
:100C90000E0260930D027092FC016092FB01809144
:100CA000FF019091000290930202809301028091D3
:100CB00023029091240201969093240280932302B0
:100CC00020912502309126028217930721F4109279
:100CD00024021092230260910B0270910C02809109
:100CE0000D0290910E020E94B90280912702882382
:100CF00071F1C0E0D0E000ED17E01EC061E082E0DD
:100D00000E94A90A8091DC019091DD010E94CE0928
:100D100060E082E00E94A90A8091DC019091DD01EF
:100D20009801281B390BC9010E94CE0962E370E0CB
:100D300080E090E00E94A4099E0121968091E0014C
:100D40009091E10128173907CCF21092270288E22E
:100D500092E00E94A207882309F45BC088E292E037
:100D60000E949F07182F8091EE018B3051F18C303B
:100D700030F4813061F0833009F04BC011C0833111
:100D8000E1F1853179F18C3009F043C01EC0123099
:100D900011F483E03CC08DE791E00E94FE0339C06E
:100DA000812F0E948600882349F01093EF01812F44
:100DB0000E949D008823A1F48BE029C086E991E080
:100DC00023C01093F0018CE022C01093F1019091A8
:100DD000F00180E0810F911D9093F4018093F30165
:100DE00085E115C01093F2010E94AF00882311F035
:100DF00083E10DC08AEA91E007C0183019F40E941F
:100E0000D00004C08BEB91E00E94FE0381E0809350
:100E1000EE01DF91CF911F910F91FF90EF90DF9046
:100E2000CF90BF90AF909F908F907F906F905F908A
:100E30004F903F902F9008952AE939E949E95EE300
:100E4000209313023093140240931502509316021C
:100E500080E090E0A0E0B0E0809317029093180249
:100E6000A0931902B0931A0220931B0230931C0224
:100E700040931D0250931E0280931F029093200204
:100E8000A0932102B0932202809107029091080260
:100E90002091F7013091F801821B930B9093FC0194
:100EA0008093FB018091090290910A022091F50143
:100EB0003091F601821B930B909302028093010202
:100EC00061E082E00E948B0A61E083E00E948B0A6D
:100ED00061E084E00E948B0A61E085E00E948B0A59
:100EE00061E086E00E948B0A81E08093EE0140E0A1
:100EF0005BE460E070E088E292E00E94A507109257
:100F000024021092230284E690E0909326028093BC
:100F1000250208950E94DC090E941C070E941F04FC
:100F2000FDCF86EE91E090932902809328020895E8
:100F3000862F0E94790B08950E94B10B08950E949C
:100F4000920B08950E94810B0895CB01BA010E9473
:100F5000400B0895DC01ED91FC910190F081E02DB2
:100F600009950895DC01ED91FC910190F081E02D4F
:100F7000099508950F931F93CF93DF938C01EB0195
:100F800009C02196D801ED91FC910190F081E02DEE
:100F9000C801099568816623A1F7DF91CF911F9160
:100FA0000F9108950F931F938C01DC01ED91FC913B
:100FB0000190F081E02D6DE00995D801ED91FC9153
:100FC0000190F081E02D6AE0C80109951F910F9111
:100FD00008950F931F938C01DC01ED91FC9101901A
:100FE000F081E02D0995C8010E94D2071F910F9151
:100FF00008950F931F938C010E94BA07C8010E94A5
:10100000D2071F910F9108950F931F938C01DC015C
:10101000ED91FC910190F081E02D0995C8010E94AD
:10102000D2071F910F9108952F923F924F925F9296
:101030006F927F928F929F92AF92BF92CF92DF92E8
:10104000EF92FF920F931F93DF93CF93CDB7DEB74D
:10105000A0970FB6F894DEBF0FBECDBF1C016A018A
:101060007B01411551056105710549F4DC01ED91E4
:10107000FC910190F081E02D60E3099554C0882433
:1010800099245401422E55246624772401E010E06F
:101090000C0F1D1F080D191DC701B601A3019201F8
:1010A0000E94BB0EF80160830894811C911CA11C56
:1010B000B11CC701B601A30192010E94BB0EC90178
:1010C000DA016C017D01C114D104E104F104F1F6EF
:1010D00081E0E82EF12CEC0EFD1EE80CF91C3E011F
:1010E0000894611C711CD501C4010197A109B109C3
:1010F0006C01C818D90814C0F601EE0DFF1D6081FF
:101100006A3010F4605D01C0695CD101ED91FC9121
:101110000190F081E02DC10109950894E108F108E2
:101120006E147F0449F7A0960FB6F894DEBF0FBE89
:10113000CDBFCF91DF911F910F91FF90EF90DF9086
:10114000CF90BF90AF909F908F907F906F905F9067
:101150004F903F902F9008952AE00E941408089520
:101160000F931F938C010E94AC08C8010E94D20704
:101170001F910F910895AB0160E070E00E94AC08F0
:1011800008950F931F938C01AB0160E070E00E9403
:10119000AC08C8010E94D2071F910F910895EF92E9
:1011A000FF920F931F93CF93DF93EC017A018B0192
:1011B00077FF0FC0E881F9810190F081E02D6DE2A9
:1011C000099510950095F094E094E11CF11C011D27
:1011D000111D2AE0B801A701CE010E941408DF9179
:1011E000CF911F910F91FF90EF9008950F931F9350
:1011F0008C010E94CF08C8010E94D2071F910F9155
:101200000895AB01662757FD6095762F0E94CF08A1
:1012100008950F931F938C01AB01662757FD6095CE
:10122000762F0E94CF08C8010E94D2071F910F910C
:101230000895DC012115310541F4ED91FC910190F7
:10124000F081E02D642F099508952A30310519F4B5
:101250000E94CF0808950E94140808950F931F93C9
:101260008C010E941909C8010E94D2071F910F9199
:1012700008951F920F920FB60F9211242F938F9300
:101280009F93AF93BF9380912A0290912B02A091DC
:101290002C02B0912D028050904CAF4FBF4F8093E5
:1012A0002A0290932B02A0932C02B0932D0227C008
:1012B00080912A0290912B02A0912C02B0912D02D4
:1012C00080549F41A040B04080932A0290932B020B
:1012D000A0932C02B0932D0280912E0290912F02A8
:1012E000A0913002B09131020196A11DB11D8093F1
:1012F0002E0290932F02A0933002B093310280917E
:101300002A0290912B02A0912C02B0912D028154BF
:101310009F41A040B04060F6BF91AF919F918F91E7
:101320002F910F900FBE0F901F9018958FB7F894C4
:1013300020912E0230912F024091300250913102C3
:101340008FBFB901CA010895EF92FF920F931F93C7
:101350007B018C018FB7F89440912E0250912F029F
:1013600060913002709131028FBF2FB7F894809155
:101370002E0290912F02A0913002B09131022FBF26
:10138000841B950BA60BB70B8E159F05A007B10705
:1013900060F31F910F91FF90EF900895019759F01E
:1013A000019749F0FC01EE0FFF1F31978FB7F894BA
:1013B0003197F1F78FBF0895789484B5826084BD2A
:1013C00084B5816084BD85B5826085BD85B5816049
:1013D00085BDEEE6F0E0808181608083E1E8F0E0A9
:1013E000808182608083808181608083E0E8F0E09A
:1013F000808181608083E1EBF0E080818460808384
:10140000E0EBF0E0808181608083EAE7F0E08081BA
:10141000846080838081826080838081816080831A
:101420008081806880831092C10008958093E801D4
:1014300008958F709091E8019295990F990F907C83
:10144000982B90937C0080917A00806480937A003E
:1014500080917A0086FDFCCF209178004091790040
:10146000942F80E030E0282B392BC90108951F9379
:10147000CF93DF93182FEB0161E00E948B0AE12FDD
:10148000F0E0E156FF4F8491833051F48091800069
:10149000806880938000D0938900C093880037C013
:1014A000843051F480918000806280938000D093DA
:1014B0008B00C0938A002BC0813029F484B58068EA
:1014C00084BDC7BD24C0823029F484B5806284BD48
:1014D000C8BD1DC0863041F48091B0008068809303
:1014E000B000C093B30013C0873041F48091B000C6
:1014F00080628093B000C093B40009C0C038D105A9
:1015000014F460E001C061E0812F0E94A90ADF911C
:10151000CF911F910895282F30E0C90185579F4F23
:10152000FC01949129583F4FF9018491882381F05F
:10153000E82FF0E0E859FF4FE491F0E0662329F44A
:10154000808190958923808308958081892B808371
:101550000895482F50E0CA0181569F4FFC01249105
:10156000CA0185579F4FFC01949149585F4FFA017A
:1015700034913323C1F1222331F1233021F48091BE
:1015800080008F7705C0243031F4809180008F7DFA
:101590008093800018C0213019F484B58F7704C07F
:1015A000223021F484B58F7D84BD0DC0263021F416
:1015B0008091B0008F7705C0273029F48091B0006A
:1015C0008F7D8093B000E32FF0E0E359FF4FE4916B
:1015D000F0E0662329F48081909589238083089523
:1015E0008081892B80830895482F50E0CA0181565D
:1015F0009F4FFC012491CA0185579F4FFC01949194
:1016000049585F4FFA013491332319F420E030E058
:1016100035C0222331F1233021F4809180008F776F
:1016200005C0243031F4809180008F7D809380004C
:1016300018C0213019F484B58F7704C0223021F40A
:1016400084B58F7D84BD0DC0263021F48091B0001B
:101650008F7705C0273029F48091B0008F7D80936B
:10166000B000E32FF0E0EE58FF4FE491F0E080810E
:1016700020E030E0892311F021E030E0C901089535
:10168000EF92FF920F931F937B018C0122E030E0D9
:1016900040E050E00E94DD0E205E3E45484F5F4F27
:1016A000CA01B901A80197010E94DD0EC901DA0142
:1016B0000197A109B109292F3A2F4B2F552747FD33
:1016C0005A950196A11DB11D2093C50081508093AC
:1016D000C400E1ECF0E080818061808380818860DB
:1016E00080838081806880831F910F91FF90EF90AD
:1016F0000895982F8091C00085FFFCCF9093C6007D
:101700000895809132029091330280589F4F20912A
:10171000340230913502821B930B60E870E00E9426
:10172000A80E089540913402509135028091320202
:10173000909133028417950719F42FEF3FEF0FC0F4
:10174000FA01EA5CFD4F2081CA01019660E870E071
:101750000E94A80E909335028093340230E0C901B4
:1017600008958091340290913502909333028093D2
:10177000320208951F920F920FB60F9211242F93E9
:101780003F934F935F936F937F938F939F93AF9309
:10179000BF93EF93FF934091C600E0913202F09126
:1017A0003302CF01019660E870E00E94A80E9C0110
:1017B00080913402909135022817390739F0EA5C9C
:1017C000FD4F40833093330220933202FF91EF911B
:1017D000BF91AF919F918F917F916F915F914F9149
:1017E0003F912F910F900FBE0F901F9018952F9241
:1017F0003F924F925F926F927F928F929F92AF92A1
:10180000BF92CF92DF92EF92FF920F931F93DF93DD
:10181000CF93CDB7DEB73B014C0119012A016D8989
:101820007E898F89988D6A197B098C099D09621AB6
:10183000730A840A950AA40193010E94890EE21892
:10184000F30804091509A80197010E94DD0E2A0D6D
:101850003B1D4C1D5D1DB901CA01CF91DF911F9148
:101860000F91FF90EF90DF90CF90BF90AF909F903F
:101870008F907F906F905F904F903F902F90089542
:10188000AF92BF92CF92DF92EF92FF920F931F938E
:101890005B016C01611571058105910529F420E05A
:1018A00030E040E050E01FC00E94F20C7C010E943A
:1018B000F20C0027F7FC0095102F8701FF24EE247F
:1018C000AA2797FDA095BA2FE80EF91E0A1F1B1F25
:1018D000C801B701A60195010E94DD0EAC01CB0144
:1018E000DA019C01AD01B901CA011F910F91FF906E
:1018F000EF90DF90CF90BF90AF900895EF92FF925E
:101900000F931F937B018C01621773078407950760
:1019100064F4261B370B480B590BCA01B9010E940E
:10192000400CE60EF71E081F191FB701C8011F91D2
:101930000F91FF90EF900895009711F00E94F70C1F
:101940000895A0E0B0E0E7EAFCE00C941A0FEC0187
:10195000A880B980CA80DB80A114B104C104D1047D
:1019600041F484E2A82E89EDB82E8BE5C82E87E0DD
:10197000D82EC601B5012DE133EF41E050E00E94C1
:10198000DD0E27EA31E440E050E00E94890E7B0141
:101990008C01C601B5012DE133EF41E050E00E941A
:1019A000DD0ECA01B9012CEE34EF4FEF5FEF0E945C
:1019B000890E6E0D7F1D801F911F97FF04C061501F
:1019C000704080409048688379838A839B839B0121
:1019D0003F77C901CDB7DEB7EAE00C94360F0E941D
:1019E000A10C089589EE91E00E94A10C0895A0E059
:1019F000B0E08093E9019093EA01A093EB01B093EA
:101A0000EC0108955058BB27AA270ED0E5C0D6D0C8
:101A100030F0DBD020F031F49F3F11F41EF4CBC046
:101A20000EF4E095E7FBC1C0E92FE7D080F3BA17C9
:101A3000620773078407950718F071F49EF5FFC0DD
:101A40000EF4E0950B2EBA2FA02D0B01B9019001D9
:101A50000C01CA01A0011124FF27591B99F0593F1D
:101A600050F4503E68F11A16F040A22F232F342F65
:101A70004427585FF3CF469537952795A795F040B3
:101A80005395C9F77EF41F16BA0B620B730B840BC8
:101A9000BAF09150A1F0FF0FBB1F661F771F881F80
:101AA000C2F70EC0BA0F621F731F841F48F48795D8
:101AB00077956795B795F7959E3F08F0B3CF9395C7
:101AC000880F08F09927EE0F97958795089504D011
:101AD0006894B111B5C0089598D088F09F5790F0E0
:101AE000B92F9927B751A0F0D1F0660F771F881F43
:101AF000991F1AF0BA95C9F712C0B13081F09FD082
:101B0000B1E008959CC0672F782F8827B85F39F01F
:101B1000B93FCCF3869577956795B395D9F73EF4A1
:101B200090958095709561957F4F8F4F9F4F089549
:101B3000E89409C097FB3EF4909580957095619567
:101B40007F4F8F4F9F4F9923A9F0F92F96E9BB271D
:101B50009395F695879577956795B795F111F8CF99
:101B6000FAF4BB0F11F460FF1BC06F5F7F4F8F4F04
:101B70009F4F16C0882311F096E911C0772321F0FA
:101B80009EE8872F762F05C0662371F096E8862F92
:101B900070E060E02AF09A95660F771F881FDAF7E9
:101BA000880F9695879597F9089597F99F6780E82C
:101BB00070E060E008959FEF80EC089500240A949F
:101BC0001616170618060906089500240A94121618
:101BD0001306140605060895092E0394000C11F44B
:101BE000882352F0BB0F40F4BF2B11F460FF04C0F8
:101BF0006F5F7F4F8F4F9F4F089557FD9058440F51
:101C0000551F59F05F3F71F04795880F97FB991F5B
:101C100061F09F3F79F08795089512161306140618
:101C2000551FF2CF4695F1DF08C0161617061806A5
:101C3000991FF1CF86957105610508940895E89480
:101C4000BB2766277727CB0197F908950BD0C4CF20
:101C5000B5DF28F0BADF18F0952309F0A6CFABCF97
:101C60001124EECFCADFA0F3959FD1F3950F50E07A
:101C7000551F629FF001729FBB27F00DB11D639F3E
:101C8000AA27F00DB11DAA1F649F6627B00DA11DE4
:101C9000661F829F2227B00DA11D621F739FB00D8A
:101CA000A11D621F839FA00D611D221F749F3327FA
:101CB000A00D611D231F849F600D211D822F762F93
:101CC0006A2F11249F5750408AF0E1F088234AF090
:101CD000EE0FFF1FBB1F661F771F881F91505040DC
:101CE000A9F79E3F510570F060CFAACF5F3FECF39C
:101CF000983EDCF3869577956795B795F795E795C8
:101D00009F5FC1F7FE2B880F911D9695879597F9D8
:101D10000895629FD001739FF001829FE00DF11D35
:101D2000649FE00DF11D929FF00D839FF00D749F55
:101D3000F00D659FF00D9927729FB00DE11DF91F01
:101D4000639FB00DE11DF91FBD01CF01112408955E
:101D500097FB092E07260AD077FD04D049D006D07C
:101D600000201AF4709561957F4F0895F6F79095CD
:101D700081959F4F0895A1E21A2EAA1BBB1BFD015E
:101D80000DC0AA1FBB1FEE1FFF1FA217B307E4075A
:101D9000F50720F0A21BB30BE40BF50B661F771FB2
:101DA000881F991F1A9469F7609570958095909592
:101DB0009B01AC01BD01CF01089597FB092E0526BB
:101DC0000ED057FD04D0D7DF0AD0001C38F4509550
:101DD0004095309521953F4F4F4F5F4F0895F6F74F
:101DE00090958095709561957F4F8F4F9F4F089587
:101DF000AA1BBB1B51E107C0AA1FBB1FA617B70731
:101E000010F0A61BB70B881F991F5A95A9F780954C
:101E10009095BC01CD010895EE0FFF1F0590F49140
:101E2000E02D09942F923F924F925F926F927F9292
:101E30008F929F92AF92BF92CF92DF92EF92FF92DA
:101E40000F931F93CF93DF93CDB7DEB7CA1BDB0B86
:101E50000FB6F894DEBF0FBECDBF09942A8839882B
:101E600048885F846E847D848C849B84AA84B98432
:101E7000C884DF80EE80FD800C811B81AA81B9813E
:101E8000CE0FD11D0FB6F894DEBF0FBECDBFED0152
:061E90000895F894FFCF55
:101E96007472616E736C6174696F6E3D200020749C
:101EA60072616E736C6174696F6E206572726F72A7
:101EB6003D200020726F746174696F6E3D200020B2
:101EC600726F746174696F6E206572726F723D20F5
:101ED60000206C6566744D6F746F7253706565642F
:101EE6003D20002072696768744D6F746F7253707D
:101EF6006565643D20002B2B2B0041544348307808
:101F060030430041545752004154434E006E6F74A3
:101F16002061206D657373616765207374617274E7
:101F26002062797465006E6F7420612076616C6939
:101F36006420636F6D6D616E6400696E76616C69B5
:101F46006420636865636B73756D006E6F742061E2
:101F5600206D65737361676520656E6420627974B0
:101F6600650014003200010002000300DC05DC00FD
:0E1F76001900000000009807010100000000A3
:00000001FF
