:100000000C945C000C9484000C9484000C94840088
:100010000C9484000C9484000C9484000C94840050
:100020000C9484000C9484000C9484000C94840040
:100030000C9484000C9484000C9484000C94840030
:100040000C94DF060C9484000C9431090C94840009
:100050000C9484000C9484000C9484000C94840010
:100060000C9484000C948400000024272A000025AE
:10007000282B000023262904040404040404040299
:100080000202020202030303030303010204081035
:100090002040800102040810200102040810200002
:1000A0000000070002010000030406000000000039
:1000B00000000000AB01DE0611241FBECFEFD4E02C
:1000C000DEBFCDBF11E0A0E0B1E0E8E8F9E102C099
:1000D00005900D92AE3DB107D9F712E0AEEDB1E05B
:1000E00001C01D92AC39B107E1F710E0C8EBD0E0D8
:1000F00004C02297FE010E94BF0CC43BD107C9F780
:100100000E9407060C94C30C0C940000282F845006
:10011000843058F02E3149F02E3039F02F3029F04C
:10012000203119F080E02B3109F481E099270895FE
:100130008B3149F08E3039F08F3029F0803119F051
:1001400090E08E3109F491E0892F992708951F934B
:100150001091DF01812F0E9498004091E2018823D5
:1001600029F060E070E0411791F40FC060E070E0AA
:1001700055278091E001810F912D911D2091E10182
:10018000820F911D4817590711F461E070E0CB010F
:100190001F9108951092F6011092F5011092F80146
:1001A0001092F7011092E8011092E7011092E60117
:1001B0001092E5018091DF01863019F1873030F42B
:1001C000843051F0853009F055C00BC0873011F1F3
:1001D0008E3109F04FC03EC08091E3019091E4015F
:1001E00007C08091E3019091E401909581959F4F24
:1001F0009093F6018093F5011092F8011092F701A7
:1002000018C01092F6011092F5018091E3019091CF
:10021000E4010BC01092F6011092F5018091E30108
:100220009091E401909581959F4F9093F801809370
:10023000F7018091E9019091EA019093E8018093A0
:10024000E7018091EF019091F0019093E601809396
:10025000E50108951092F6011092F5011092F8014F
:100260001092F7011092E8011092E7011092E60156
:100270001092E501089596E094B995B1997F926046
:1002800095B995B1997F966095B946E050E0E82F11
:10029000FF27A1E0B0E0CD01042E02C0880F991F16
:1002A0000A94E2F78E239F23042E02C0959587952A
:1002B0000A94E2F7880F25B1297F282B25B925B1AB
:1002C000297F2460822B85B9415050408FEF4F3FEA
:1002D000580709F747E050E07727E1E0F0E0CF0169
:1002E000042E02C0880F991F0A94E2F786239723F1
:1002F000042E02C0959587950A94E2F7880F25B1E0
:10030000297F282B25B925B1297F2460822B85B927
:10031000415050408FEF4F3F580709F7089501971C
:10032000C9F46F5F7F4FB1F46091D6017091D7012E
:10033000882777FD8095982F0E949A0B26E636E64F
:1003400046EE5EE30E94EF0B0E947D0B7093FE0170
:100350006093FD0108956FEF7FEF81E090E00E94D0
:100360008F01089596E094B995B1997F95B995B1AB
:10037000997F946095B946E050E0682F7727E1E0D7
:10038000F0E0CF01042E02C0880F991F0A94E2F713
:1003900086239723042E02C0959587950A94E2F749
:1003A000880F25B1297F282B25B925B1297F246005
:1003B000822B85B9415050408FEF4F3F580709F7C6
:1003C00084E084B985B1897F846085B982E390E057
:1003D0000E943E0730E047E050E085B1897F85B953
:1003E00025B1297F246083B19927827090709595FB
:1003F0008795042E02C0880F991F0A94E2F7382BC4
:1004000025B9415050408FEF4F3F580731F738B969
:10041000832F992708950F931F9383E40E94B201BD
:10042000082F82E40E94B201992787FD90952091C0
:10043000E7013091E801280F391F3093E80120933C
:10044000E701112707FD10958091E5019091E601E4
:10045000800F911F9093E6018093E5011F910F910A
:10046000089560E070E085E00E94AE0760E070E013
:1004700086E00E94AE0760E083E00E946C0860E0C6
:1004800084E00E946C080895EF92FF920F931F93EF
:100490007B010FEF10E0B801681B790B85E00E942B
:1004A000AE070E191F09B80186E00E94AE0761E091
:1004B00083E00E946C0861E084E00E946C081F9158
:1004C0000F91FF90EF9008950F931F938B01BC0144
:1004D00085E00E94AE07B80186E00E94AE0760E0AA
:1004E00083E00E946C0860E084E00E946C081F9129
:1004F0000F910895AF92BF92CF92DF92EF92FF9249
:100500000F931F93CF93DF93FC010996439710F449
:10051000E0E0F0E0CB010996439710F460E070E072
:100520002091D6013091D701A901E217F3070CF40D
:10053000AF01CC24DD24C21AD30AC601C416D506E5
:100540000CF46A01621773070CF49B01EC0182172B
:1005500093070CF4E9011C141D0434F460E083E0FB
:100560000E946C08B6013DC0C114D104A1F161E044
:1005700083E00E946C08E091D601F091D701EE244F
:10058000FF24EE1AFF0A0027F7FC0095102FB60192
:10059000882777FD8095982F2FEF30E02E1B3F0B9B
:1005A000442737FD4095542F5F934F933F932F93EC
:1005B000FFEFAF2EB12CC12CD12C20E030E040E079
:1005C00050E00E944A0A85E00E94AE070F900F900B
:1005D0000F900F9009C060E083E00E946C0860E01B
:1005E00070E085E00E94AE071C161D0634F460E042
:1005F00084E00E946C08BE013CC02097A1F161E03C
:1006000084E00E946C08E091D601F091D701EE24BD
:10061000FF24EE1AFF0A0027F7FC0095102FBE01F9
:10062000882777FD8095982F2FEF30E02E1B3F0B0A
:10063000442737FD4095542F5F934F933F932F935B
:10064000EFEFAE2EB12CC12CD12C20E030E040E0F9
:1006500050E00E944A0A86E00E94AE070F900F9079
:100660000F900F9009C060E084E00E946C0860E089
:1006700070E086E00E94AE07DF91CF911F910F914D
:10068000FF90EF90DF90CF90BF90AF9008950F93C1
:100690001F9303E112E060E071E0C8010E94BF0611
:1006A0004091E7015091E801662757FD6095762F4C
:1006B0002AE030E0C8010E9491066EE071E0C801B6
:1006C0000E94BF064091E9015091EA01662757FD5B
:1006D0006095762F2AE030E0C8010E94910663E21F
:1006E00071E0C8010E94BF064091E5015091E6010A
:1006F000662757FD6095762F2AE030E0C8010E94FA
:1007000091066FE271E0C8010E94BF064091EF01BF
:100710005091F001662757FD6095762F2AE030E072
:10072000C8010E94910661E471E0C8010E94BF0601
:100730004091F9015091FA01662757FD6095762F97
:100740002AE030E0C8010E94910663E571E0C8012B
:100750000E94BF064091FB015091FC01662757FDA6
:100760006095762F2AE030E0C8010E949106C8010A
:100770000E942A061F910F910895BC0183E192E027
:100780000E94C30608950F931F9303E112E066E6EB
:1007900071E0C8010E94BF066AE671E0C8010E94CC
:1007A000C30663E771E0C8010E94C30668E771E011
:1007B000C8010E94C3061F910F9108952F923F9286
:1007C0004F925F926F927F928F929F92AF92BF9261
:1007D000CF92DF92EF92FF920F931F93CF93DF930D
:1007E0000E940B02C091F501D091F6018091E701C2
:1007F0009091E801C81BD90BD093EA01C093E9019D
:100800008091EB019091EC016E01C81AD90AD09247
:10081000EE01C092ED014090F7015090F801609018
:10082000E5017090E6012090F1013090F201C83CA2
:10083000D1050CF080C0BE01882777FD8095982FE8
:100840000E949A0B2091FF01309100024091010219
:10085000509102020E94EF0B7B018C01B6018827A8
:1008600077FD8095982F0E949A0B2091030230917A
:10087000040240910502509106020E94EF0B9B0179
:10088000AC01C801B7010E943B0B0E947D0B5B01CC
:100890006C0180E090E0A0E8BFE3809307029093B2
:1008A0000802A0930902B0930A0280E090E0A0E061
:1008B000B0E080930B0290930C02A0930D02B093D2
:1008C0000E02B201661977097093F0016093EF018F
:1008D0007B01E218F308F092F401E092F30188271B
:1008E00077FD8095982F0E949A0B3B014C010027C1
:1008F000F7FC0095102FC801B7010E949A0B20E069
:1009000030E040E050E00E94EF0B9B01AC01C401DD
:10091000B3010E943B0B0E947D0B9501260F371FF0
:100920003093FA012093F901A61AB70AB092FC019C
:10093000A092FB015BC08090FD019090FE018DECC8
:100940009CECACECBEE38093070290930802A0936A
:100950000902B0930A0280E090E0A0E0B0E080934A
:100960000B0290930C02A0930D02B0930E02B20101
:10097000661977097093F0016093EF017B01E2182B
:10098000F308F092F401E092F301882777FD809557
:10099000982F0E949A0B2DEC3CEC4CEC5EE30E94ED
:1009A000EF0B5B016C010027F7FC0095102FC801CD
:1009B000B7010E949A0B20E030E040E050E00E9436
:1009C000EF0B9B01AC01C601B5010E943B0B0E94DD
:1009D0007D0B9401260F371F3093FA012093F90104
:1009E000861A970A9092FC018092FB01D093EC0149
:1009F000C093EB018091EF019091F0019093F2018F
:100A00008093F10180910F029091100201969093D2
:100A1000100280930F02209111023091120282176E
:100A2000930731F40E9447031092100210920F02B4
:100A30006091FB017091FC018091F9019091FA01A4
:100A40000E947A0283E192E00E94D406882309F48E
:100A50005DC083E192E00E94D106EC018091DE014D
:100A60008B3051F18C3030F4813061F0833009F0FB
:100A70004DC011C08331F1F1853189F18C3009F01D
:100A800045C01EC0C23011F483E03EC08DE791E046
:100A90000E94BD033BC08C2F0E948600882349F032
:100AA000C093DF018C2F0E9498008823B1F48BE063
:100AB0002BC086E991E025C0C093E0018CE024C002
:100AC000C093E1018091E0019927982F88278C0F2E
:100AD000911D9093E4018093E30185E115C0C093DB
:100AE000E2010E94A700882311F083E10DC08AEA89
:100AF00091E007C0C83019F40E94CA0004C08BEB13
:100B000091E00E94BD0381E08093DE01DF91CF91EF
:100B10001F910F91FF90EF90DF90CF90BF90AF901B
:100B20009F908F907F906F905F904F903F902F900D
:100B300008952AE939E949E95EE32093FF013093FA
:100B40000002409301025093020280E090E0A0E096
:100B5000B0E08093030290930402A0930502B09347
:100B60000602209307023093080240930902509333
:100B70000A0280930B0290930C02A0930D02B09393
:100B80000E028091F5019091F6012091E7013091DC
:100B9000E801821B930B9093EC018093EB01809111
:100BA000F7019091F8012091E5013091E601821B57
:100BB000930B9093F2018093F10161E082E00E9437
:100BC000020861E083E00E94020861E084E00E9484
:100BD000020861E085E00E94020861E086E00E9470
:100BE000020881E08093DE0140E05BE460E070E0B9
:100BF00083E192E00E94D8061092100210920F0238
:100C000084E690E0909312028093110208950E946E
:100C10004B070E9499050E94DE03FDCF08950895B9
:100C2000CB01BA013327442755270E94770908953D
:100C30002AE00E9410060895AB01662777270E94DC
:100C400018060895862F0E946F090895862F0E9426
:100C50006F0908950F931F938C016DE00E94260683
:100C60006AE0C8010E9426061F910F9108950F9314
:100C70001F938C010E941806C8010E942A061F912A
:100C80000F9108950F931F938C010E941C06C801B9
:100C90000E942A061F910F9108950F931F938C01B4
:100CA0000E942206C8010E942A061F910F910895F2
:100CB0000F931F938C010E942606C8010E942A06EA
:100CC0001F910F910895EF92FF920F931F93CF936F
:100CD000DF93EC017A018B0177FF0BC06DE20E947C
:100CE000260610950095F094E094E11CF11C011D7E
:100CF000111D2AE0B801A701CE010E941006DF9164
:100D0000CF911F910F91FF90EF9008950F931F9334
:100D10008C010E946306C8010E942A061F910F9150
:100D200008952115310521F4642F0E9426060895A7
:100D30002A30310519F40E94630608950E941006B6
:100D400008950F931F938C010E949106C8010E9481
:100D50002A061F910F910895AB01662757FD6095F4
:100D6000762F0E94630608950F931F938C010E94B3
:100D7000AC06C8010E942A061F910F910895CB016D
:100D80000E943D0A08950F931F938C010E94BF0695
:100D9000C8010E942A061F910F9108950E942809F8
:100DA00008950E94090908950E94F8089927089556
:100DB000CB01BA010E94B7080895089508951F92C3
:100DC0000F920FB60F9211248F939F93AF93BF93FF
:100DD0008091180290911902A0911A02B0911B0201
:100DE0000196A11DB11D8093180290931902A09342
:100DF0001A02B0931B02BF91AF919F918F910F90F8
:100E00000FBE0F901F9018956091180270911902F3
:100E100080911A0290911B0227E0660F771F881FAE
:100E2000991F2A95D1F72EE330E040E050E00E9470
:100E30006C0CCA01B9010895AF92BF92CF92DF92B4
:100E4000EF92FF920F931F935B016C010E940407C6
:100E50007B018C010E9404076E197F09800B910BA6
:100E60006A157B058C059D05A8F31F910F91FF90D6
:100E7000EF90DF90CF90BF90AF900895019751F021
:100E8000019741F0880F991F01972FB7F8940197A8
:100E9000F1F72FBF0895789410921802109219025A
:100EA00010921A0210921B0284B5826084BD84B530
:100EB000816084BD85B5826085BD85B5816085BD55
:100EC000EEE6F0E0808181608083E1E8F0E08081FF
:100ED00082608083808181608083E0E8F0E08081AF
:100EE00081608083E1EBF0E0808184608083E0EBCF
:100EF000F0E0808181608083EAE7F0E080818460B7
:100F00008083808182608083808181608083808112
:100F1000806880831092C10008958093D80108955D
:100F20009091D8019295990F990F907C8F70982B82
:100F300090937C0080917A00806480937A00809105
:100F40007A0086FDFCCF2091780080917900992766
:100F5000982F88273327822B932B08951F93CF93A5
:100F6000DF93182FEB0161E00E940208E12FFF27B9
:100F7000E156FF4F8491833051F480918000806866
:100F800080938000D0938900C093880037C084305C
:100F900051F480918000806280938000D0938B0018
:100FA000C0938A002BC0813029F484B5806884BD49
:100FB000C7BD24C0823029F484B5806284BDC8BD19
:100FC0001DC0863041F48091B00080688093B000ED
:100FD000C093B30013C0873041F48091B0008062A9
:100FE0008093B000C093B40009C0C038D10514F498
:100FF00060E001C061E0812F0E946C08DF91CF9119
:101000001F910895282F3327C90185579F4FFC0151
:10101000949129583F4FF9018491882381F0E82F5A
:10102000FF27E859FF4FE491FF27662329F48081C9
:1010300090958923808308958081892B80830895EA
:10104000482F5527CA0181569F4FFC012491CA01A0
:1010500085579F4FFC01949149585F4FFA01349195
:10106000332319F480E090E00895222331F12330F6
:1010700021F4809180008F7705C0243031F4809175
:1010800080008F7D8093800018C0213019F484B5D2
:101090008F7704C0223021F484B58F7D84BD0DC0CC
:1010A000263021F48091B0008F7705C0273029F4D5
:1010B0008091B0008F7D8093B000E32FFF27EE5822
:1010C000FF4FE491FF27808120E030E0892311F079
:1010D00021E030E0C9010895482F5527CA01815603
:1010E0009F4FFC012491CA0185579F4FFC019491A9
:1010F00049585F4FFA0134913323C1F1222331F172
:10110000233021F4809180008F7705C0243031F4A2
:10111000809180008F7D8093800018C0213019F469
:1011200084B58F7704C0223021F484B58F7D84BDCF
:101130000DC0263021F48091B0008F7705C0273094
:1011400029F48091B0008F7D8093B000E32FFF27BA
:10115000E359FF4FE491FF27662329F4808190959E
:101160008923808308958081892B80830895EF925D
:10117000FF920F931F937B018C0122E030E040E04F
:1011800050E00E948E0C205E3E45484F5F4FCA01E2
:10119000B901A80197010E948E0C215030404040B7
:1011A0005040BB2757FDBA95A52F942F832F2F5F53
:1011B0003F4F4F4F5F4F8093C50021502093C40095
:1011C000E1ECF0E0808180618083808188608083B1
:1011D0008081806880831F910F91FF90EF90089528
:1011E000982F8091C00085FFFCCF9093C600089592
:1011F00080911402909115022091160230911702ED
:10120000821B930B80589F4F60E870E00E94590C3E
:101210000895409116025091170280911402909106
:1012200015028417950719F48FEF9FEF0895FA01BF
:10123000E45EFD4F2081CA01019660E870E00E94E3
:10124000590C9093170280931602822F99270895C4
:1012500080911602909117029093150280931402C8
:1012600008951F920F920FB60F9211242F933F9360
:101270004F935F936F937F938F939F93AF93BF939E
:10128000EF93FF934091C600E0911402F091150294
:10129000CF01019660E870E00E94590C9C0180919A
:1012A0001602909117022817390739F0E45EFD4FB6
:1012B00040833093150220931402FF91EF91BF9168
:1012C000AF919F918F917F916F915F914F913F91DE
:1012D0002F910F900FBE0F901F9018950895982F83
:1012E0008091C00085FFFCCF9093C60008952F9297
:1012F0003F924F925F926F927F928F929F92AF92A6
:10130000BF92CF92DF92EF92FF920F931F93CF93F2
:10131000DF93CDB7DEB7A0970FB6F894DEBF0FBE50
:10132000CDBF6B017C0129013A0161157105810571
:10133000910541F48091C00085FFFCCF80E380934C
:10134000C60041C08824992454011E010894211C20
:10135000311C8101080D191DC701B601A3019201BD
:101360000E946C0CF80160830894811C911CA11CE4
:10137000B11CC701B601A30192010E946C0C690166
:101380007A01211531054105510519F79E012F5F9D
:101390003F4F14C0089481089108A108B108F901D1
:1013A000E80DF91DE081EA3010F4E05D01C0E95C70
:1013B0008091C00085FFFCCFE093C60081149104AA
:1013C000A104B10439F7A0960FB6F894DEBF0FBEA2
:1013D000CDBFDF91CF911F910F91FF90EF90DF90E4
:1013E000CF90BF90AF909F908F907F906F905F90C5
:1013F0004F903F902F90089520E130E040E050E082
:101400000E947709089528E030E040E050E00E9413
:101410007709089522E030E040E050E00E9477092B
:1014200008958091C00085FFFCCF8AE08093C600BC
:101430000895EF92FF920F931F937B018C0197FF0A
:101440000FC08091C00085FFFCCF8DE28093C60065
:1014500010950095F094E094E11CF11C011D111D04
:101460002AE030E040E050E0C801B7010E9477096F
:101470001F910F91FF90EF900895FC0107C080919C
:10148000C00085FFFCCF31969093C60090819923D0
:10149000B1F708956F927F928F929F92AF92BF9211
:1014A000CF92DF92EF92FF920F931F93CF93DF9330
:1014B000CDB7DEB739014A0129893A894B895C8960
:1014C00066197709880999092A193B094C095D09A8
:1014D0000E943A0CE618F70808091909A8019701B3
:1014E0000E948E0C2A0D3B1D4C1D5D1DCA01B901C9
:1014F000DF91CF911F910F91FF90EF90DF90CF90F0
:10150000BF90AF909F908F907F906F900895EF92D3
:10151000FF920F931F937B018C016115710581056B
:10152000910529F460E070E080E090E00CC00E943A
:101530002A0BAA2797FDA095BA2FBC01CD01A801BF
:1015400097010E948E0C1F910F91FF90EF900895CC
:10155000EF92FF920F931F937B018C016217730729
:101560008407950764F4261B370B480B590BCA01F7
:10157000B9010E94870AE60EF71E081F191FC8014D
:10158000B7011F910F91FF90EF900895009711F010
:101590000E942F0B0895AF92BF92CF92DF92EF92ED
:1015A000FF920F931F93CF93DF93EC01A880B98034
:1015B000CA80DB80A114B104C104D10449F482E4DF
:1015C000E82E8EECF82E8CE0082F8FE1182F2EC01D
:1015D000C601B5012DE133EF41E050E00E948E0CD1
:1015E00027EA31E440E050E00E943A0C7B018C0194
:1015F000C601B5012DE133EF41E050E00E948E0CB1
:10160000CA01B90124E13BE040E050E00E943A0CFD
:10161000E61AF70A080B190B17FF08C08FEF9FEFA8
:10162000AFEFBFE7E80EF91E0A1F1B1FE882F98221
:101630000A831B83C7019F77DF91CF911F910F9181
:10164000FF90EF90DF90CF90BF90AF9008950E94F1
:10165000CB0A089589ED91E00E94CB0A0895AA274C
:10166000BB278093D9019093DA01A093DB01B0935B
:10167000DC0108955058192E84D001D06AC0BA17E1
:101680006207730784079507B1F188F40EF410948C
:101690000B2EBA2FA02D062E622F202D072E732F72
:1016A000302D082E842F402D092E952F502DFF27E9
:1016B0005523B9F0591B49F0573E98F04695379598
:1016C0002795A795F0405395C9F776F0BA0F621F9A
:1016D000731F841F30F4879577956795B795F04011
:1016E000939517FA0F2E0895BF1BBB27BA0B620BF9
:1016F000730B840BF6CFDEF670C097FB4ED09F378E
:1017000038F0FEE9F91B982F872F762F6B2F05C035
:1017100061C09695879577956795F150D0F73EF41F
:1017200090958095709561957F4F8F4F9F4F08954D
:10173000E89403C097FB0EF4F3DFB62F672F782FE2
:10174000892F9EE9002405C09A95BB0F661F771F5D
:10175000881F11249923A1F08823B2F79F3F59F0E5
:10176000BB0F48F421F4002011F460FF04C06F5F48
:101770007F4F8F4F9F4F881F9795879597F90895B3
:1017800029C0052E092607FA440F551F5F3F79F03F
:10179000AA27A51708F051E04795880F991F9F3F8A
:1017A00031F0BB27B91708F091E0879508959F9114
:1017B0009F9111245CC097FB880F991F9F3F31F0C8
:1017C000BB27B91708F091E0879508959F919F91E5
:1017D00011244DC066277727882799270895D1DFE0
:1017E00001D0B7CF992339F0552329F09F575F5780
:1017F000950F13F49AF1F1CF91589F3FE1F3629F57
:10180000A12D0F92BB27639FA00DB11DEE27729FE4
:10181000A00DB11DEE1FAF93AA27649FB00DE11D6F
:10182000739FB00DE11DAA1F6627829FB00DE11DB9
:10183000A61F5527749FE00DA11D551F839FE00D26
:10184000A11D561F849FA00D511D852F7A2F6E2F2D
:101850001F900F9088231AF4939539F408C0000C58
:10186000111CBB1F661F771F881F012808959FEF5B
:1018700080EC0895629FD001739FF001829FE00D7C
:10188000F11D649FE00DF11D929FF00D839FF00DFF
:10189000749FF00D659FF00D9927729FB00DE11DAB
:1018A000F91F639FB00DE11DF91FBD01CF01112488
:1018B000089597FB092E07260AD077FD04D049D05A
:1018C00006D000201AF4709561957F4F0895F6F7C1
:1018D000909581959F4F0895A1E21A2EAA1BBB1BDC
:1018E000FD010DC0AA1FBB1FEE1FFF1FA217B307EC
:1018F000E407F50720F0A21BB30BE40BF50B661F02
:10190000771F881F991F1A9469F7609570958095C5
:1019100090959B01AC01BD01CF01089597FB092E65
:1019200005260ED057FD04D0D7DF0AD0001C38F4AE
:1019300050954095309521953F4F4F4F5F4F0895FB
:10194000F6F790958095709561957F4F8F4F9F4FDB
:101950000895AA1BBB1B51E107C0AA1FBB1FA617F6
:10196000B70710F0A61BB70B881F991F5A95A9F748
:1019700080959095BC01CD010895EE0FFF1F059055
:08198000F491E02D0994FFCF62
:101988007472616E736C6174696F6E3D20002074AF
:1019980072616E736C6174696F6E206572726F72BA
:1019A8003D200020726F746174696F6E3D200020C5
:1019B800726F746174696F6E206572726F723D2008
:1019C80000206C6566744D6F746F72537065656442
:1019D8003D20002072696768744D6F746F72537090
:1019E8006565643D20002B2B2B004154434830781B
:1019F80030430041545752004154434E006E6F74B7
:101A08002061206D657373616765207374617274FA
:101A18002062797465006E6F7420612076616C694C
:101A28006420636F6D6D616E6400696E76616C69C8
:101A38006420636865636B73756D006E6F742061F5
:101A4800206D65737361676520656E6420627974C3
:0E1A580065001400320064000101000000006F
:00000001FF
