:100000000C945C000C9484000C9484000C94840088
:100010000C9484000C9484000C9484000C94840050
:100020000C9484000C9484000C9484000C94840040
:100030000C9484000C9484000C9484000C94840030
:100040000C948B090C9484000C940C0C0C9484007C
:100050000C9484000C9484000C9484000C94840010
:100060000C9484000C948400000024272A000025AE
:10007000282B000023262904040404040404040299
:100080000202020202030303030303010204081035
:100090002040800102040810200102040810200002
:1000A0000000070002010000030406000000000039
:1000B00000000000CF01E30711241FBECFEFD4E002
:1000C000DEBFCDBF11E0A0E0B1E0EAE3FFE102C096
:1000D00005900D92AA3EB107D9F712E0AAEEB1E061
:1000E00001C01D92A23BB107E1F710E0C8EBD0E0E0
:1000F00004C02297FE010E94600FC43BD107C9F7DC
:100100000E94DC070C949B0F0C940000982F8450E5
:10011000843088F09E3179F09E3069F09F3059F03C
:10012000903149F09B3139F09C3129F080E09D31CC
:1001300019F481E0089581E008958B3169F08E30E3
:1001400059F08F3049F0803139F08E3129F08C31FF
:1001500019F090E08D3109F491E0892F08951F93F3
:100160001091EB01812F0E949D004091EE018823A8
:1001700021F030E0411789F40FC030E050E02091C9
:10018000EC01812F90E0820F911D2091ED01820FF3
:10019000911D4817590709F431E0832F1F910895E5
:1001A00010920202109201021092040210920302B5
:1001B0001092F4011092F3011092F2011092F101E9
:1001C0008091EB01873009F444C0883040F48530D9
:1001D000A9F08630A8F5843009F08DC00AC08D31B1
:1001E00009F47AC08E3109F456C08C3109F083C00D
:1001F00063C08091EF019091F00107C08091EF0101
:100200009091F001909581959F4F90930202809379
:10021000010210920402109203028091F501909164
:10022000F6019093F4018093F3018091FB0190918A
:10023000FC019093F2018093F10181E090E047C0CE
:1002400010920202109201028091EF019091F00150
:100250000BC010920202109201028091EF01909166
:10026000F001909581959F4F909304028093030233
:100270008091F5019091F6019093F4018093F30140
:100280008091FB019091FC019093F2018093F10128
:1002900082E090E01CC010920202109201021092C3
:1002A0000402109203021092F4011092F3011092D2
:1002B000F2011092F10109C088E097E09093D90112
:1002C0008093D80181E08093210283E090E09093B5
:1002D000D7018093D601089588E29AE09093D901DE
:1002E0008093D80181E08093210283E090E0909395
:1002F000D7018093D601089596E094B995B1997F7E
:10030000926095B995B1966095B946E050E0A1E04C
:10031000B0E0E82FF0E09D01042E02C0220F331F51
:100320000A94E2F72E233F23042E02C03595279529
:100330000A94E2F7220F85B1897F822B85B985B1B6
:10034000897F8460822B85B9415050408FEF4F3FA9
:10035000580709F747E050E0E1E0F0E070E09F0166
:10036000042E02C0220F331F0A94E2F726233723FC
:10037000042E02C0359527950A94E2F7220F85B125
:10038000897F822B85B985B1897F8460822B85B96D
:10039000415050408FEF4F3F580709F70895609143
:1003A000DA017091DB01882777FD8095982F0E94F4
:1003B000EC0D26E636E646EE5EE30E94780E0E94DD
:1003C000B90D70930A026093090270930C02609356
:1003D0000B02089596E094B995B1997F95B995B1BE
:1003E000997F946095B946E050E0E1E0F0E0682F35
:1003F00070E09F01042E02C0220F331F0A94E2F71F
:1004000026233723042E02C0359527950A94E2F758
:10041000220F85B1897F822B85B985B1897F846060
:10042000822B85B9415050408FEF4F3F580709F755
:1004300084E084B985B1897F846085B982E390E0E6
:100440000E94200A30E047E050E085B1897F85B9FD
:1004500025B1297F246083B190E0827090709595DA
:100460008795042E02C0880F991F0A94E2F7382B53
:1004700025B9415050408FEF4F3F580731F738B9F9
:10048000832F08950F931F9383E40E94EA01082F9E
:1004900082E40E94EA01992787FD90952091F3015B
:1004A0003091F401280F391F3093F4012093F301A8
:1004B000112707FD10958091F1019091F201800FB5
:1004C000911F9093F2018093F1011F910F91089574
:1004D00060E070E085E00E94890A60E070E086E0FC
:1004E0000E94890A60E083E00E94FB0A60E084E0E9
:1004F0000E94FB0A0895EF92FF920F931F937B01D6
:100500000FEF10E0B801681B790B85E00E94890AA3
:100510000E191F09B80186E00E94890A61E083E094
:100520000E94FB0A61E084E00E94FB0A1F910F9188
:10053000FF90EF9008950F931F938B01BC0185E00E
:100540000E94890AB80186E00E94890A60E083E07F
:100550000E94FB0A60E084E00E94FB0A1F910F9159
:100560000895AF92BF92CF92DF92EF92FF920F93D6
:100570001F93CF93DF939C01AB010996439710F42F
:1005800020E030E0CA010996439710F440E050E0C3
:100590008091DA019091DB01B901821793070CF485
:1005A000BC0122273327281B390B6B016217730705
:1005B0000CF46901BA01841795070CF4BC01EB0136
:1005C000621773070CF4E9011C141D0434F460E095
:1005D00083E00E94FB0AB6013DC0C114D104A1F121
:1005E00061E083E00E94FB0AE091DA01F091DB0117
:1005F000EE24FF24EE1AFF0A0027F7FC0095102FC7
:10060000B601882777FD8095982F2FEF30E02E1BBD
:100610003F0B442737FD4095542F5F934F933F93F3
:100620002F93FFEFAF2EB12CC12CD12C20E030E066
:1006300040E050E00E94490C85E00E94890A0F903A
:100640000F900F900F9009C060E083E00E94FB0ABA
:1006500060E070E085E00E94890A1C161D0634F4F3
:1006600060E084E00E94FB0ABE013CC02097A1F13B
:1006700061E084E00E94FB0AE091DA01F091DB0185
:10068000EE24FF24EE1AFF0A0027F7FC0095102F36
:10069000BE01882777FD8095982F2FEF30E02E1B25
:1006A0003F0B442737FD4095542F5F934F933F9363
:1006B0002F93EFEFAE2EB12CC12CD12C20E030E0E7
:1006C00040E050E00E94490C86E00E94890A0F90A9
:1006D0000F900F900F9009C060E084E00E94FB0A29
:1006E00060E070E086E00E94890ADF91CF911F915F
:1006F0000F91FF90EF90DF90CF90BF90AF90089553
:100700000F931F9304E212E060E071E0C8010E94C1
:100710000C084091F3015091F401662757FD609554
:10072000762F2AE030E0C8010E946B096EE071E08C
:10073000C8010E940C084091F5015091F60166270E
:1007400057FD6095762F2AE030E0C8010E946B09C2
:1007500063E271E0C8010E940C084091F1015091E0
:10076000F201662757FD6095762F2AE030E0C80138
:100770000E946B096FE271E0C8010E940C08409171
:10078000FB015091FC01662757FD6095762F2AE00A
:1007900030E0C8010E946B0961E471E0C8010E9469
:1007A0000C084091050250910602662757FD60959E
:1007B000762F2AE030E0C8010E946B0963E571E002
:1007C000C8010E940C084091070250910802662758
:1007D00057FD6095762F2AE030E0C8010E946B0932
:1007E000C8010E9424081F910F910895BC0184E262
:1007F00092E00E944B0808950F931F9304E212E0C9
:1008000066E671E0C8010E940C086AE671E0C80162
:100810000E944B0863E771E0C8010E944B0868E73B
:1008200071E0C8010E944B081F910F9108952F920B
:100830003F924F925F926F927F928F929F92AF9270
:10084000BF92CF92DF92EF92FF920F931F93DF93AD
:10085000CF9300D0CDB7DEB70E9442026090010274
:10086000709002028091F3019091F401681A790A64
:100870007092F6016092F5018091F7019091F80174
:100880001301281A390A3092FA012092F901C09016
:100890000302D09004028091F1019091F201C81AF4
:1008A000D90AD092FC01C092FB018091FD01909188
:1008B000FE012601481A590A509200024092FF0197
:1008C0002091D6013091D7013A8329832130310517
:1008D00009F0EAC0C30189539F4F8F58914008F037
:1008E00072C0B301882777FD8095982F0E94EC0D88
:1008F00020910D0230910E0240910F025091100292
:100900000E94780E7B018C01B101882777FD8095CC
:10091000982F0E94EC0D209111023091120240910B
:100920001302509114020E94780E9B01AC01C80181
:10093000B7010E94550D0E94B90D7B018C0180E02A
:1009400090E0A0E8BFE38093150290931602A09375
:100950001702B093180280E090E0A0E0B0E080932E
:10096000190290931A02A0931B02B0931C02B601C5
:10097000882777FD8095982F0E94EC0D5B016C0114
:10098000B201882777FD8095982F0E94EC0D20E01A
:1009900030E040E050E00E94780E9B01AC01C601BF
:1009A000B5010E94550D0E94B90D9B012E0D3F1DF2
:1009B0003093060220930502E61AF70AF092080225
:1009C000E09207026BC11614170464F480910902C7
:1009D00090910A0290930602809305029093080278
:1009E0008093070277FE0FC08091090290910A025E
:1009F000909581959F4F9093060280930502909366
:100A00000802809307028DEC9CECACECBEE3809373
:100A1000150290931602A0931702B093180280E07B
:100A200090E0A0E0B0E08093190290931A02A093A6
:100A30001B02B0931C02B601882777FD8095982F82
:100A40000E94EC0D2DEC3CEC4CEC5EE30E94780E29
:100A50007B018C01B201882777FD8095982F0E9439
:100A6000EC0D20E030E040E050E00E94780E9B0169
:100A7000AC01C801B7010E94550D0E94B90D20912B
:100A8000050230910602260F371F3093060220938D
:100A900005022091070230910802261B370B309384
:100AA000080220930702FAC089819A81029709F00F
:100AB000E9C0C6018D599F4F873C910508F083C05E
:100AC0008AE999E9A9E9BEE3809315029093160299
:100AD000A0931702B093180280E090E0A0E0B0E08D
:100AE0008093190290931A02A0931B02B0931C02E8
:100AF000B601882777FD8095982F0E94EC0D2AE992
:100B000039E949E95EE30E94780E7B018C01B2016C
:100B1000882777FD8095982F0E94EC0D20E030E02B
:100B200040E050E00E94780E9B01AC01C801B70183
:100B30000E94550D0E94B90D7B018C0188249924D7
:100B4000861A970AD092FC01C092FB0150920002D3
:100B50004092FF01B301882777FD8095982F0E946E
:100B6000EC0D20910D0230910E0240910F02509138
:100B700010020E94780E5B016C01B101882777FD9D
:100B80008095982F0E94EC0D209111023091120255
:100B900040911302509114020E94780E9B01AC0107
:100BA000C601B5010E94550D0E94B90DE60EF71E53
:100BB000F0920602E0920502860E971E90920802BD
:100BC000809207026BC01C141D047CF480910B0200
:100BD00090910C0290930602809305029095819566
:100BE0009F4F9093080280930702D7FE57C0A090B2
:100BF0000B02B0900C02CC24DD24CA18DB0880E084
:100C000090E0A0E8BFE380930D0290930E02A093C2
:100C10000F02B093100280E090E0A0E0BFE3809369
:100C2000110290931202A0931302B0931402B30125
:100C3000882777FD8095982F0E94EC0D7B018C0111
:100C4000B101882777FD8095982F0E94EC0D20E058
:100C500030E040E05FE30E94780E9B01AC01C801E8
:100C6000B7010E94550D0E94B90DC60ED71ED09235
:100C70000602C09205026A0D7B1D70930802609304
:100C800007020CC0E981FA81339741F41092060201
:100C90001092050210920802109207027092F80159
:100CA0006092F7014091FB015091FC014093FD01DE
:100CB0005093FE0180911D0290911E020196909327
:100CC0001E0280931D0220911F0230912002821784
:100CD000930721F410921E0210921D0229813A817D
:100CE000215030402230310540F5B30177FE03C07A
:100CF000709561957F4F8091D4019091D5016817CF
:100D00007907BCF49A0157FF03C0309521953F4FF6
:100D10008091D2019091D3012817390754F4809122
:100D20002202909123020196909323028093220243
:100D300004C010922302109222028091220290910C
:100D40002302449784F06AE070E084E292E00E941B
:100D50005309109223021092220283E090E09093B4
:100D6000D7018093D60160910502709106028091AF
:100D70000702909108020E94B1028091210288230B
:100D8000B1F16624772400ED17E01EC061E082E037
:100D90000E94FB0A8091D8019091D9010E94200AFB
:100DA00060E082E00E94FB0A8091D8019091D90115
:100DB000F801E81BF90BCF010E94200A62E370E002
:100DC00080E090E00E94F60993010894611C711C78
:100DD0008091DC019091DD0128173907BCF26AE0AF
:100DE00070E084E292E00E9453091092210284E2B2
:100DF00092E00E94F407882309F45BC084E292E049
:100E00000E94F107182F8091EA018B3051F18C304C
:100E100030F4813061F0833009F04BC011C0833170
:100E2000E1F1853179F18C3009F043C01EC01230F8
:100E300011F483E03CC08DE791E00E94F60339C0D5
:100E4000812F0E948600882349F01093EB01812FA7
:100E50000E949D008823A1F48BE029C086E991E0DF
:100E600023C01093EC018CE022C01093ED0190910F
:100E7000EC0180E0810F911D9093F0018093EF01D0
:100E800085E115C01093EE010E94AF00882311F098
:100E900083E10DC08AEA91E007C0183019F40E947E
:100EA000D00004C08BEB91E00E94F60381E08093B8
:100EB000EA010F900F90CF91DF911F910F91FF905A
:100EC000EF90DF90CF90BF90AF909F908F907F90EA
:100ED0006F905F904F903F902F9008952AE939E9E5
:100EE00049E95EE320930D0230930E0240930F0216
:100EF0005093100280E090E0A0E0B0E080931102F7
:100F000090931202A0931302B0931402209315023F
:100F100030931602409317025093180280931902DF
:100F200090931A02A0931B02B0931C0280910102BD
:100F3000909102022091F3013091F401821B930BF6
:100F40009093F8018093F70180910302909104023D
:100F50002091F1013091F201821B930B9093FE01DD
:100F60008093FD0161E082E00E94DD0A61E083E0A0
:100F70000E94DD0A61E084E00E94DD0A61E085E014
:100F80000E94DD0A61E086E00E94DD0A81E0809334
:100F9000EA0140E05BE460E070E084E292E00E94FD
:100FA000F70710921E0210921D0284E690E09093C3
:100FB000200280931F0208950E942E0A0E946E074D
:100FC0000E941704FDCF82EE91E09093250280935A
:100FD00024020895862F0E94CB0B08950E94030CD3
:100FE00008950E94E40B08950E94D30B0895CB014D
:100FF000BA010E94920B0895DC01ED91FC910190E1
:10100000F081E02D09950895DC01ED91FC910190AE
:10101000F081E02D099508950F931F93CF93DF93EF
:101020008C01EB0109C02196D801ED91FC91019052
:10103000F081E02DC801099568816623A1F7DF9151
:10104000CF911F910F9108950F931F938C01DC0195
:10105000ED91FC910190F081E02D6DE00995D801B2
:10106000ED91FC910190F081E02D6AE0C8010995B5
:101070001F910F9108950F931F938C01DC01ED9147
:10108000FC910190F081E02D0995C8010E9424088F
:101090001F910F9108950F931F938C010E940C08CC
:1010A000C8010E9424081F910F9108950F931F9368
:1010B0008C01DC01ED91FC910190F081E02D09950E
:1010C000C8010E9424081F910F9108952F923F920A
:1010D0004F925F926F927F928F929F92AF92BF9248
:1010E000CF92DF92EF92FF920F931F93DF93CF93F4
:1010F000CDB7DEB7A0970FB6F894DEBF0FBECDBF59
:101100001C016A017B01411551056105710549F416
:10111000DC01ED91FC910190F081E02D60E30995F7
:1011200054C0882499245401422E552466247724DF
:1011300001E010E00C0F1D1F080D191DC701B601BD
:10114000A30192010E940D0FF80160830894811C95
:10115000911CA11CB11CC701B601A30192010E9400
:101160000D0FC901DA016C017D01C114D104E10444
:10117000F104F1F681E0E82EF12CEC0EFD1EE80CF6
:10118000F91C3E010894611C711CD501C401019732
:10119000A109B1096C01C818D90814C0F601EE0DF7
:1011A000FF1D60816A3010F4605D01C0695CD1018F
:1011B000ED91FC910190F081E02DC1010995089419
:1011C000E108F1086E147F0449F7A0960FB6F89471
:1011D000DEBF0FBECDBFCF91DF911F910F91FF906A
:1011E000EF90DF90CF90BF90AF909F908F907F90C7
:1011F0006F905F904F903F902F9008952AE00E944B
:10120000660808950F931F938C010E94FE08C80181
:101210000E9424081F910F910895AB0160E070E0D7
:101220000E94FE0808950F931F938C01AB0160E0AC
:1012300070E00E94FE08C8010E9424081F910F91CF
:101240000895EF92FF920F931F93CF93DF93EC01DA
:101250007A018B0177FF0FC0E881F9810190F0815D
:10126000E02D6DE2099510950095F094E094E11C55
:10127000F11C011D111D2AE0B801A701CE010E9439
:101280006608DF91CF911F910F91FF90EF90089525
:101290000F931F938C010E942109C8010E9424080A
:1012A0001F910F910895AB01662757FD6095762F2A
:1012B0000E94210908950F931F938C01AB016627AB
:1012C00057FD6095762F0E942109C8010E942408CD
:1012D0001F910F910895DC012115310541F4ED9125
:1012E000FC910190F081E02D642F099508952A303A
:1012F000310519F40E94210908950E946608089595
:101300000F931F938C010E946B09C8010E9424084F
:101310001F910F9108951F920F920FB60F921124F3
:101320002F938F939F93AF93BF93809126029091B9
:101330002702A0912802B09129028050904CAF4F13
:10134000BF4F8093260290932702A0932802B09368
:10135000290227C08091260290912702A09128029D
:10136000B091290280549F41A040B0408093260252
:1013700090932702A0932802B093290280912A0219
:1013800090912B02A0912C02B0912D020196A11DEB
:10139000B11D80932A0290932B02A0932C02B0934C
:1013A0002D028091260290912702A0912802B091EF
:1013B000290281549F41A040B04060F6BF91AF9197
:1013C0009F918F912F910F900FBE0F901F901895A6
:1013D0008FB7F89420912A0230912B0240912C0271
:1013E00050912D028FBFB901CA010895EF92FF926B
:1013F0000F931F937B018C018FB7F89440912A02C1
:1014000050912B0260912C0270912D028FBF2FB74B
:10141000F89480912A0290912B02A0912C02B09115
:101420002D022FBF841B950BA60BB70B8E159F05A6
:10143000A007B10760F31F910F91FF90EF900895FF
:10144000019759F0019749F0FC01EE0FFF1F31970A
:101450008FB7F8943197F1F78FBF0895789484B5DA
:10146000826084BD84B5816084BD85B5826085BDA0
:1014700085B5816085BDEEE6F0E080818160808386
:10148000E1E8F0E0808182608083808181608083F8
:10149000E0E8F0E0808181608083E1EBF0E0808132
:1014A00084608083E0EBF0E0808181608083EAE704
:1014B000F0E080818460808380818260808380818D
:1014C000816080838081806880831092C10008954C
:1014D0008093E40108958F709091E4019295990FA3
:1014E000990F907C982B90937C0080917A00806477
:1014F00080937A0080917A0086FDFCCF209178005D
:1015000040917900942F80E030E0282B392BC901DD
:1015100008951F93CF93DF93182FEB0161E00E9492
:10152000DD0AE12FF0E0E156FF4F8491833051F462
:1015300080918000806880938000D0938900C09360
:10154000880037C0843051F480918000806280939D
:101550008000D0938B00C0938A002BC0813029F487
:1015600084B5806884BDC7BD24C0823029F484B5A9
:10157000806284BDC8BD1DC0863041F48091B0003A
:1015800080688093B000C093B30013C0873041F4EB
:101590008091B00080628093B000C093B40009C015
:1015A000C038D10514F460E001C061E0812F0E94D1
:1015B000FB0ADF91CF911F910895282F30E0C901D8
:1015C00085579F4FFC01949129583F4FF901849111
:1015D000882381F0E82FF0E0E859FF4FE491F0E034
:1015E000662329F4808190958923808308958081E2
:1015F000892B80830895482F50E0CA0181569F4F60
:10160000FC012491CA0185579F4FFC0194914958D0
:101610005F4FFA0134913323C1F1222331F123309A
:1016200021F4809180008F7705C0243031F48091BF
:1016300080008F7D8093800018C0213019F484B51C
:101640008F7704C0223021F484B58F7D84BD0DC016
:10165000263021F48091B0008F7705C0273029F41F
:101660008091B0008F7D8093B000E32FF0E0E359CC
:10167000FF4FE491F0E0662329F48081909589235F
:10168000808308958081892B80830895482F50E0BE
:10169000CA0181569F4FFC012491CA0185579F4F73
:1016A000FC01949149585F4FFA013491332319F4A6
:1016B00020E030E035C0222331F1233021F4809145
:1016C00080008F7705C0243031F4809180008F7DB9
:1016D0008093800018C0213019F484B58F7704C03E
:1016E000223021F484B58F7D84BD0DC0263021F4D5
:1016F0008091B0008F7705C0273029F48091B00029
:101700008F7D8093B000E32FF0E0EE58FF4FE4911F
:10171000F0E0808120E030E0892311F021E030E02A
:10172000C9010895EF92FF920F931F937B018C01E3
:1017300022E030E040E050E00E942F0F205E3E4566
:10174000484F5F4FCA01B901A80197010E942F0FAE
:10175000C901DA010197A109B109292F3A2F4B2FAD
:10176000552747FD5A950196A11DB11D2093C5002F
:1017700081508093C400E1ECF0E08081806180833F
:101780008081886080838081806880831F910F9131
:10179000FF90EF900895982F8091C00085FFFCCFB7
:1017A0009093C600089580912E0290912F02805848
:1017B0009F4F2091300230913102821B930B60E8E1
:1017C00070E00E94FA0E089540913002509131026B
:1017D00080912E0290912F028417950719F42FEF14
:1017E0003FEF0FC0FA01EE5CFD4F2081CA01019668
:1017F00060E870E00E94FA0E90933102809330020C
:1018000030E0C901089580913002909131029093A7
:101810002F0280932E0208951F920F920FB60F92FF
:1018200011242F933F934F935F936F937F938F93E5
:101830009F93AF93BF93EF93FF934091C600E091C6
:101840002E02F0912F02CF01019660E870E00E9415
:10185000FA0E9C01809130029091310228173907CD
:1018600039F0EE5CFD4F408330932F0220932E021F
:10187000FF91EF91BF91AF919F918F917F916F9168
:101880005F914F913F912F910F900FBE0F901F903E
:1018900018952F923F924F925F926F927F928F9204
:1018A0009F92AF92BF92CF92DF92EF92FF920F93EF
:1018B0001F93DF93CF93CDB7DEB73B014C011901E6
:1018C0002A016D897E898F89988D6A197B098C0917
:1018D0009D09621A730A840A950AA40193010E9461
:1018E000DB0EE218F30804091509A80197010E940C
:1018F0002F0F2A0D3B1D4C1D5D1DB901CA01CF9153
:10190000DF911F910F91FF90EF90DF90CF90BF90EC
:10191000AF909F908F907F906F905F904F903F908F
:101920002F900895AF92BF92CF92DF92EF92FF92E5
:101930000F931F935B016C01611571058105910582
:1019400029F420E030E040E050E01FC00E94440D48
:101950007C010E94440D0027F7FC0095102F8701A1
:10196000FF24EE24AA2797FDA095BA2FE80EF91EB2
:101970000A1F1B1FC801B701A60195010E942F0F66
:10198000AC01CB01DA019C01AD01B901CA011F9183
:101990000F91FF90EF90DF90CF90BF90AF900895A0
:1019A000EF92FF920F931F937B018C0162177307D5
:1019B0008407950764F4261B370B480B590BCA01A3
:1019C000B9010E94920CE60EF71E081F191FB701FD
:1019D000C8011F910F91FF90EF900895009711F0AB
:1019E0000E94490D0895A0E0B0E0E9EFFCE00C94FE
:1019F0006C0FEC01A880B980CA80DB80A114B1040F
:101A0000C104D10441F484E2A82E89EDB82E8BE5FF
:101A1000C82E87E0D82EC601B5012DE133EF41E095
:101A200050E00E942F0F27EA31E440E050E00E948E
:101A3000DB0E7B018C01C601B5012DE133EF41E0E6
:101A400050E00E942F0FCA01B9012CEE34EF4FEF86
:101A50005FEF0E94DB0E6E0D7F1D801F911F97FFB1
:101A600004C06150704080409048688379838A83C5
:101A70009B839B013F77C901CDB7DEB7EAE00C94A9
:101A8000880F0E94F30C089585EE91E00E94F30CFC
:101A90000895A0E0B0E08093E5019093E601A09363
:101AA000E701B093E80108955058BB27AA270ED04C
:101AB000E5C0D6D030F0DBD020F031F49F3F11F4F8
:101AC0001EF4CBC00EF4E095E7FBC1C0E92FE7D0D0
:101AD00080F3BA17620773078407950718F071F44B
:101AE0009EF5FFC00EF4E0950B2EBA2FA02D0B0132
:101AF000B90190010C01CA01A0011124FF27591B53
:101B000099F0593F50F4503E68F11A16F040A22F58
:101B1000232F342F4427585FF3CF469537952795C9
:101B2000A795F0405395C9F77EF41F16BA0B620BC8
:101B3000730B840BBAF09150A1F0FF0FBB1F661F0F
:101B4000771F881FC2F70EC0BA0F621F731F841F52
:101B500048F4879577956795B795F7959E3F08F078
:101B6000B3CF9395880F08F09927EE0F9795879537
:101B7000089504D06894B111B5C0089598D088F044
:101B80009F5790F0B92F9927B751A0F0D1F0660F69
:101B9000771F881F991F1AF0BA95C9F712C0B13084
:101BA00081F09FD0B1E008959CC0672F782F8827DF
:101BB000B85F39F0B93FCCF3869577956795B395C3
:101BC000D9F73EF490958095709561957F4F8F4F32
:101BD0009F4F0895E89409C097FB3EF49095809537
:101BE000709561957F4F8F4F9F4F9923A9F0F92FE3
:101BF00096E9BB279395F695879577956795B79561
:101C0000F111F8CFFAF4BB0F11F460FF1BC06F5F46
:101C10007F4F8F4F9F4F16C0882311F096E911C058
:101C2000772321F09EE8872F762F05C0662371F079
:101C300096E8862F70E060E02AF09A95660F771F8D
:101C4000881FDAF7880F9695879597F9089597F981
:101C50009F6780E870E060E008959FEF80EC089552
:101C600000240A941616170618060906089500247B
:101C70000A9412161306140605060895092E0394F5
:101C8000000C11F4882352F0BB0F40F4BF2B11F469
:101C900060FF04C06F5F7F4F8F4F9F4F089557FDC8
:101CA0009058440F551F59F05F3F71F04795880FCA
:101CB00097FB991F61F09F3F79F087950895121661
:101CC00013061406551FF2CF4695F1DF08C016160D
:101CD00017061806991FF1CF8695710561050894BE
:101CE0000895E894BB2766277727CB0197F90895D5
:101CF0000BD0C4CFB5DF28F0BADF18F0952309F078
:101D0000A6CFABCF1124EECFCADFA0F3959FD1F3BE
:101D1000950F50E0551F629FF001729FBB27F00D99
:101D2000B11D639FAA27F00DB11DAA1F649F6627EE
:101D3000B00DA11D661F829F2227B00DA11D621F3D
:101D4000739FB00DA11D621F839FA00D611D221FF7
:101D5000749F3327A00D611D231F849F600D211DDB
:101D6000822F762F6A2F11249F5750408AF0E1F07E
:101D700088234AF0EE0FFF1FBB1F661F771F881FC7
:101D800091505040A9F79E3F510570F060CFAACF07
:101D90005F3FECF3983EDCF3869577956795B795B2
:101DA000F795E7959F5FC1F7FE2B880F911D9695DC
:101DB000879597F90895629FD001739FF001829FE4
:101DC000E00DF11D649FE00DF11D929FF00D839FCA
:101DD000F00D749FF00D659FF00D9927729FB00D67
:101DE000E11DF91F639FB00DE11DF91FBD01CF017A
:101DF0001124089597FB092E07260AD077FD04D0F9
:101E000049D006D000201AF4709561957F4F08954F
:101E1000F6F7909581959F4F0895A1E21A2EAA1B7F
:101E2000BB1BFD010DC0AA1FBB1FEE1FFF1FA2178A
:101E3000B307E407F50720F0A21BB30BE40BF50B87
:101E4000661F771F881F991F1A9469F76095709510
:101E5000809590959B01AC01BD01CF01089597FB42
:101E6000092E05260ED057FD04D0D7DF0AD0001C5E
:101E700038F450954095309521953F4F4F4F5F4F27
:101E80000895F6F790958095709561957F4F8F4FE7
:101E90009F4F0895AA1BBB1B51E107C0AA1FBB1F80
:101EA000A617B70710F0A61BB70B881F991F5A95E6
:101EB000A9F780959095BC01CD010895EE0FFF1F05
:101EC0000590F491E02D09942F923F924F925F92EA
:101ED0006F927F928F929F92AF92BF92CF92DF923A
:101EE000EF92FF920F931F93CF93DF93CDB7DEB79F
:101EF000CA1BDB0B0FB6F894DEBF0FBECDBF099433
:101F00002A88398848885F846E847D848C849B8489
:101F1000AA84B984C884DF80EE80FD800C811B8197
:101F2000AA81B981CE0FD11D0FB6F894DEBF0FBEC6
:0A1F3000CDBFED010895F894FFCF36
:101F3A007472616E736C6174696F6E3D20002074F7
:101F4A0072616E736C6174696F6E206572726F7202
:101F5A003D200020726F746174696F6E3D2000200D
:101F6A00726F746174696F6E206572726F723D2050
:101F7A0000206C6566744D6F746F7253706565648A
:101F8A003D20002072696768744D6F746F725370D8
:101F9A006565643D20002B2B2B0041544348307863
:101FAA0030430041545752004154434E006E6F74FF
:101FBA002061206D65737361676520737461727443
:101FCA002062797465006E6F7420612076616C6995
:101FDA006420636F6D6D616E6400696E76616C6911
:101FEA006420636865636B73756D006E6F7420613E
:101FFA00206D65737361676520656E64206279740C
:10200A0065001E0032000300DC05DC001900000038
:0A201A000000EA07010100000000C9
:00000001FF
