:100000000C945C000C9484000C9484000C94840088
:100010000C9484000C9484000C9484000C94840050
:100020000C9484000C9484000C9484000C94840040
:100030000C9484000C9484000C9484000C94840030
:100040000C94FF080C9484000C94800B0C94840096
:100050000C9484000C9484000C9484000C94840010
:100060000C9484000C948400000024272A000025AE
:10007000282B000023262904040404040404040299
:100080000202020202030303030303010204081035
:100090002040800102040810200102040810200002
:1000A0000000070002010000030406000000000039
:1000B00000000000B701570711241FBECFEFD4E0A6
:1000C000DEBFCDBF11E0A0E0B1E0E2E2FEE102C0A0
:1000D00005900D92AA3EB107D9F712E0AAEEB1E061
:1000E00001C01D92A13BB107E1F710E0C8EBD0E0E1
:1000F00004C02297FE010E94D40EC43BD107C9F769
:100100000E9450070C940F0F0C940000982F8450FD
:10011000843068F09E3159F09E3049F09F3039F0BC
:10012000903129F080E09B3119F481E0089581E05D
:100130000895982F8B3159F08E3049F08F3039F077
:10014000803129F080E09E3119F481E0089581E04A
:1001500008959091EB019B3141F09E3031F09F303A
:1001600021F0903111F09E3141F450E08091EE0188
:10017000891709F451E0852F089550E02091EE0190
:1001800030E04091EC01892F90E0840F911D409167
:10019000ED01840F911D2817390769F7EBCF1092F5
:1001A00004021092030210920602109205021092AD
:1001B000F4011092F3011092F2011092F10180917A
:1001C000EB018630B9F1873030F4843051F085305E
:1001D00009F079C00BC08730B1F18E3109F073C0DE
:1001E0005AC08091EF019091F00107C08091EF011A
:1001F0009091F001909581959F4F90930402809388
:10020000030210920602109205028091F50190916E
:10021000F6019093F4018093F3018091FB0190919A
:10022000FC019093F2018093F1018091D6019091AD
:10023000D7012CC010920402109203028091EF01AA
:100240009091F0010BC01092040210920302809171
:10025000EF019091F001909581959F4F9093060248
:10026000809305028091F5019091F6019093F4013D
:100270008093F3018091FB019091FC019093F20136
:100280008093F1018091D8019091D901909302025D
:1002900080930102089510920402109203021092BA
:1002A0000602109205021092F4011092F3011092CE
:1002B000F2011092F1018091DA019091DB019093AB
:1002C000020280930102089596E094B995B1997F56
:1002D000926095B995B1966095B946E050E0A1E07D
:1002E000B0E0E82FF0E09D01042E02C0220F331F82
:1002F0000A94E2F72E233F23042E02C0359527955A
:100300000A94E2F7220F85B1897F822B85B985B1E6
:10031000897F8460822B85B9415050408FEF4F3FD9
:10032000580709F747E050E0E1E0F0E070E09F0196
:10033000042E02C0220F331F0A94E2F7262337232C
:10034000042E02C0359527950A94E2F7220F85B155
:10035000897F822B85B985B1897F8460822B85B99D
:10036000415050408FEF4F3F580709F70895809153
:10037000D6019091D701909302028093010260917F
:10038000DC017091DD01882777FD8095982F0E9410
:10039000600D26E636E646EE5EE30E94EC0D0E9416
:1003A0002D0D70930C0260930B0270930E026093FC
:1003B0000D02089596E094B995B1997F95B995B1DC
:1003C000997F946095B946E050E0E1E0F0E0682F55
:1003D00070E09F01042E02C0220F331F0A94E2F73F
:1003E00026233723042E02C0359527950A94E2F779
:1003F000220F85B1897F822B85B985B1897F846081
:10040000822B85B9415050408FEF4F3F580709F775
:1004100084E084B985B1897F846085B982E390E006
:100420000E94940930E047E050E085B1897F85B9AA
:1004300025B1297F246083B190E0827090709595FA
:100440008795042E02C0880F991F0A94E2F7382B73
:1004500025B9415050408FEF4F3F580731F738B919
:10046000832F08950F931F9383E40E94DA01082FCE
:1004700082E40E94DA01992787FD90952091F3018B
:100480003091F401280F391F3093F4012093F301C8
:10049000112707FD10958091F1019091F201800FD5
:1004A000911F9093F2018093F1011F910F91089594
:1004B00060E070E085E00E94FD0960E070E086E0A9
:1004C0000E94FD0960E083E00E946F0A60E084E022
:1004D0000E946F0A0895EF92FF920F931F937B0182
:1004E0000FEF10E0B801681B790B85E00E94FD0951
:1004F0000E191F09B80186E00E94FD0961E083E042
:100500000E946F0A61E084E00E946F0A1F910F91C0
:10051000FF90EF9008950F931F938B01BC0185E02E
:100520000E94FD09B80186E00E94FD0960E083E0B9
:100530000E946F0A60E084E00E946F0A1F910F9191
:100540000895AF92BF92CF92DF92EF92FF920F93F6
:100550001F93CF93DF939C01AB010996439710F44F
:1005600020E030E0CA010996439710F440E050E0E3
:100570008091DC019091DD01B901821793070CF4A1
:10058000BC0122273327281B390B6B016217730725
:100590000CF46901BA01841795070CF4BC01EB0156
:1005A000621773070CF4E9011C141D0434F460E0B5
:1005B00083E00E946F0AB6013DC0C114D104A1F1CD
:1005C00061E083E00E946F0AE091DC01F091DD01BF
:1005D000EE24FF24EE1AFF0A0027F7FC0095102FE7
:1005E000B601882777FD8095982F2FEF30E02E1BDE
:1005F0003F0B442737FD4095542F5F934F933F9314
:100600002F93FFEFAF2EB12CC12CD12C20E030E086
:1006100040E050E00E94BD0B85E00E94FD090F9074
:100620000F900F900F9009C060E083E00E946F0A66
:1006300060E070E085E00E94FD091C161D0634F4A0
:1006400060E084E00E946F0ABE013CC02097A1F1E7
:1006500061E084E00E946F0AE091DC01F091DD012D
:10066000EE24FF24EE1AFF0A0027F7FC0095102F56
:10067000BE01882777FD8095982F2FEF30E02E1B45
:100680003F0B442737FD4095542F5F934F933F9383
:100690002F93EFEFAE2EB12CC12CD12C20E030E007
:1006A00040E050E00E94BD0B86E00E94FD090F90E3
:1006B0000F900F900F9009C060E084E00E946F0AD5
:1006C00060E070E086E00E94FD09DF91CF911F910C
:1006D0000F91FF90EF90DF90CF90BF90AF90089573
:1006E0000F931F9303E212E060E071E0C8010E94E3
:1006F00080074091F3015091F401662757FD609502
:10070000762F2AE030E0C8010E94DF086EE071E039
:10071000C8010E9480074091F5015091F6016627BB
:1007200057FD6095762F2AE030E0C8010E94DF086F
:1007300063E271E0C8010E9480074091F10150918D
:10074000F201662757FD6095762F2AE030E0C80158
:100750000E94DF086FE271E0C8010E9480074091AB
:10076000FB015091FC01662757FD6095762F2AE02A
:1007700030E0C8010E94DF0861E471E0C8010E9416
:1007800080074091070250910802662757FD609547
:10079000762F2AE030E0C8010E94DF0863E571E0AF
:1007A000C8010E9480074091090250910A02662701
:1007B00057FD6095762F2AE030E0C8010E94DF08DF
:1007C000C8010E9498071F910F910895BC0183E210
:1007D00092E00E94BF0708950F931F9303E212E077
:1007E00066E671E0C8010E9480076AE671E0C80110
:1007F0000E94BF0763E771E0C8010E94BF0768E776
:1008000071E0C8010E94BF071F910F9108952F92B8
:100810003F924F925F926F927F928F929F92AF9290
:10082000BF92CF92DF92EF92FF920F931F93CF93DD
:10083000DF930E9432026090030270900402809164
:10084000F3019091F401681A790A7092F6016092AE
:10085000F5018091F7019091F8011301281A390AE6
:100860003092FA012092F901C0910502D09106025E
:100870008091F1019091F201C81BD90BD093FC013A
:10088000C093FB018091FD019091FE012E01481A59
:10089000590A509200024092FF01209101023091CA
:1008A00002028091D6019091D7012817390709F0EB
:1008B000EAC0C30189539F4F8F58914008F072C01E
:1008C000B301882777FD8095982F0E94600D2091B5
:1008D0000F023091100240911102509112020E94B9
:1008E000EC0D7B018C01B101882777FD8095982F55
:1008F0000E94600D20911302309114024091150264
:10090000509116020E94EC0D9B01AC01C801B70189
:100910000E94C90C0E942D0D7B018C0180E090E0AB
:10092000A0E8BFE38093170290931802A0931902E6
:10093000B0931A0280E090E0A0E0B0E080931B0248
:1009400090931C02A0931D02B0931E02BE01882743
:1009500077FD8095982F0E94600D5B016C01B201BC
:10096000882777FD8095982F0E94600D20E030E069
:1009700040E050E00E94EC0D9B01AC01C601B501C6
:100980000E94C90C0E942D0D9B012E0D3F1D30931E
:10099000080220930702E61AF70AF0920A02E09290
:1009A000090261C11614170464F480910B0290913E
:1009B0000C02909308028093070290930A0280939E
:1009C000090277FE0FC080910B0290910C02909566
:1009D00081959F4F909308028093070290930A029B
:1009E000809309028DEC9CECACECBEE38093170283
:1009F00090931802A0931902B0931A0280E090E03D
:100A0000A0E0B0E080931B0290931C02A0931D0213
:100A1000B0931E02BE01882777FD8095982F0E9413
:100A2000600D2DEC3CEC4CEC5EE30E94EC0D7B0188
:100A30008C01B201882777FD8095982F0E94600D68
:100A400020E030E040E050E00E94EC0D9B01AC0162
:100A5000C801B7010E94C90C0E942D0D2091070208
:100A600030910802260F371F3093080220930702A7
:100A70002091090230910A02261B370B30930A029B
:100A800020930902F0C08091D8019091D9012817D4
:100A9000390709F0E8C0CE018D599F4F873C910579
:100AA00008F07DC080E090E0A0E8BFE380931702EB
:100AB00090931802A0931902B0931A0280E090E07C
:100AC000A0E0B0E080931B0290931C02A0931D0253
:100AD000B0931E02BE01882777FD8095982F0E9453
:100AE000600D7B018C01B201882777FD8095982FDE
:100AF0000E94600D20E030E040E050E00E94EC0DEC
:100B00009B01AC01C801B7010E94C90C0E942D0DC8
:100B10007B018C0188249924861A970AD093FC01C2
:100B2000C093FB01509200024092FF01B30188275D
:100B300077FD8095982F0E94600D20910F023091D3
:100B4000100240911102509112020E94EC0D5B01C3
:100B50006C01B101882777FD8095982F0E94600D68
:100B60002091130230911402409115025091160207
:100B70000E94EC0D9B01AC01C601B5010E94C90C9D
:100B80000E942D0DE60EF71EF0920802E092070279
:100B9000860E971E90920A028092090264C01C166B
:100BA0001D067CF480910D0290910E029093080234
:100BB00080930702909581959F4F90930A028093AE
:100BC0000902D7FF50C0A0900D02B0900E02CC24B5
:100BD000DD24CA18DB088DEC9CECACECBEE3809302
:100BE0000F0290931002A0931102B093120280E0C2
:100BF00090E0A0E0B0E08093130290931402A093E1
:100C00001502B0931602B301882777FD8095982FBF
:100C10000E94600D2DEC3CEC4CEC5EE30E94EC0D70
:100C20007B018C01B101882777FD8095982F0E9468
:100C3000600D20E030E040E050E00E94EC0D9B01B0
:100C4000AC01C801B7010E94C90C0E942D0DC60E4F
:100C5000D71ED0920802C09207026A0D7B1D7093C6
:100C60000A02609309027092F8016092F701809184
:100C7000FB019091FC019093FE018093FD01809116
:100C80001F029091200201969093200280931F02F0
:100C900020912102309122028217930721F41092B1
:100CA000200210921F026091090270910A02809145
:100CB0000702909108020E94A10283E292E00E9442
:100CC0006807882309F46BC083E292E00E946507FD
:100CD000282F8091EA018B30A9F18C3030F48130DB
:100CE00069F0833009F05BC012C0833109F446C05B
:100CF0008531C9F18C3009F052C028C0223011F47E
:100D000083E04BC08DE791E00E94E60348C0822F4C
:100D10008450843050F02E3141F02E3031F02F309D
:100D200021F0203111F02B3189F52093EB012B318B
:100D3000C1F02E30B1F02F30A1F0203191F02E31E2
:100D400059F50FC02093EC018CE027C02093ED01F2
:100D50009091EC0180E0820F911D9093F0018093BF
:100D6000EF0185E11AC02093EE010E94A9008823BB
:100D700011F083E112C086E991E00AC0283019F42D
:100D80000E94CF0007C087EA91E002C08EEB91E09D
:100D90000E94E60381E001C08BE08093EA01DF91CD
:100DA000CF911F910F91FF90EF90DF90CF90BF9068
:100DB000AF909F908F907F906F905F904F903F90FB
:100DC0002F9008952AE939E949E95EE320930F025B
:100DD00030931002409311025093120280E090E091
:100DE000A0E0B0E08093130290931402A093150248
:100DF000B093160220931702309318024093190201
:100E000050931A0280931B0290931C02A0931D0220
:100E1000B0931E0280910302909104022091F3018D
:100E20003091F401821B930B9093F8018093F701AA
:100E300080910502909106022091F1013091F2011A
:100E4000821B930B9093FE018093FD0161E082E091
:100E50000E94510A61E083E00E94510A61E084E04F
:100E60000E94510A61E085E00E94510A61E086E03B
:100E70000E94510A81E08093EA0140E05BE460E077
:100E800070E083E292E00E946B07109220021092C1
:100E90001F0284E690E0909322028093210208953D
:100EA0000E94A2090E94E2060E940704FDCF82EE82
:100EB00091E090932402809323020895862F0E944C
:100EC0003F0B08950E94770B08950E94580B0895D8
:100ED0000E94470B0895CB01BA010E94060B0895AA
:100EE000DC01ED91FC910190F081E02D09950895D0
:100EF000DC01ED91FC910190F081E02D09950895C0
:100F00000F931F93CF93DF938C01EB0109C02196C0
:100F1000D801ED91FC910190F081E02DC801099577
:100F200068816623A1F7DF91CF911F910F910895FA
:100F30000F931F938C01DC01ED91FC910190F081E6
:100F4000E02D6DE00995D801ED91FC910190F081C3
:100F5000E02D6AE0C80109951F910F9108950F9344
:100F60001F938C01DC01ED91FC910190F081E02D4B
:100F70000995C8010E9498071F910F9108950F933A
:100F80001F938C010E948007C8010E9498071F913F
:100F90000F9108950F931F938C01DC01ED91FC914B
:100FA0000190F081E02D0995C8010E9498071F91DA
:100FB0000F9108952F923F924F925F926F927F927E
:100FC0008F929F92AF92BF92CF92DF92EF92FF9259
:100FD0000F931F93DF93CF93CDB7DEB7A0970FB6D4
:100FE000F894DEBF0FBECDBF1C016A017B01411525
:100FF00051056105710549F4DC01ED91FC91019009
:10100000F081E02D60E3099554C0882499245401AF
:10101000422E55246624772401E010E00C0F1D1F9A
:10102000080D191DC701B601A30192010E94810E8E
:10103000F80160830894811C911CA11CB11CC7019C
:10104000B601A30192010E94810EC901DA016C016F
:101050007D01C114D104E104F104F1F681E0E82E30
:10106000F12CEC0EFD1EE80CF91C3E010894611CED
:10107000711CD501C4010197A109B1096C01C818FF
:10108000D90814C0F601EE0DFF1D60816A3010F41E
:10109000605D01C0695CD101ED91FC910190F0812E
:1010A000E02DC10109950894E108F1086E147F0450
:1010B00049F7A0960FB6F894DEBF0FBECDBFCF9113
:1010C000DF911F910F91FF90EF90DF90CF90BF9035
:1010D000AF909F908F907F906F905F904F903F90D8
:1010E0002F9008952AE00E94DA0708950F931F9326
:1010F0008C010E947208C8010E9498071F910F91ED
:101100000895AB0160E070E00E94720808950F93AB
:101110001F938C01AB0160E070E00E947208C8016F
:101120000E9498071F910F910895EF92FF920F93DD
:101130001F93CF93DF93EC017A018B0177FF0FC0F0
:10114000E881F9810190F081E02D6DE2099510951B
:101150000095F094E094E11CF11C011D111D2AE0A2
:10116000B801A701CE010E94DA07DF91CF911F914C
:101170000F91FF90EF9008950F931F938C010E94A1
:101180009508C8010E9498071F910F910895AB011F
:10119000662757FD6095762F0E94950808950F9356
:1011A0001F938C01AB01662757FD6095762F0E9437
:1011B0009508C8010E9498071F910F910895DC01BE
:1011C0002115310541F4ED91FC910190F081E02D64
:1011D000642F099508952A30310519F40E94950865
:1011E00008950E94DA0708950F931F938C010E94BF
:1011F000DF08C8010E9498071F910F9108951F9260
:101200000F920FB60F9211242F938F939F93AF934A
:10121000BF938091250290912602A0912702B09160
:1012200028028050904CAF4FBF4F8093250290937F
:101230002602A0932702B093280227C0809125029E
:1012400090912602A0912702B091280280549F41DC
:10125000A040B0408093250290932602A0932702DD
:10126000B09328028091290290912A02A0912B022A
:10127000B0912C020196A11DB11D8093290290937B
:101280002A02A0932B02B0932C0280912502909108
:101290002602A0912702B091280281549F41A040CC
:1012A000B04060F6BF91AF919F918F912F910F90B9
:1012B0000FBE0F901F9018958FB7F89420912902B8
:1012C00030912A0240912B0250912C028FBFB9011C
:1012D000CA010895EF92FF920F931F937B018C0137
:1012E0008FB7F8944091290250912A0260912B0205
:1012F00070912C028FBF2FB7F894809129029091A2
:101300002A02A0912B02B0912C022FBF841B950BB7
:10131000A60BB70B8E159F05A007B10760F31F91B1
:101320000F91FF90EF900895019759F0019749F0C0
:10133000FC01EE0FFF1F31978FB7F8943197F1F74B
:101340008FBF0895789484B5826084BD84B5816030
:1013500084BD85B5826085BD85B5816085BDEEE6BD
:10136000F0E0808181608083E1E8F0E0808182604C
:101370008083808181608083E0E8F0E0808181600B
:101380008083E1EBF0E0808184608083E0EBF0E03B
:10139000808181608083EAE7F0E0808184608083DF
:1013A0008081826080838081816080838081806889
:1013B00080831092C10008958093E40108958F7096
:1013C0009091E4019295990F990F907C982B9093AE
:1013D0007C0080917A00806480937A0080917A000A
:1013E00086FDFCCF2091780040917900942F80E019
:1013F00030E0282B392BC90108951F93CF93DF9339
:10140000182FEB0161E00E94510AE12FF0E0E15654
:10141000FF4F8491833051F48091800080688093E5
:101420008000D0938900C093880037C0843051F485
:1014300080918000806280938000D0938B00C09365
:101440008A002BC0813029F484B5806884BDC7BD73
:1014500024C0823029F484B5806284BDC8BD1DC01B
:10146000863041F48091B00080688093B000C093D2
:10147000B30013C0873041F48091B0008062809344
:10148000B000C093B40009C0C038D10514F460E0C6
:1014900001C061E0812F0E946F0ADF91CF911F91FF
:1014A0000895282F30E0C90185579F4FFC01949182
:1014B00029583F4FF9018491882381F0E82FF0E00B
:1014C000E859FF4FE491F0E0662329F4808190957C
:1014D0008923808308958081892B80830895482FF4
:1014E00050E0CA0181569F4FFC012491CA018557E3
:1014F0009F4FFC01949149585F4FFA013491332377
:10150000C1F1222331F1233021F4809180008F77C3
:1015100005C0243031F4809180008F7D809380005D
:1015200018C0213019F484B58F7704C0223021F41B
:1015300084B58F7D84BD0DC0263021F48091B0002C
:101540008F7705C0273029F48091B0008F7D80937C
:10155000B000E32FF0E0E359FF4FE491F0E06623A1
:1015600029F4808190958923808308958081892B37
:1015700080830895482F50E0CA0181569F4FFC0197
:101580002491CA0185579F4FFC01949149585F4FA0
:10159000FA013491332319F420E030E035C02223DE
:1015A00031F1233021F4809180008F7705C0243001
:1015B00031F4809180008F7D8093800018C02130AD
:1015C00019F484B58F7704C0223021F484B58F7D5F
:1015D00084BD0DC0263021F48091B0008F7705C006
:1015E000273029F48091B0008F7D8093B000E32FE5
:1015F000F0E0EE58FF4FE491F0E0808120E030E031
:10160000892311F021E030E0C9010895EF92FF92A3
:101610000F931F937B018C0122E030E040E050E00B
:101620000E94A30E205E3E45484F5F4FCA01B9019C
:10163000A80197010E94A30EC901DA010197A1092F
:10164000B109292F3A2F4B2F552747FD5A9501965F
:10165000A11DB11D2093C50081508093C400E1EC11
:10166000F0E08081806180838081886080838081D8
:10167000806880831F910F91FF90EF900895982FBD
:101680008091C00085FFFCCF9093C60008958091A3
:101690002D0290912E0280589F4F20912F02309161
:1016A0003002821B930B60E870E00E946E0E08957A
:1016B00040912F025091300280912D0290912E0284
:1016C0008417950719F42FEF3FEF0FC0FA01EF5C75
:1016D000FD4F2081CA01019660E870E00E946E0E05
:1016E0009093300280932F0230E0C90108958091D9
:1016F0002F029091300290932E0280932D02089534
:101700001F920F920FB60F9211242F933F934F9376
:101710005F936F937F938F939F93AF93BF93EF9359
:10172000FF934091C600E0912D02F0912E02CF016F
:10173000019660E870E00E946E0E9C0180912F027D
:10174000909130022817390739F0EF5CFD4F408344
:1017500030932E0220932D02FF91EF91BF91AF9114
:101760009F918F917F916F915F914F913F912F91B9
:101770000F900FBE0F901F9018952F923F924F928F
:101780005F926F927F928F929F92AF92BF92CF9211
:10179000DF92EF92FF920F931F93DF93CF93CDB71A
:1017A000DEB73B014C0119012A016D897E898F89C1
:1017B000988D6A197B098C099D09621A730A840A3B
:1017C000950AA40193010E944F0EE218F308040940
:1017D0001509A80197010E94A30E2A0D3B1D4C1D5F
:1017E0005D1DB901CA01CF91DF911F910F91FF904B
:1017F000EF90DF90CF90BF90AF909F908F907F90B1
:101800006F905F904F903F902F900895AF92BF924E
:10181000CF92DF92EF92FF920F931F935B016C01C7
:10182000611571058105910529F420E030E040E063
:1018300050E01FC00E94B80C7C010E94B80C002729
:10184000F7FC0095102F8701FF24EE24AA2797FDAF
:10185000A095BA2FE80EF91E0A1F1B1FC801B70179
:10186000A60195010E94A30EAC01CB01DA019C01F7
:10187000AD01B901CA011F910F91FF90EF90DF9068
:10188000CF90BF90AF900895EF92FF920F931F9368
:101890007B018C01621773078407950764F4261B8C
:1018A000370B480B590BCA01B9010E94060CE60E12
:1018B000F71E081F191FB701C8011F910F91FF9054
:1018C000EF900895009711F00E94BD0C0895A0E0DC
:1018D000B0E0EDE6FCE00C94E00EEC01A880B980ED
:1018E000CA80DB80A114B104C104D10441F484E2B4
:1018F000A82E89EDB82E8BE5C82E87E0D82EC6011C
:10190000B5012DE133EF41E050E00E94A30E27EA3C
:1019100031E440E050E00E944F0E7B018C01C60193
:10192000B5012DE133EF41E050E00E94A30ECA0162
:10193000B9012CEE34EF4FEF5FEF0E944F0E6E0DAA
:101940007F1D801F911F97FF04C061507040804031
:101950009048688379838A839B839B013F77C90181
:10196000CDB7DEB7EAE00C94FC0E0E94670C089538
:1019700085EE91E00E94670C0895A0E0B0E08093AE
:10198000E5019093E601A093E701B093E801089583
:101990005058BB27AA270ED0E5C0D6D030F0DBD0F8
:1019A00020F031F49F3F11F41EF4CBC00EF4E0950B
:1019B000E7FBC1C0E92FE7D080F3BA1762077307CE
:1019C0008407950718F071F49EF5FFC00EF4E095BA
:1019D0000B2EBA2FA02D0B01B90190010C01CA01E9
:1019E000A0011124FF27591B99F0593F50F4503E94
:1019F00068F11A16F040A22F232F342F4427585F86
:101A0000F3CF469537952795A795F0405395C9F79D
:101A10007EF41F16BA0B620B730B840BBAF0915055
:101A2000A1F0FF0FBB1F661F771F881FC2F70EC0F4
:101A3000BA0F621F731F841F48F4879577956795C7
:101A4000B795F7959E3F08F0B3CF9395880F08F0B0
:101A50009927EE0F97958795089504D06894B11152
:101A6000B5C0089598D088F09F5790F0B92F992766
:101A7000B751A0F0D1F0660F771F881F991F1AF099
:101A8000BA95C9F712C0B13081F09FD0B1E0089586
:101A90009CC0672F782F8827B85F39F0B93FCCF307
:101AA000869577956795B395D9F73EF4909580958F
:101AB000709561957F4F8F4F9F4F0895E89409C0AF
:101AC00097FB3EF490958095709561957F4F8F4F71
:101AD0009F4F9923A9F0F92F96E9BB279395F69587
:101AE000879577956795B795F111F8CFFAF4BB0F05
:101AF00011F460FF1BC06F5F7F4F8F4F9F4F16C069
:101B0000882311F096E911C0772321F09EE8872FF2
:101B1000762F05C0662371F096E8862F70E060E0AE
:101B20002AF09A95660F771F881FDAF7880F969527
:101B3000879597F9089597F99F6780E870E060E0CE
:101B400008959FEF80EC089500240A941616170656
:101B500018060906089500240A941216130614069E
:101B600005060895092E0394000C11F4882352F001
:101B7000BB0F40F4BF2B11F460FF04C06F5F7F4FB9
:101B80008F4F9F4F089557FD9058440F551F59F0A0
:101B90005F3F71F04795880F97FB991F61F09F3F5A
:101BA00079F087950895121613061406551FF2CF83
:101BB0004695F1DF08C0161617061806991FF1CFD3
:101BC00086957105610508940895E894BB276627FA
:101BD0007727CB0197F908950BD0C4CFB5DF28F054
:101BE000BADF18F0952309F0A6CFABCF1124EECFC2
:101BF000CADFA0F3959FD1F3950F50E0551F629F68
:101C0000F001729FBB27F00DB11D639FAA27F00D55
:101C1000B11DAA1F649F6627B00DA11D661F829F7C
:101C20002227B00DA11D621F739FB00DA11D621F61
:101C3000839FA00D611D221F749F3327A00D611D7E
:101C4000231F849F600D211D822F762F6A2F112460
:101C50009F5750408AF0E1F088234AF0EE0FFF1FB3
:101C6000BB1F661F771F881F91505040A9F79E3FEA
:101C7000510570F060CFAACF5F3FECF3983EDCF3E4
:101C8000869577956795B795F795E7959F5FC1F727
:101C9000FE2B880F911D9695879597F90895629F61
:101CA000D001739FF001829FE00DF11D649FE00D54
:101CB000F11D929FF00D839FF00D749FF00D659FB5
:101CC000F00D9927729FB00DE11DF91F639FB00DB4
:101CD000E11DF91FBD01CF011124089597FB092EC5
:101CE00007260AD077FD04D049D006D000201AF488
:101CF000709561957F4F0895F6F7909581959F4F68
:101D00000895A1E21A2EAA1BBB1BFD010DC0AA1F3C
:101D1000BB1FEE1FFF1FA217B307E407F50720F054
:101D2000A21BB30BE40BF50B661F771F881F991FCF
:101D30001A9469F760957095809590959B01AC0118
:101D4000BD01CF01089597FB092E05260ED057FD42
:101D500004D0D7DF0AD0001C38F450954095309558
:101D600021953F4F4F4F5F4F0895F6F7909580951F
:101D7000709561957F4F8F4F9F4F0895AA1BBB1B96
:101D800051E107C0AA1FBB1FA617B70710F0A61B7B
:101D9000B70B881F991F5A95A9F780959095BC019C
:101DA000CD010895EE0FFF1F0590F491E02D0994E9
:101DB0002F923F924F925F926F927F928F929F925B
:101DC000AF92BF92CF92DF92EF92FF920F931F9349
:101DD000CF93DF93CDB7DEB7CA1BDB0B0FB6F894FA
:101DE000DEBF0FBECDBF09942A88398848885F843A
:101DF0006E847D848C849B84AA84B984C884DF80AB
:101E0000EE80FD800C811B81AA81B981CE0FD11D8E
:101E10000FB6F894DEBF0FBECDBFED010895F89464
:021E2000FFCFF2
:101E22007472616E736C6174696F6E3D2000207410
:101E320072616E736C6174696F6E206572726F721B
:101E42003D200020726F746174696F6E3D20002026
:101E5200726F746174696F6E206572726F723D2069
:101E620000206C6566744D6F746F725370656564A3
:101E72003D20002072696768744D6F746F725370F1
:101E82006565643D20002B2B2B004154434830787C
:101E920030430041545752004154434E006E6F7418
:101EA2002061206D6573736167652073746172745C
:101EB200206279746500696E76616C69642063687A
:101EC20065636B73756D006E6F742061206D657351
:101ED2007361676520656E642062797465006E6F58
:101EE2007420612076616C696420636F6D6D616E30
:101EF20064001400320001000200030064000000CC
:0A1F020000005E070101000000006E
:00000001FF
