:100000000C945B000C9483000C9483000C9483008C
:100010000C9483000C9483000C9483000C94830054
:100020000C9483000C9483000C9483000C94830044
:100030000C9483000C9483000C9483000C94830034
:100040000C94EF060C9483000C9470090C948300BC
:100050000C9483000C9483000C9483000C94830014
:100060000C9483000C948300000024272A000025B0
:10007000282B000023262904040404040404040299
:100080000202020202030303030303010204081035
:100090002040800102040810200102040810200002
:1000A0000000070002010000030406000000000039
:1000B00000000000470511241FBECFEFD4E0DEBFD3
:1000C000CDBF11E0A0E0B1E0E2E0FAE102C00590AE
:1000D0000D92AC3CB107D9F712E0ACECB1E001C035
:1000E0001D92A938B107E1F710E0C6EBD0E004C0DB
:1000F0002297FE010E94C40CC43BD107C9F70E949D
:1001000040050C94FF0C0C940000982F8450843010
:1001100068F09E3159F09E3049F09F3039F09031AF
:1001200029F080E09B3119F481E0089581E0089581
:10013000982F8B3159F08E3049F08F3039F0803163
:1001400029F080E09E3119F481E0089581E008955E
:100150009091CD019B3141F09E3031F09F3021F0E4
:10016000903111F09E3141F450E08091D001891717
:1001700009F451E0852F089550E02091D00130E03E
:100180004091CE01892F90E0840F911D4091CF01C5
:10019000840F911D2817390769F7EBCF1092E401FE
:1001A0001092E3011092E6011092E5011092D6013F
:1001B0001092D5011092D4011092D3018091CD01FB
:1001C000863019F1873030F4843051F0853009F0F1
:1001D00055C00BC0873011F18E3109F04FC03EC0C1
:1001E0008091D1019091D20107C08091D10190916D
:1001F000D201909581959F4F9093E4018093E30104
:100200001092E6011092E50118C01092E4011092DC
:10021000E3018091D1019091D2010BC01092E401D1
:100220001092E3018091D1019091D2019095819536
:100230009F4F9093E6018093E5018091D7019091C3
:10024000D8019093D6018093D5018091DD019091E2
:10025000DE019093D4018093D30108951092E401BC
:100260001092E3011092E6011092E5011092D6017E
:100270001092D5011092D4011092D301089596E006
:1002800094B995B1997F926095B995B1966095B9F9
:1002900046E050E0A1E0B0E0E82FF0E09D01042E40
:1002A00002C0220F331F0A94E2F72E233F23042EAD
:1002B00002C0359527950A94E2F7220F85B1897F10
:1002C000822B85B985B1897F8460822B85B94150A5
:1002D00050408FEF4F3F580709F747E050E0E1E00B
:1002E000F0E070E09F01042E02C0220F331F0A9439
:1002F000E2F726233723042E02C0359527950A946A
:10030000E2F7220F85B1897F822B85B985B1897F7C
:100310008460822B85B9415050408FEF4F3F580782
:1003200009F7089596E094B995B1997F95B995B17B
:10033000997F946095B946E050E0E1E0F0E0682FE5
:1003400070E09F01042E02C0220F331F0A94E2F7CF
:1003500026233723042E02C0359527950A94E2F709
:10036000220F85B1897F822B85B985B1897F846011
:10037000822B85B9415050408FEF4F3F580709F706
:1003800084E084B985B1897F846085B982E390E097
:100390000E94840730E047E050E085B1897F85B94D
:1003A00025B1297F246083B190E08270907095958B
:1003B0008795042E02C0880F991F0A94E2F7382B04
:1003C00025B9415050408FEF4F3F580731F738B9AA
:1003D000832F08950F931F9383E40E949201082FA7
:1003E00082E40E949201992787FD90952091D50182
:1003F0003091D601280F391F3093D6012093D501B3
:10040000112707FD10958091D3019091D401800FA1
:10041000911F9093D4018093D3011F910F91089560
:1004200060E070E085E00E94ED0760E070E086E04B
:100430000E94ED0760E083E00E945F0860E084E0D6
:100440000E945F080895EF92FF920F931F937B0124
:100450000FEF10E0B801681B790B85E00E94ED07F3
:100460000E191F09B80186E00E94ED0761E083E0E4
:100470000E945F0861E084E00E945F081F910F9175
:10048000FF90EF9008950F931F938B01BC0185E0BF
:100490000E94ED07B80186E00E94ED0760E083E06E
:1004A0000E945F0860E084E00E945F081F910F9146
:1004B0000895AF92BF92CF92DF92EF92FF920F9387
:1004C0001F93CF93DF939C01AB014396879710F462
:1004D00020E030E0CA014396879710F440E050E0F6
:1004E0008091BF019091C001B901821793070CF46C
:1004F000BC0122273327281B390B6B0162177307B6
:100500000CF46901BA01841795070CF4BC01EB01E6
:10051000621773070CF4E9011C141D0434F460E045
:1005200083E00E945F08B6013DC0C114D104A1F16F
:1005300061E083E00E945F08E091BF01F091C0019B
:10054000EE24FF24EE1AFF0A0027F7FC0095102F77
:10055000B601882777FD8095982F2FEF30E02E1B6E
:100560003F0B442737FD4095542F5F934F933F93A4
:100570002F93FFEFAF2EB12CC12CD12C20E030E017
:1005800040E050E00E94AD0985E00E94ED070F9029
:100590000F900F900F9009C060E083E00E945F0809
:1005A00060E070E085E00E94ED071C161D0634F443
:1005B00060E084E00E945F08BE013CC02097A1F18A
:1005C00061E084E00E945F08E091BF01F091C0010A
:1005D000EE24FF24EE1AFF0A0027F7FC0095102FE7
:1005E000BE01882777FD8095982F2FEF30E02E1BD6
:1005F0003F0B442737FD4095542F5F934F933F9314
:100600002F93EFEFAE2EB12CC12CD12C20E030E097
:1006100040E050E00E94AD0986E00E94ED070F9097
:100620000F900F900F9009C060E084E00E945F0877
:1006300060E070E086E00E94ED07DF91CF911F91AE
:100640000F91FF90EF90DF90CF90BF90AF90089503
:100650000F931F930BEF11E060E071E0C8010E945F
:1006600070054091D5015091D601662757FD6095E0
:10067000762F2AE030E0C8010E94CF066EE071E0DC
:10068000C8010E9470054091D7015091D80166279A
:1006900057FD6095762F2AE030E0C8010E94CF0612
:1006A00063E271E0C8010E9470054091D30150914E
:1006B000D401662757FD6095762F2AE030E0C80107
:1006C0000E94CF066FE271E0C8010E947005409160
:1006D000DD015091DE01662757FD6095762F2AE0F7
:1006E00030E0C8010E94CF0661E471E0C8010E94B9
:1006F00070054091E7015091E801662757FD60952C
:10070000762F2AE030E0C8010E94CF0663E571E051
:10071000C8010E9470054091E9015091EA016627E5
:1007200057FD6095762F2AE030E0C8010E94CF0681
:10073000C8010E9488051F910F910895BC018BEF9D
:1007400091E00E94AF0508954F925F926F927F9261
:100750008F929F92AF92BF92CF92DF92EF92FF92D1
:100760000F931F930E94EA018090E3019090E401AF
:100770008091D5019091D601881A990A9092D8015A
:100780008092D7018091D9019091DA017401E81A21
:10079000F90AF092DC01E092DB01B401882777FDD1
:1007A0008095982F0E94500B2091EB013091EC0125
:1007B0004091ED015091EE010E94DC0B5B016C0158
:1007C0000027F7FC0095102FC801B7010E94500BBD
:1007D0002091EF013091F0014091F1015091F2012F
:1007E0000E94DC0B9B01AC01C601B5010E94B90A55
:1007F0000E941D0B5B016C019092DA018092D9017D
:100800008090E5019090E6018091D3019091D40110
:10081000881A990A9092DE018092DD018091DF01B1
:100820009091E0017401E81AF90AF092E201E09275
:10083000E101B401882777FD8095982F0E94500B25
:100840002091F3013091F4014091F5015091F601AE
:100850000E94DC0B2B013C010027F7FC0095102FB8
:10086000C801B7010E94500B2091F7013091F801A7
:100870004091F9015091FA010E94DC0B9B01AC01FF
:10088000C301B2010E94B90A0E941D0B9B012A0DEF
:100890003B1D3093E8012093E701A61AB70AB092F6
:1008A000EA01A092E9019092E0018092DF01B50196
:1008B000C9010E9459028BEF91E00E9458058823DC
:1008C00009F46BC08BEF91E00E945505282F8091B1
:1008D000CC018B30A9F18C3030F4813069F0833059
:1008E00009F05BC012C0833109F446C08531C9F1FB
:1008F0008C3009F052C028C0223011F483E04BC084
:1009000086E691E00E949E0348C0822F8450843086
:1009100050F02E3141F02E3031F02F3021F02031C7
:1009200011F02B3189F52093CD012B31C1F02E3000
:10093000B1F02F30A1F0203191F02E3159F50FC0D8
:100940002093CE018CE027C02093CF019091CE015F
:1009500080E0820F911D9093D2018093D10185E1B7
:100960001AC02093D0010E94A800882311F083E1CF
:1009700012C08FE791E00AC0283019F40E94CE001F
:1009800007C080E991E002C087EA91E00E949E03DF
:1009900081E001C08BE08093CC011F910F91FF900B
:1009A000EF90DF90CF90BF90AF909F908F907F900F
:1009B0006F905F904F9008958DEC9CECACE4BEE39B
:1009C0008093EB019093EC01A093ED01B093EE01C5
:1009D0008AE999E9A9E9BEE38093EF019093F001D8
:1009E000A093F101B093F2018093F3019093F4018D
:1009F000A093F501B093F6018093F7019093F8016D
:100A0000A093F901B093FA018091E3019091E40180
:100A10002091D5013091D601821B930B9093DA017E
:100A20008093D9018091E5019091E6012091D30155
:100A30003091D401821B930B9093E0018093DF01EE
:100A400061E082E00E94410861E083E00E94410889
:100A500061E084E00E94410861E085E00E94410875
:100A600061E086E00E94410881E08093CC0140E093
:100A70005BE460E070E08BEF91E00E945B0508951D
:100A80000E9492070E94DC040E94A403FDCF85EC23
:100A900091E09093FC018093FB010895862F0E94C2
:100AA0002F0908950E94670908950E944809089532
:100AB0000E9437090895CB01BA010E94F6080895F3
:100AC000DC01ED91FC910190F081E02D09950895F4
:100AD000DC01ED91FC910190F081E02D09950895E4
:100AE0000F931F93CF93DF938C01EB0109C02196E5
:100AF000D801ED91FC910190F081E02DC80109959C
:100B000068816623A1F7DF91CF911F910F9108951E
:100B10000F931F938C01DC01ED91FC910190F0810A
:100B2000E02D6DE00995D801ED91FC910190F081E7
:100B3000E02D6AE0C80109951F910F9108950F9368
:100B40001F938C01DC01ED91FC910190F081E02D6F
:100B50000995C8010E9488051F910F9108950F9370
:100B60001F938C010E947005C8010E9488051F9187
:100B70000F9108950F931F938C01DC01ED91FC916F
:100B80000190F081E02D0995C8010E9488051F9110
:100B90000F9108952F923F924F925F926F927F92A2
:100BA0008F929F92AF92BF92CF92DF92EF92FF927D
:100BB0000F931F93DF93CF93CDB7DEB7A0970FB6F8
:100BC000F894DEBF0FBECDBF1C016A017B01411549
:100BD00051056105710549F4DC01ED91FC9101902D
:100BE000F081E02D60E3099554C0882499245401D4
:100BF000422E55246624772401E010E00C0F1D1FBF
:100C0000080D191DC701B601A30192010E94710CC4
:100C1000F80160830894811C911CA11CB11CC701C0
:100C2000B601A30192010E94710CC901DA016C01A5
:100C30007D01C114D104E104F104F1F681E0E82E54
:100C4000F12CEC0EFD1EE80CF91C3E010894611C11
:100C5000711CD501C4010197A109B1096C01C81823
:100C6000D90814C0F601EE0DFF1D60816A3010F442
:100C7000605D01C0695CD101ED91FC910190F08152
:100C8000E02DC10109950894E108F1086E147F0474
:100C900049F7A0960FB6F894DEBF0FBECDBFCF9137
:100CA000DF911F910F91FF90EF90DF90CF90BF9059
:100CB000AF909F908F907F906F905F904F903F90FC
:100CC0002F9008952AE00E94CA0508950F931F935C
:100CD0008C010E946206C8010E9488051F910F9135
:100CE0000895AB0160E070E00E94620608950F93E2
:100CF0001F938C01AB0160E070E00E946206C801A6
:100D00000E9488051F910F910895EF92FF920F9313
:100D10001F93CF93DF93EC017A018B0177FF0FC014
:100D2000E881F9810190F081E02D6DE2099510953F
:100D30000095F094E094E11CF11C011D111D2AE0C6
:100D4000B801A701CE010E94CA05DF91CF911F9182
:100D50000F91FF90EF9008950F931F938C010E94C5
:100D60008506C8010E9488051F910F910895AB0167
:100D7000662757FD6095762F0E94850608950F938C
:100D80001F938C01AB01662757FD6095762F0E945B
:100D90008506C8010E9488051F910F910895DC0106
:100DA0002115310541F4ED91FC910190F081E02D88
:100DB000642F099508952A30310519F40E9485069B
:100DC00008950E94CA0508950F931F938C010E94F5
:100DD000CF06C8010E9488051F910F9108951F92A8
:100DE0000F920FB60F9211242F938F939F93AF936F
:100DF000BF938091FD019091FE01A091FF01B09100
:100E000000028050904CAF4FBF4F8093FD019093F4
:100E1000FE01A093FF01B093000227C08091FD0165
:100E20009091FE01A091FF01B091000280589E4375
:100E3000A040B0408093FD019093FE01A093FF017C
:100E4000B09300028091010290910202A0910302EE
:100E5000B09104020196A11DB11D809301029093EF
:100E60000202A0930302B09304028091FD019091CD
:100E7000FE01A091FF01B091000281589E43A04065
:100E8000B04060F6BF91AF919F918F912F910F90DD
:100E90000FBE0F901F9018958FB7F8942091010204
:100EA0003091020240910302509104028FBFB901B8
:100EB000CA010895EF92FF920F931F937B018C015B
:100EC0008FB7F894409101025091020260910302A1
:100ED000709104028FBF2FB7F89480910102909116
:100EE0000202A0910302B09104022FBF841B950B54
:100EF000A60BB70B8E159F05A007B10760F31F91D6
:100F00000F91FF90EF900895019759F0FC01EE0FBB
:100F1000FF1FEE0FFF1F32978FB7F8943197F1F74D
:100F20008FBF0895789484B5826084BD84B5816054
:100F300084BD85B5826085BD85B5816085BDEEE6E1
:100F4000F0E0808181608083E1E8F0E08081826070
:100F50008083808181608083E0E8F0E0808181602F
:100F60008083E1EBF0E0808184608083E0EBF0E05F
:100F7000808181608083EAE7F0E080818460808303
:100F800080818260808380818160808380818068AD
:100F900080831092C10008958093C70108958F70D7
:100FA0009091C7019295990F990F907C982B9093EF
:100FB0007C0080917A00806480937A0080917A002E
:100FC00086FDFCCF2091780040917900942F80E03D
:100FD00030E0282B392BC90108951F93CF93DF935D
:100FE000182FEB0161E00E944108E12FF0E0E1568B
:100FF000FF4F8491833051F480918000806880930A
:101000008000D0938900C093880037C0843051F4A9
:1010100080918000806280938000D0938B00C09389
:101020008A002BC0813029F484B5806884BDC7BD97
:1010300024C0823029F484B5806284BDC8BD1DC03F
:10104000863041F48091B00080688093B000C093F6
:10105000B30013C0873041F48091B0008062809368
:10106000B000C093B40009C0C038D10514F460E0EA
:1010700001C061E0812F0E945F08DF91CF911F9135
:101080000895282F30E0C90185579F4FFC019491A6
:1010900029583F4FF9018491882381F0E82FF0E02F
:1010A000E859FF4FE491F0E0662329F480819095A0
:1010B0008923808308958081892B80830895482F18
:1010C00050E0CA0181569F4FFC012491CA01855707
:1010D0009F4FFC01949149585F4FFA01349133239B
:1010E000C1F1222331F1233021F4809180008F77E8
:1010F00005C0243031F4809180008F7D8093800082
:1011000018C0213019F484B58F7704C0223021F43F
:1011100084B58F7D84BD0DC0263021F48091B00050
:101120008F7705C0273029F48091B0008F7D8093A0
:10113000B000E32FF0E0E359FF4FE491F0E06623C5
:1011400029F4808190958923808308958081892B5B
:1011500080830895482F50E0CA0181569F4FFC01BB
:101160002491CA0185579F4FFC01949149585F4FC4
:10117000FA013491332319F420E030E035C0222302
:1011800031F1233021F4809180008F7705C0243025
:1011900031F4809180008F7D8093800018C02130D1
:1011A00019F484B58F7704C0223021F484B58F7D83
:1011B00084BD0DC0263021F48091B0008F7705C02A
:1011C000273029F48091B0008F7D8093B000E32F09
:1011D000F0E0EE58FF4FE491F0E0808120E030E055
:1011E000892311F021E030E0C9010895EF92FF92C8
:1011F0000F931F937B018C0122E030E040E050E030
:101200000E94930C205C3D4B404F5F4FCA01B901D7
:10121000A80197010E94930CC901DA010197A10965
:10122000B109292F3A2F4B2F552747FD5A95019683
:10123000A11DB11D2093C50081508093C400E1EC35
:10124000F0E08081806180838081886080838081FC
:10125000806880831F910F91FF90EF900895982FE1
:101260008091C00085FFFCCF9093C60008958091C7
:1012700005029091060280589F4F209107023091FD
:101280000802821B930B60E870E00E945E0C0895D8
:101290004091070250910802809105029091060248
:1012A0008417950719F42FEF3FEF0FC0FA01E75F9E
:1012B000FD4F2081CA01019660E870E00E945E0C3B
:1012C000909308028093070230E0C901089580914D
:1012D00007029091080290930602809305020895F8
:1012E0001F920F920FB60F9211242F933F934F939B
:1012F0005F936F937F938F939F93AF93BF93EF937E
:10130000FF934091C600E0910502F0910602CF01E3
:10131000019660E870E00E945E0C9C0180910702DB
:10132000909108022817390739F0E75FFD4F408395
:101330003093060220930502FF91EF91BF91AF9188
:101340009F918F917F916F915F914F913F912F91DD
:101350000F900FBE0F901F9018952F923F924F92B3
:101360005F926F927F928F929F92AF92BF92CF9235
:10137000DF92EF92FF920F931F93DF93CF93CDB73E
:10138000DEB73B014C0119012A016D897E898F89E5
:10139000988D6A197B098C099D09621A730A840A5F
:1013A000950AA40193010E943F0CE218F308040976
:1013B0001509A80197010E94930C2A0D3B1D4C1D95
:1013C0005D1DB901CA01CF91DF911F910F91FF906F
:1013D000EF90DF90CF90BF90AF909F908F907F90D5
:1013E0006F905F904F903F902F900895AF92BF9273
:1013F000CF92DF92EF92FF920F931F935B016C01EC
:10140000611571058105910529F420E030E040E087
:1014100050E01FC00E94A80A7C010E94A80A002771
:10142000F7FC0095102F8701FF24EE24AA2797FDD3
:10143000A095BA2FE80EF91E0A1F1B1FC801B7019D
:10144000A60195010E94930CAC01CB01DA019C012D
:10145000AD01B901CA011F910F91FF90EF90DF908C
:10146000CF90BF90AF900895EF92FF920F931F938C
:101470007B018C01621773078407950764F4261BB0
:10148000370B480B590BCA01B9010E94F609E60E49
:10149000F71E081F191FB701C8011F910F91FF9078
:1014A000EF900895009711F00E94AD0A0895A0E012
:1014B000B0E0EDE5FAE00C94D00CEC01A880B98026
:1014C000CA80DB80A114B104C104D10441F484E2D8
:1014D000A82E89EDB82E8BE5C82E87E0D82EC60140
:1014E000B5012DE133EF41E050E00E94930C27EA73
:1014F00031E440E050E00E943F0C7B018C01C601CA
:10150000B5012DE133EF41E050E00E94930CCA0198
:10151000B9012CEE34EF4FEF5FEF0E943F0C6E0DE0
:101520007F1D801F911F97FF04C061507040804055
:101530009048688379838A839B839B013F77C901A5
:10154000CDB7DEB7EAE00C94EC0C0E94570A089580
:1015500088EC91E00E94570A0895A0E0B0E08093E3
:10156000C8019093C901A093CA01B093CB0108951B
:101570005058BB27AA270ED0E5C0D6D030F0DBD01C
:1015800020F031F49F3F11F41EF4CBC00EF4E0952F
:10159000E7FBC1C0E92FE7D080F3BA1762077307F2
:1015A0008407950718F071F49EF5FFC00EF4E095DE
:1015B0000B2EBA2FA02D0B01B90190010C01CA010D
:1015C000A0011124FF27591B99F0593F50F4503EB8
:1015D00068F11A16F040A22F232F342F4427585FAA
:1015E000F3CF469537952795A795F0405395C9F7C2
:1015F0007EF41F16BA0B620B730B840BBAF091507A
:10160000A1F0FF0FBB1F661F771F881FC2F70EC018
:10161000BA0F621F731F841F48F4879577956795EB
:10162000B795F7959E3F08F0B3CF9395880F08F0D4
:101630009927EE0F97958795089504D06894B11176
:10164000B5C0089598D088F09F5790F0B92F99278A
:10165000B751A0F0D1F0660F771F881F991F1AF0BD
:10166000BA95C9F712C0B13081F09FD0B1E00895AA
:101670009CC0672F782F8827B85F39F0B93FCCF32B
:10168000869577956795B395D9F73EF490958095B3
:10169000709561957F4F8F4F9F4F0895E89409C0D3
:1016A00097FB3EF490958095709561957F4F8F4F95
:1016B0009F4F9923A9F0F92F96E9BB279395F695AB
:1016C000879577956795B795F111F8CFFAF4BB0F29
:1016D00011F460FF1BC06F5F7F4F8F4F9F4F16C08D
:1016E000882311F096E911C0772321F09EE8872F17
:1016F000762F05C0662371F096E8862F70E060E0D3
:101700002AF09A95660F771F881FDAF7880F96954B
:10171000879597F9089597F99F6780E870E060E0F2
:1017200008959FEF80EC089500240A94161617067A
:1017300018060906089500240A94121613061406C2
:1017400005060895092E0394000C11F4882352F025
:10175000BB0F40F4BF2B11F460FF04C06F5F7F4FDD
:101760008F4F9F4F089557FD9058440F551F59F0C4
:101770005F3F71F04795880F97FB991F61F09F3F7E
:1017800079F087950895121613061406551FF2CFA7
:101790004695F1DF08C0161617061806991FF1CFF7
:1017A00086957105610508940895E894BB2766271E
:1017B0007727CB0197F908950BD0C4CFB5DF28F078
:1017C000BADF18F0952309F0A6CFABCF1124EECFE6
:1017D000CADFA0F3959FD1F3950F50E0551F629F8C
:1017E000F001729FBB27F00DB11D639FAA27F00D7A
:1017F000B11DAA1F649F6627B00DA11D661F829FA1
:101800002227B00DA11D621F739FB00DA11D621F85
:10181000839FA00D611D221F749F3327A00D611DA2
:10182000231F849F600D211D822F762F6A2F112484
:101830009F5750408AF0E1F088234AF0EE0FFF1FD7
:10184000BB1F661F771F881F91505040A9F79E3F0E
:10185000510570F060CFAACF5F3FECF3983EDCF308
:10186000869577956795B795F795E7959F5FC1F74B
:10187000FE2B880F911D9695879597F90895629F85
:10188000D001739FF001829FE00DF11D649FE00D78
:10189000F11D929FF00D839FF00D749FF00D659FD9
:1018A000F00D9927729FB00DE11DF91F639FB00DD8
:1018B000E11DF91FBD01CF011124089597FB092EE9
:1018C00007260AD077FD04D049D006D000201AF4AC
:1018D000709561957F4F0895F6F7909581959F4F8C
:1018E0000895A1E21A2EAA1BBB1BFD010DC0AA1F61
:1018F000BB1FEE1FFF1FA217B307E407F50720F079
:10190000A21BB30BE40BF50B661F771F881F991FF3
:101910001A9469F760957095809590959B01AC013C
:10192000BD01CF01089597FB092E05260ED057FD66
:1019300004D0D7DF0AD0001C38F45095409530957C
:1019400021953F4F4F4F5F4F0895F6F79095809543
:10195000709561957F4F8F4F9F4F0895AA1BBB1BBA
:1019600051E107C0AA1FBB1FA617B70710F0A61B9F
:10197000B70B881F991F5A95A9F780959095BC01C0
:10198000CD010895EE0FFF1F0590F491E02D09940D
:101990002F923F924F925F926F927F928F929F927F
:1019A000AF92BF92CF92DF92EF92FF920F931F936D
:1019B000CF93DF93CDB7DEB7CA1BDB0B0FB6F8941E
:1019C000DEBF0FBECDBF09942A88398848885F845E
:1019D0006E847D848C849B84AA84B984C884DF80CF
:1019E000EE80FD800C811B81AA81B981CE0FD11DB3
:1019F0000FB6F894DEBF0FBECDBFED010895F89489
:021A0000FFCF16
:101A02007472616E736C6174696F6E3D2000207434
:101A120072616E736C6174696F6E206572726F723F
:101A22003D200020726F746174696F6E3D2000204A
:101A3200726F746174696F6E206572726F723D208D
:101A420000206C6566744D6F746F725370656564C7
:101A52003D20002072696768744D6F746F72537015
:101A62006565643D20006E6F742061206D6573733F
:101A720061676520737461727420627974650069AC
:101A82006E76616C696420636865636B73756D0063
:101A92006E6F742061206D65737361676520656E7A
:101AA200642062797465006E6F7420612076616CC7
:101AB200696420636F6D6D616E64001400320064AE
:0C1AC20000000000004E050101000000C3
:00000001FF
