:100000000C945B000C9483000C9483000C9483008C
:100010000C9483000C9483000C9483000C94830054
:100020000C9483000C9483000C9483000C94830044
:100030000C9483000C9483000C9483000C94830034
:100040000C940C070C9483000C948D090C94830081
:100050000C9483000C9483000C9483000C94830014
:100060000C9483000C948300000024272A000025B0
:10007000282B000023262904040404040404040299
:100080000202020202030303030303010204081035
:100090002040800102040810200102040810200002
:1000A0000000070002010000030406000000000039
:1000B00000000000640511241FBECFEFD4E0DEBFB6
:1000C000CDBF11E0A0E0B1E0ECE3FAE102C00590A1
:1000D0000D92A43EB107D9F712E0A4EEB1E001C041
:1000E0001D92A13AB107E1F710E0C6EBD0E004C0E1
:1000F0002297FE010E94E10CC43BD107C9F70E9480
:100100005D050C941C0D0C940000982F84508430D5
:1001100068F09E3159F09E3049F09F3039F09031AF
:1001200029F080E09B3119F481E0089581E0089581
:10013000982F8B3159F08E3049F08F3039F0803163
:1001400029F080E09E3119F481E0089581E008955E
:100150009091E5019B3141F09E3031F09F3021F0CC
:10016000903111F09E3141F450E08091E8018917FF
:1001700009F451E0852F089550E02091E80130E026
:100180004091E601892F90E0840F911D4091E70195
:10019000840F911D2817390769F7EBCF1092FC01E6
:1001A0001092FB011092FE011092FD011092EE01DF
:1001B0001092ED011092EC011092EB018091E5019B
:1001C000863019F1873030F4843051F0853009F0F1
:1001D00055C00BC0873011F18E3109F04FC03EC0C1
:1001E0008091E9019091EA0107C08091E901909125
:1001F000EA01909581959F4F9093FC018093FB01BC
:100200001092FE011092FD0118C01092FC01109294
:10021000FB018091E9019091EA010BC01092FC0171
:100220001092FB018091E9019091EA0190958195EE
:100230009F4F9093FE018093FD018091EF0190917B
:10024000F0019093EE018093ED018091F501909182
:10025000F6019093EC018093EB0108951092FC015C
:100260001092FB011092FE011092FD011092EE011E
:100270001092ED011092EC011092EB01089596E0BE
:1002800094B995B1997F926095B995B1966095B9F9
:1002900046E050E0A1E0B0E0E82FF0E09D01042E40
:1002A00002C0220F331F0A94E2F72E233F23042EAD
:1002B00002C0359527950A94E2F7220F85B1897F10
:1002C000822B85B985B1897F8460822B85B94150A5
:1002D00050408FEF4F3F580709F747E050E0E1E00B
:1002E000F0E070E09F01042E02C0220F331F0A9439
:1002F000E2F726233723042E02C0359527950A946A
:10030000E2F7220F85B1897F822B85B985B1897F7C
:100310008460822B85B9415050408FEF4F3F580782
:1003200009F7089596E094B995B1997F95B995B17B
:10033000997F946095B946E050E0E1E0F0E0682FE5
:1003400070E09F01042E02C0220F331F0A94E2F7CF
:1003500026233723042E02C0359527950A94E2F709
:10036000220F85B1897F822B85B985B1897F846011
:10037000822B85B9415050408FEF4F3F580709F706
:1003800084E084B985B1897F846085B982E390E097
:100390000E94A10730E047E050E085B1897F85B930
:1003A00025B1297F246083B190E08270907095958B
:1003B0008795042E02C0880F991F0A94E2F7382B04
:1003C00025B9415050408FEF4F3F580731F738B9AA
:1003D000832F08950F931F9383E40E949201082FA7
:1003E00082E40E949201992787FD90952091ED016A
:1003F0003091EE01280F391F3093EE012093ED016B
:10040000112707FD10958091EB019091EC01800F71
:10041000911F9093EC018093EB011F910F91089530
:1004200060E070E085E00E940A0860E070E086E02D
:100430000E940A0860E083E00E947C0860E084E09B
:100440000E947C080895EF92FF920F931F937B0107
:100450000FEF10E0B801681B790B85E00E940A08D5
:100460000E191F09B80186E00E940A0861E083E0C6
:100470000E947C0861E084E00E947C081F910F913B
:10048000FF90EF9008950F931F938B01BC0185E0BF
:100490000E940A08B80186E00E940A0860E083E032
:1004A0000E947C0860E084E00E947C081F910F910C
:1004B0000895AF92BF92CF92DF92EF92FF920F9387
:1004C0001F93CF93DF939C01AB014396879710F462
:1004D00020E030E0CA014396879710F440E050E0F6
:1004E0008091D6019091D701B901821793070CF43E
:1004F000BC0122273327281B390B6B0162177307B6
:100500000CF46901BA01841795070CF4BC01EB01E6
:10051000621773070CF4E9011C141D0434F460E045
:1005200083E00E947C08B6013DC0C114D104A1F152
:1005300061E083E00E947C08E091D601F091D70150
:10054000EE24FF24EE1AFF0A0027F7FC0095102F77
:10055000B601882777FD8095982F2FEF30E02E1B6E
:100560003F0B442737FD4095542F5F934F933F93A4
:100570002F93FFEFAF2EB12CC12CD12C20E030E017
:1005800040E050E00E94CA0985E00E940A080F90EE
:100590000F900F900F9009C060E083E00E947C08EC
:1005A00060E070E085E00E940A081C161D0634F425
:1005B00060E084E00E947C08BE013CC02097A1F16D
:1005C00061E084E00E947C08E091D601F091D701BF
:1005D000EE24FF24EE1AFF0A0027F7FC0095102FE7
:1005E000BE01882777FD8095982F2FEF30E02E1BD6
:1005F0003F0B442737FD4095542F5F934F933F9314
:100600002F93EFEFAE2EB12CC12CD12C20E030E097
:1006100040E050E00E94CA0986E00E940A080F905C
:100620000F900F900F9009C060E084E00E947C085A
:1006300060E070E086E00E940A08DF91CF911F9190
:100640000F91FF90EF90DF90CF90BF90AF90089503
:100650000F931F9303E112E060E071E0C8010E9474
:100660008D054091ED015091EE01662757FD609593
:10067000762F2AE030E0C8010E94EC066EE071E0BF
:10068000C8010E948D054091EF015091F00166274D
:1006900057FD6095762F2AE030E0C8010E94EC06F5
:1006A00063E271E0C8010E948D054091EB01509119
:1006B000EC01662757FD6095762F2AE030E0C801EF
:1006C0000E94EC066FE271E0C8010E948D05409126
:1006D000F5015091F601662757FD6095762F2AE0C7
:1006E00030E0C8010E94EC0661E471E0C8010E949C
:1006F0008D054091FF0150910002662757FD6095DE
:10070000762F2AE030E0C8010E94EC0663E571E034
:10071000C8010E948D054091010250910202662796
:1007200057FD6095762F2AE030E0C8010E94EC0664
:10073000C8010E94A5051F910F910895BC0183E196
:1007400092E00E94CC0508950F931F9303E112E0FD
:1007500066E671E0C8010E948D056AE671E0C80195
:100760000E94CC0563E771E0C8010E94CC0568E7F0
:1007700071E0C8010E94CC051F910F9108954F921E
:100780005F926F927F928F929F92AF92BF92CF9221
:10079000DF92EF92FF920F931F930E94EA018090E5
:1007A000FB019090FC018091ED019091EE01881A7F
:1007B000990A9092F0018092EF018091F10190915D
:1007C000F2017401E81AF90AF092F401E092F301DF
:1007D000B401882777FD8095982F0E946D0B20919A
:1007E00003023091040240910502509106020E94DA
:1007F000F90B5B016C010027F7FC0095102FC80175
:10080000B7010E946D0B20910702309108024091C0
:10081000090250910A020E94F90B9B01AC01C6012A
:10082000B5010E94D60A0E943A0B5B016C019092BE
:10083000F2018092F1018090FD019090FE01809183
:10084000EB019091EC01881A990A9092F60180923E
:10085000F5018091F7019091F8017401E81AF90A05
:10086000F092FA01E092F901B401882777FD8095B2
:10087000982F0E946D0B20910B0230910C02409139
:100880000D0250910E020E94F90B2B013C01002732
:10089000F7FC0095102FC801B7010E946D0B209145
:1008A0000F023091100240911102509112020E94E9
:1008B000F90B9B01AC01C301B2010E94D60A0E9450
:1008C0003A0B9B012A0D3B1D309300022093FF0140
:1008D000A61AB70AB0920202A09201029092F80101
:1008E0008092F701B501C9010E94590283E192E0AB
:1008F0000E947505882309F46BC083E192E00E9491
:100900007205282F8091E4018B30A9F18C3030F4EE
:10091000813069F0833009F05BC012C0833109F483
:1009200046C08531C9F18C3009F052C028C0223050
:1009300011F483E04BC08DE791E00E949E0348C014
:10094000822F8450843050F02E3141F02E3031F01F
:100950002F3021F0203111F02B3189F52093E50162
:100960002B31C1F02E30B1F02F30A1F0203191F0B9
:100970002E3159F50FC02093E6018CE027C020935B
:10098000E7019091E60180E0820F911D9093EA01CA
:100990008093E90185E11AC02093E8010E94A80034
:1009A000882311F083E112C086E991E00AC0283063
:1009B00019F40E94CE0007C087EA91E002C08EEBD6
:1009C00091E00E949E0381E001C08BE08093E401EE
:1009D0001F910F91FF90EF90DF90CF90BF90AF905D
:1009E0009F908F907F906F905F904F9008958DECC7
:1009F0009CECACE4BEE38093030290930402A093CA
:100A00000502B09306028AE999E9A9E9BEE3809359
:100A1000070290930802A0930902B0930A02809300
:100A20000B0290930C02A0930D02B0930E028093E0
:100A30000F0290931002A0931102B09312028091C2
:100A4000FB019091FC012091ED013091EE01821BA0
:100A5000930B9093F2018093F1018091FD019091AD
:100A6000FE012091EB013091EC01821B930B9093DE
:100A7000F8018093F70161E082E00E945E0861E086
:100A800083E00E945E0861E084E00E945E0861E00D
:100A900085E00E945E0861E086E00E945E0881E0D9
:100AA0008093E40140E05BE460E070E083E192E089
:100AB0000E9478050E94A40308950E94AF070E9437
:100AC000F7040E94BF03FDCF8CED91E090931402D8
:100AD000809313020895862F0E944C0908950E9466
:100AE000840908950E94650908950E945409089593
:100AF000CB01BA010E9413090895DC01ED91FC912C
:100B00000190F081E02D09950895DC01ED91FC91B3
:100B10000190F081E02D099508950F931F93CF93D5
:100B2000DF938C01EB0109C02196D801ED91FC9176
:100B30000190F081E02DC801099568816623A1F735
:100B4000DF91CF911F910F9108950F931F938C0107
:100B5000DC01ED91FC910190F081E02D6DE00995B3
:100B6000D801ED91FC910190F081E02D6AE0C8017F
:100B700009951F910F9108950F931F938C01DC012C
:100B8000ED91FC910190F081E02D0995C8010E9442
:100B9000A5051F910F9108950F931F938C010E943B
:100BA0008D05C8010E94A5051F910F9108950F930F
:100BB0001F938C01DC01ED91FC910190F081E02DFF
:100BC0000995C8010E94A5051F910F9108952F92C4
:100BD0003F924F925F926F927F928F929F92AF92CD
:100BE000BF92CF92DF92EF92FF920F931F93DF930A
:100BF000CF93CDB7DEB7A0970FB6F894DEBF0FBE88
:100C0000CDBF1C016A017B014115510561057105CC
:100C100049F4DC01ED91FC910190F081E02D60E35D
:100C2000099554C0882499245401422E55246624E1
:100C3000772401E010E00C0F1D1F080D191DC701DE
:100C4000B601A30192010E948E0CF8016083089402
:100C5000811C911CA11CB11CC701B601A30192010A
:100C60000E948E0CC901DA016C017D01C114D1040E
:100C7000E104F104F1F681E0E82EF12CEC0EFD1E0A
:100C8000E80CF91C3E010894611C711CD501C401DB
:100C90000197A109B1096C01C818D90814C0F6015F
:100CA000EE0DFF1D60816A3010F4605D01C0695C6B
:100CB000D101ED91FC910190F081E02DC1010995E8
:100CC0000894E108F1086E147F0449F7A0960FB666
:100CD000F894DEBF0FBECDBFCF91DF911F910F9172
:100CE000FF90EF90DF90CF90BF90AF909F908F904C
:100CF0007F906F905F904F903F902F9008952AE0E3
:100D00000E94E70508950F931F938C010E947F06B0
:100D1000C8010E94A5051F910F910895AB0160E0E5
:100D200070E00E947F0608950F931F938C01AB0122
:100D300060E070E00E947F06C8010E94A5051F9137
:100D40000F910895EF92FF920F931F93CF93DF932C
:100D5000EC017A018B0177FF0FC0E881F9810190E6
:100D6000F081E02D6DE2099510950095F094E094E6
:100D7000E11CF11C011D111D2AE0B801A701CE01E3
:100D80000E94E705DF91CF911F910F91FF90EF90A7
:100D900008950F931F938C010E94A206C8010E9420
:100DA000A5051F910F910895AB01662757FD60952A
:100DB000762F0E94A20608950F931F938C01AB011A
:100DC000662757FD6095762F0E94A206C8010E94F3
:100DD000A5051F910F910895DC012115310541F4FE
:100DE000ED91FC910190F081E02D642F099508951B
:100DF0002A30310519F40E94A20608950E94E705E1
:100E000008950F931F938C010E94EC06C8010E9465
:100E1000A5051F910F9108951F920F920FB60F9283
:100E200011242F938F939F93AF93BF9380911502BB
:100E300090911602A0911702B09118028050904C28
:100E4000AF4FBF4F8093150290931602A0931702E5
:100E5000B093180227C08091150290911602A091BC
:100E60001702B091180280549F41A040B040809377
:100E7000150290931602A0931702B0931802809166
:100E8000190290911A02A0911B02B0911C020196C6
:100E9000A11DB11D8093190290931A02A0931B0209
:100EA000B0931C028091150290911602A091170236
:100EB000B091180281549F41A040B04060F6BF91AC
:100EC000AF919F918F912F910F900FBE0F901F9018
:100ED00018958FB7F8942091190230911A02409119
:100EE0001B0250911C028FBFB901CA010895EF92F5
:100EF000FF920F931F937B018C018FB7F894409161
:100F0000190250911A0260911B0270911C028FBF4E
:100F10002FB7F8948091190290911A02A0911B02A8
:100F2000B0911C022FBF841B950BA60BB70B8E151F
:100F30009F05A007B10760F31F910F91FF90EF90FD
:100F40000895019759F0019749F0FC01EE0FFF1F3A
:100F500031978FB7F8943197F1F78FBF0895789450
:100F600084B5826084BD84B5816084BD85B58260AE
:100F700085BD85B5816085BDEEE6F0E0808181604C
:100F80008083E1E8F0E080818260808380818160FD
:100F90008083E0E8F0E0808181608083E1EBF0E035
:100FA000808184608083E0EBF0E0808181608083D9
:100FB000EAE7F0E0808184608083808182608083C2
:100FC0008081816080838081806880831092C100ED
:100FD00008958093DE0108958F709091DE019295BF
:100FE000990F990F907C982B90937C0080917A00B8
:100FF000806480937A0080917A0086FDFCCF2091F6
:10100000780040917900942F80E030E0282B392B34
:10101000C90108951F93CF93DF93182FEB0161E06F
:101020000E945E08E12FF0E0E156FF4F849183308B
:1010300051F480918000806880938000D093890073
:10104000C093880037C0843051F480918000806262
:1010500080938000D0938B00C0938A002BC0813096
:1010600029F484B5806884BDC7BD24C0823029F4CA
:1010700084B5806284BDC8BD1DC0863041F48091B6
:10108000B00080688093B000C093B30013C0873075
:1010900041F48091B00080628093B000C093B400AE
:1010A00009C0C038D10514F460E001C061E0812FAF
:1010B0000E947C08DF91CF911F910895282F30E086
:1010C000C90185579F4FFC01949129583F4FF90161
:1010D0008491882381F0E82FF0E0E859FF4FE491F4
:1010E000F0E0662329F48081909589238083089518
:1010F0008081892B80830895482F50E0CA01815652
:101100009F4FFC012491CA0185579F4FFC01949188
:1011100049585F4FFA0134913323C1F1222331F151
:10112000233021F4809180008F7705C0243031F482
:10113000809180008F7D8093800018C0213019F449
:1011400084B58F7704C0223021F484B58F7D84BDAF
:101150000DC0263021F48091B0008F7705C0273074
:1011600029F48091B0008F7D8093B000E32FF0E0F0
:10117000E359FF4FE491F0E0662329F480819095D4
:101180008923808308958081892B80830895482F47
:1011900050E0CA0181569F4FFC012491CA01855736
:1011A0009F4FFC01949149585F4FFA0134913323CA
:1011B00019F420E030E035C0222331F1233021F44E
:1011C000809180008F7705C0243031F480918000B9
:1011D0008F7D8093800018C0213019F484B58F77FB
:1011E00004C0223021F484B58F7D84BD0DC026302B
:1011F00021F48091B0008F7705C0273029F48091C9
:10120000B0008F7D8093B000E32FF0E0EE58FF4FE9
:10121000E491F0E0808120E030E0892311F021E0CA
:1012200030E0C9010895EF92FF920F931F937B0165
:101230008C0122E030E040E050E00E94B00C205EE3
:101240003E45484F5F4FCA01B901A80197010E946E
:10125000B00CC901DA010197A109B109292F3A2F70
:101260004B2F552747FD5A950196A11DB11D20937F
:10127000C50081508093C400E1ECF0E08081806182
:1012800080838081886080838081806880831F91D3
:101290000F91FF90EF900895982F8091C00085FFE7
:1012A000FCCF9093C600089580911D0290911E027C
:1012B00080589F4F20911F0230912002821B930B78
:1012C00060E870E00E947B0C089540911F025091ED
:1012D000200280911D0290911E028417950719F437
:1012E0002FEF3FEF0FC0FA01EF5DFD4F2081CA01E4
:1012F000019660E870E00E947B0C9093200280933E
:101300001F0230E0C901089580911F0290912002D0
:1013100090931E0280931D0208951F920F920FB6A4
:101320000F9211242F933F934F935F936F937F936B
:101330008F939F93AF93BF93EF93FF934091C6001A
:10134000E0911D02F0911E02CF01019660E870E06D
:101350000E947B0C9C0180911F0290912002281713
:10136000390739F0EF5DFD4F408330931E02209323
:101370001D02FF91EF91BF91AF919F918F917F914E
:101380006F915F914F913F912F910F900FBE0F90F2
:101390001F9018952F923F924F925F926F927F927B
:1013A0008F929F92AF92BF92CF92DF92EF92FF9275
:1013B0000F931F93DF93CF93CDB7DEB73B014C0163
:1013C00019012A016D897E898F89988D6A197B0997
:1013D0008C099D09621A730A840A950AA401930173
:1013E0000E945C0CE218F30804091509A801970192
:1013F0000E94B00C2A0D3B1D4C1D5D1DB901CA0198
:10140000CF91DF911F910F91FF90EF90DF90CF90E0
:10141000BF90AF909F908F907F906F905F904F9014
:101420003F902F900895AF92BF92CF92DF92EF92AC
:10143000FF920F931F935B016C016115710581058C
:10144000910529F420E030E040E050E01FC00E9408
:10145000C50A7C010E94C50A0027F7FC0095102FE1
:101460008701FF24EE24AA2797FDA095BA2FE80E46
:10147000F91E0A1F1B1FC801B701A60195010E9492
:10148000B00CAC01CB01DA019C01AD01B901CA017C
:101490001F910F91FF90EF90DF90CF90BF90AF9092
:1014A0000895EF92FF920F931F937B018C016217B7
:1014B00073078407950764F4261B370B480B590BF9
:1014C000CA01B9010E94130AE60EF71E081F191F70
:1014D000B701C8011F910F91FF90EF9008950097F9
:1014E00011F00E94CA0A0895A0E0B0E0EAE7FAE02D
:1014F0000C94ED0CEC01A880B980CA80DB80A114AB
:10150000B104C104D10441F484E2A82E89EDB82EBF
:101510008BE5C82E87E0D82EC601B5012DE133EF4B
:1015200041E050E00E94B00C27EA31E440E050E096
:101530000E945C0C7B018C01C601B5012DE133EFEB
:1015400041E050E00E94B00CCA01B9012CEE34EF2A
:101550004FEF5FEF0E945C0C6E0D7F1D801F911F8F
:1015600097FF04C061507040804090486883798341
:101570008A839B839B013F77C901CDB7DEB7EAE041
:101580000C94090D0E94740A08958FED91E00E9459
:10159000740A0895A0E0B0E08093DF019093E00129
:1015A000A093E101B093E20108955058BB27AA2708
:1015B0000ED0E5C0D6D030F0DBD020F031F49F3F24
:1015C00011F41EF4CBC00EF4E095E7FBC1C0E92F87
:1015D000E7D080F3BA17620773078407950718F0FE
:1015E00071F49EF5FFC00EF4E0950B2EBA2FA02DDE
:1015F0000B01B90190010C01CA01A0011124FF27C0
:10160000591B99F0593F50F4503E68F11A16F040BA
:10161000A22F232F342F4427585FF3CF46953795B9
:101620002795A795F0405395C9F77EF41F16BA0B7E
:10163000620B730B840BBAF09150A1F0FF0FBB1F2C
:10164000661F771F881FC2F70EC0BA0F621F731F75
:10165000841F48F4879577956795B795F7959E3FD2
:1016600008F0B3CF9395880F08F09927EE0F979560
:101670008795089504D06894B111B5C0089598D0A5
:1016800088F09F5790F0B92F9927B751A0F0D1F06B
:10169000660F771F881F991F1AF0BA95C9F712C0F5
:1016A000B13081F09FD0B1E008959CC0672F782FB2
:1016B0008827B85F39F0B93FCCF386957795679561
:1016C000B395D9F73EF490958095709561957F4FCD
:1016D0008F4F9F4F0895E89409C097FB3EF4909573
:1016E0008095709561957F4F8F4F9F4F9923A9F0FB
:1016F000F92F96E9BB279395F6958795779567958A
:10170000B795F111F8CFFAF4BB0F11F460FF1BC0CD
:101710006F5F7F4F8F4F9F4F16C0882311F096E960
:1017200011C0772321F09EE8872F762F05C066230E
:1017300071F096E8862F70E060E02AF09A95660FC7
:10174000771F881FDAF7880F9695879597F9089580
:1017500097F99F6780E870E060E008959FEF80EC64
:10176000089500240A941616170618060906089507
:1017700000240A9412161306140605060895092E6D
:101780000394000C11F4882352F0BB0F40F4BF2BDC
:1017900011F460FF04C06F5F7F4F8F4F9F4F08951C
:1017A00057FD9058440F551F59F05F3F71F0479512
:1017B000880F97FB991F61F09F3F79F087950895F7
:1017C000121613061406551FF2CF4695F1DF08C016
:1017D000161617061806991FF1CF86957105610533
:1017E00008940895E894BB2766277727CB0197F9DB
:1017F00008950BD0C4CFB5DF28F0BADF18F09523D9
:1018000009F0A6CFABCF1124EECFCADFA0F3959F8E
:10181000D1F3950F50E0551F629FF001729FBB27D7
:10182000F00DB11D639FAA27F00DB11DAA1F649F83
:101830006627B00DA11D661F829F2227B00DA11D36
:10184000621F739FB00DA11D621F839FA00D611DBC
:10185000221F749F3327A00D611D231F849F600DDD
:10186000211D822F762F6A2F11249F5750408AF016
:10187000E1F088234AF0EE0FFF1FBB1F661F771FA2
:10188000881F91505040A9F79E3F510570F060CFDE
:10189000AACF5F3FECF3983EDCF38695779567958A
:1018A000B795F795E7959F5FC1F7FE2B880F911DC0
:1018B0009695879597F90895629FD001739FF001DF
:1018C000829FE00DF11D649FE00DF11D929FF00DD0
:1018D000839FF00D749FF00D659FF00D9927729F07
:1018E000B00DE11DF91F639FB00DE11DF91FBD0192
:1018F000CF011124089597FB092E07260AD077FD02
:1019000004D049D006D000201AF4709561957F4F1D
:101910000895F6F7909581959F4F0895A1E21A2EAC
:10192000AA1BBB1BFD010DC0AA1FBB1FEE1FFF1F83
:10193000A217B307E407F50720F0A21BB30BE40BD3
:10194000F50B661F771F881F991F1A9469F760951A
:101950007095809590959B01AC01BD01CF010895D4
:1019600097FB092E05260ED057FD04D0D7DF0AD0ED
:10197000001C38F450954095309521953F4F4F4FBE
:101980005F4F0895F6F790958095709561957F4F1C
:101990008F4F9F4F0895AA1BBB1B51E107C0AA1F81
:1019A000BB1FA617B70710F0A61BB70B881F991F00
:1019B0005A95A9F780959095BC01CD010895EE0F39
:1019C000FF1F0590F491E02D09942F923F924F92C2
:1019D0005F926F927F928F929F92AF92BF92CF92BF
:1019E000DF92EF92FF920F931F93CF93DF93CDB7C8
:1019F000DEB7CA1BDB0B0FB6F894DEBF0FBECDBF40
:101A000009942A88398848885F846E847D848C8410
:101A10009B84AA84B984C884DF80EE80FD800C8119
:101A20001B81AA81B981CE0FD11D0FB6F894DEBFFC
:0C1A30000FBECDBFED010895F894FFCF6C
:101A3C007472616E736C6174696F6E3D20002074FA
:101A4C0072616E736C6174696F6E206572726F7205
:101A5C003D200020726F746174696F6E3D20002010
:101A6C00726F746174696F6E206572726F723D2053
:101A7C0000206C6566744D6F746F7253706565648D
:101A8C003D20002072696768744D6F746F725370DB
:101A9C006565643D20002B2B2B0041544348307866
:101AAC0030430041545752004154434E006E6F7402
:101ABC002061206D65737361676520737461727446
:101ACC00206279746500696E76616C696420636864
:101ADC0065636B73756D006E6F742061206D65733B
:101AEC007361676520656E642062797465006E6F42
:101AFC007420612076616C696420636F6D6D616E1A
:101B0C006400140032006400000000006B05010149
:041B1C0000000000C5
:00000001FF
