:100000000C9434000C9451000C9451000C94510049
:100010000C9451000C9451000C9451000C9451001C
:100020000C9451000C9451000C9451000C9451000C
:100030000C9451000C9451000C9451000C945100FC
:100040000C9469030C9451000C94C1020C9451005F
:100050000C9451000C9451000C9451000C945100DC
:100060000C9451000C94510011241FBECFEFD4E02A
:10007000DEBFCDBF11E0A0E0B1E0E0E9F8E002C0F2
:1000800005900D92A830B107D9F712E0A8E0B1E0D1
:1000900001C01D92A232B107E1F70E9464030C94E3
:1000A00046040C94000008958BB1877880668BB964
:1000B00008958BB1877888618BB908958BB1877863
:1000C00088648BB908958BB1877880638BB9089564
:1000D0008BB187788BB9089596E094B995B1997FE3
:1000E000926095B995B1966095B946E050E0A1E06F
:1000F000B0E0E82FF0E09D01042E02C0220F331F74
:100100000A94E2F72E233F23042E02C0359527954B
:100110000A94E2F7220F85B1897F822B85B985B1D8
:10012000897F8460822B85B9415050408FEF4F3FCB
:10013000580709F747E050E0E1E0F0E070E09F0188
:10014000042E02C0220F331F0A94E2F7262337231E
:10015000042E02C0359527950A94E2F7220F85B147
:10016000897F822B85B985B1897F8460822B85B98F
:10017000415050408FEF4F3F580709F7089596E0E0
:1001800094B995B1997F95B995B1997F946095B9D6
:1001900046E050E0E1E0F0E0682F70E09F01042EBF
:1001A00002C0220F331F0A94E2F726233723042EBE
:1001B00002C0359527950A94E2F7220F85B1897F11
:1001C000822B85B985B1897F8460822B85B94150A6
:1001D00050408FEF4F3F580709F784E084B985B14D
:1001E000897F846085B930E047E050E085B1897F40
:1001F00085B925B1297F246083B190E08270907029
:1002000095958795042E02C0880F991F0A94E2F7EE
:10021000382B25B9415050408FEF4F3F580731F7E9
:1002200038B9832F08950F931F9383E40E94BF0072
:10023000082F82E40E94BF00992787FD90952091A6
:100240000D0130910E01280F391F30930E012093BC
:100250000D01112707FD109580910B0190910C0164
:10026000800F911F90930C0180930B011F910F91B0
:100270000895AF92BF92CF92DF92EF92FF920F93C9
:100280001F93CF93DF9382E88093C00088E9809327
:10029000C10086E08093C2001092C50083E3809382
:1002A000C40080E480937C0080917A00876880930A
:1002B0007A00229A8FE78AB98FEF87B988EC90E0AD
:1002C000909309018093080110921702109218026E
:1002D000789484E085B98FEF8AB9C0E0D0E0FAE085
:1002E000BF2EAA24A3940AE1ECEBCE2EE2E0DE2E90
:1002F0007CE0E72E73E0F72E80910A01813051F403
:100300005A9A5A982196C630D10524F010920A01C3
:10031000C0E0D0E010911902113071F70E94130172
:1003200080911501873009F48DC0883048F48530FC
:10033000C9F1863008F05EC0843009F0BEC00AC042
:100340008C3109F4AFC08D3109F4B1C08B3109F0A3
:10035000B4C0A3C00093070110920E0110920D01CA
:1003600010920C0110920B0106C00E9413018BB178
:10037000877880668BB940910D0150910E0157FF2F
:1003800003C0509541955F4F8091130190911401E6
:100390002091020130910301821B930B48175907EA
:1003A00020F377C00093070110920E0110920D0107
:1003B00010920C0110920B0106C00E9413018BB128
:1003C000877888618BB940910D0150910E0157FFDC
:1003D00003C0509541955F4F809113019091140196
:1003E0002091020130910301821B930B481759079A
:1003F00020F34FC00093070110920E0110920D01DF
:1004000010920C0110920B0106C00E9413018BB1D7
:10041000877888648BB940910B0150910C0157FF8C
:1004200003C0509541955F4F809113019091140145
:100430002091000130910101821B930B481759074D
:1004400020F327C00093070110920E0110920D01B6
:1004500010920C0110920B0106C00E9413018BB187
:10046000877880638BB940910B0150910C0157FF45
:1004700003C0509541955F4F8091130190911401F5
:100480002091000130910101821B930B48175907FD
:1004900020F38BB187788BB910C0809107018093CE
:1004A000C6000BC0D0920901C092080104C0F092AE
:1004B0000901E092080110930A01B092C60010925F
:1004C0001902A092070118CF82E88093C00088E942
:1004D0008093C10086E08093C2001092C50083E340
:1004E0008093C4000895229A08958FE78AB98FEF08
:1004F00087B988EC90E090930901809308010895F2
:1005000020911501822F8E50833030F02B3121F055
:100510002C3111F02D3141F490E080911602281712
:1005200009F491E0892F089580910F0190911101B4
:10053000890F280FF1CF982F8E50833048F09B31D0
:1005400039F09C3129F080E09D3119F481E0089563
:1005500081E00895982F8E50833088F0943079F0A0
:10056000953069F0963059F0973049F09B3139F069
:100570009C3129F080E09D3119F481E0089581E0FB
:1005800008951F920F920FB60F9211241F932F936D
:100590003F938F939F93F8941091C60018B9809160
:1005A00006018C3099F18D3030F4813061F08B3060
:1005B00009F054C025C08531E1F1863161F0833105
:1005C00009F04CC03AC0123011F486E145C084E114
:1005D0008093C60043C0812F0E94AA02813071F42B
:1005E00010931501812F8E50833030F01B3121F094
:1005F0001C3111F01D31E9F585E12EC087E129C0DC
:1006000010930F01109210018CE026C0212F30E0D2
:10061000309312012093110185E18093060190919E
:100620000F0180E0820F931F9093140180931301B8
:1006300015C01093160283E10FC0183049F40E94D0
:100640008002813019F48093190206C088E101C04C
:1006500089E18093C60081E08093060178949F91A0
:100660008F913F912F911F910F900FBE0F901F9070
:1006700018958BE0F1CF089508958093C6000895F2
:1006800080E480937C00EAE7F0E0808187688083E3
:10069000089521E030E002C0220F331F8A95E2F76F
:1006A00020937C0080917A00806480937A0010927D
:1006B0007B0080917A0086FDFCCF809179000895BF
:1006C0008FEF88B918B808950E940C040E94390170
:1006D000FFCF1F920F920FB60F9211242F938F937B
:1006E0009F93AF93BF9380911A0290911B02A091A8
:1006F0001C02B0911D028050904CAF4FBF4F8093B1
:100700001A0290931B02A0931C02B0931D0227C0F3
:1007100080911A0290911B02A0911C02B0911D02BF
:1007200080549F41A040B04080931A0290931B02D6
:10073000A0931C02B0931D0280911E0290911F0293
:10074000A0912002B09121020196A11DB11D8093BC
:100750001E0290931F02A0932002B0932102809169
:100760001A0290911B02A0911C02B0911D028154AB
:100770009F41A040B04060F6BF91AF919F918F9193
:100780002F910F900FBE0F901F9018958FB7F89470
:1007900020911E0230911F024091200250912102AF
:1007A0008FBFB901CA010895EF92FF920F931F9373
:1007B0007B018C018FB7F89440911E0250911F026B
:1007C00060912002709121028FBF2FB7F894809121
:1007D0001E0290911F02A0912002B09121022FBF12
:1007E000841B950BA60BB70B8E159F05A007B107B1
:1007F00060F31F910F91FF90EF900895019759F0CA
:10080000019749F0FC01EE0FFF1F31978FB7F89465
:100810003197F1F78FBF0895789484B5826084BDD5
:1008200084B5816084BD85B5826085BD85B58160F4
:1008300085BDEEE6F0E0808181608083E1E8F0E054
:10084000808182608083808181608083E0E8F0E045
:10085000808181608083E1EBF0E08081846080832F
:10086000E0EBF0E0808181608083EAE7F0E0808166
:1008700084608083808182608083808181608083C6
:100880008081806880831092C1000895F894FFCF22
:0808900014003200D007010141
:04000005008002175E
:00000001FF
