:100000000C945C000C9484000C9484000C94840088
:100010000C9484000C9484000C9484000C94840050
:100020000C9484000C9484000C9484000C94840040
:100030000C9484000C9484000C9484000C94840030
:100040000C949A060C9484000C941B090C94840064
:100050000C9484000C9484000C9484000C94840010
:100060000C9484000C948400000024272A000025AE
:10007000282B000023262904040404040404040299
:100080000202020202030303030303010204081035
:100090002040800102040810200102040810200002
:1000A0000000070002010000030406000000000039
:1000B00000000000CF01F20411241FBECFEFD4E0F6
:1000C000DEBFCDBF11E0A0E0B1E0EEE8F8E102C094
:1000D00005900D92A839B107D9F712E0A8E9B1E06F
:1000E00001C01D92A236B107E1F710E0C8EBD0E0E5
:1000F00004C02297FE010E940A0CC43BD107C9F735
:100100000E94EB040C94450C0C940000982F845032
:10011000843088F09E3179F09E3069F09F3059F03C
:10012000903149F09B3139F09C3129F080E09D31CC
:1001300019F481E0089581E008958B3169F08E30E3
:1001400059F08F3049F0803139F08E3129F08C31FF
:1001500019F090E08D3109F491E0892F08951F93F3
:1001600010919901812F0E949D0040919C0188234C
:1001700021F030E0411789F40FC030E050E02091C9
:100180009A01812F90E0820F911D20919B01820F97
:10019000911D4817590709F431E0832F1F910895E5
:1001A0001092B4011092B3011092B6011092B501F1
:1001B0001092A2011092A1011092A00110929F0131
:1001C00080919901873009F446C0883040F4853029
:1001D000A9F08630B8F5843009F08DC00AC08D31A1
:1001E00009F480C08E3109F45AC08C3109F083C003
:1001F0006FC080919D0190919E0107C080919D01EB
:1002000090919E01909581959F4F9093B40180931A
:10021000B3011092B6011092B5018091A3019091A3
:10022000A4019093A2018093A1018091A9019091D2
:10023000AA019093A00180939F01809181019091E8
:10024000820141C01092B4011092B30180919D01CE
:1002500090919E010BC01092B4011092B301809155
:100260009D0190919E01909581959F4F9093B6012D
:100270008093B5018091A3019091A4019093A20174
:100280008093A1018091A9019091AA019093A0016E
:1002900080939F01809183019091840114C01092FA
:1002A000B4011092B3011092B6011092B5011092F0
:1002B000A2011092A1011092A00110929F018091C1
:1002C0008501909186019093B0018093AF010895CC
:1002D00088E097E0909388018093870181E0809384
:1002E000D301089588E29AE0909388018093870172
:1002F00081E08093D301089596E094B995B1997FF8
:10030000926095B995B1966095B946E050E0A1E04C
:10031000B0E0E82FF0E09D01042E02C0220F331F51
:100320000A94E2F72E233F23042E02C03595279529
:100330000A94E2F7220F85B1897F822B85B985B1B6
:10034000897F8460822B85B9415050408FEF4F3FA9
:10035000580709F747E050E0E1E0F0E070E09F0166
:10036000042E02C0220F331F0A94E2F726233723FC
:10037000042E02C0359527950A94E2F7220F85B125
:10038000897F822B85B985B1897F8460822B85B96D
:10039000415050408FEF4F3F580709F70895809123
:1003A0008101909182019093B0018093AF0160919F
:1003B000890170918A01882777FD8095982F0E9486
:1003C000960A26E636E646EE5EE30E94FA0A0E94A8
:1003D000630A7093BC016093BB017093BE0160938C
:1003E000BD01089596E094B995B1997F95B995B1FD
:1003F000997F946095B946E050E0E1E0F0E0682F25
:1004000070E09F01042E02C0220F331F0A94E2F70E
:1004100026233723042E02C0359527950A94E2F748
:10042000220F85B1897F822B85B985B1897F846050
:10043000822B85B9415050408FEF4F3F580709F745
:1004400084E084B985B1897F846085B982E390E0D6
:100450000E942F0730E047E050E085B1897F85B9E1
:1004600025B1297F246083B190E0827090709595CA
:100470008795042E02C0880F991F0A94E2F7382B43
:1004800025B9415050408FEF4F3F580731F738B9E9
:10049000832F08950F931F9383E40E94F201082F86
:1004A00082E40E94F201992787FD90952091A10195
:1004B0003091A201280F391F3093A2012093A1018E
:1004C000112707FD109580919F019091A001800F49
:1004D000911F9093A00180939F011F910F91089508
:1004E00060E070E085E00E94980760E070E086E0E0
:1004F0000E94980760E083E00E940A0860E084E0C0
:100500000E940A080895EF92FF920F931F937B01B8
:100510000FEF10E0B801681B790B85E00E94980787
:100520000E191F09B80186E00E94980761E083E078
:100530000E940A0861E084E00E940A081F910F915E
:10054000FF90EF9008950F931F938B01BC0185E0FE
:100550000E949807B80186E00E94980760E083E057
:100560000E940A0860E084E00E940A081F910F912F
:100570000895AF92BF92CF92DF92EF92FF920F93C6
:100580001F93CF93DF939C01AB010996439710F41F
:1005900020E030E0CA010996439710F440E050E0B3
:1005A0008091890190918A01B901821793070CF417
:1005B000BC0122273327281B390B6B0162177307F5
:1005C0000CF46901BA01841795070CF4BC01EB0126
:1005D000621773070CF4E9011C141D0434F460E085
:1005E00083E00E940A08B6013DC0C114D104A1F104
:1005F00061E083E00E940A08E0918901F0918A019C
:10060000EE24FF24EE1AFF0A0027F7FC0095102FB6
:10061000B601882777FD8095982F2FEF30E02E1BAD
:100620003F0B442737FD4095542F5F934F933F93E3
:100630002F93FFEFAF2EB12CC12CD12C20E030E056
:1006400040E050E00E94580985E00E9498070F9012
:100650000F900F900F9009C060E083E00E940A089D
:1006600060E070E085E00E9498071C161D0634F4D7
:1006700060E084E00E940A08BE013CC02097A1F11E
:1006800061E084E00E940A08E0918901F0918A010A
:10069000EE24FF24EE1AFF0A0027F7FC0095102F26
:1006A000BE01882777FD8095982F2FEF30E02E1B15
:1006B0003F0B442737FD4095542F5F934F933F9353
:1006C0002F93EFEFAE2EB12CC12CD12C20E030E0D7
:1006D00040E050E00E94580986E00E9498070F9081
:1006E0000F900F900F9009C060E084E00E940A080C
:1006F00060E070E086E00E949807DF91CF911F9143
:100700000F91FF90EF90DF90CF90BF90AF90089542
:100710000F931F9304ED11E060E071E0C8010E94A7
:100720001B054091A1015091A201662757FD6095DC
:10073000762F2AE030E0C8010E947A066EE071E070
:10074000C8010E941B054091A3015091A401662796
:1007500057FD6095762F2AE030E0C8010E947A06A6
:1007600063E271E0C8010E941B0540919F01509116
:10077000A001662757FD6095762F2AE030E0C8017A
:100780000E947A066FE271E0C8010E941B05409149
:10079000A9015091AA01662757FD6095762F2AE09E
:1007A00030E0C8010E947A0661E471E0C8010E944D
:1007B0001B054091B7015091B801662757FD609520
:1007C000762F2AE030E0C8010E947A0663E571E0E6
:1007D000C8010E941B054091B9015091BA016627DA
:1007E00057FD6095762F2AE030E0C8010E947A0616
:1007F000C8010E9433051F910F910895BC0184ED3B
:1008000091E00E945A0508950F931F9304ED11E0A3
:1008100066E671E0C8010E941B056AE671E0C80146
:100820000E945A0563E771E0C8010E945A0568E713
:1008300071E0C8010E945A051F910F9108950E940E
:100840004A028091CF019091D00101969093D001FE
:100850008093CF012091D1013091D201821793076B
:1008600031F40E9488031092D0011092CF011092AF
:10087000B2011092B10139C064E670E084E690E004
:100880000E94B9026BEB70E080E090E00E940507E7
:1008900060E070E080E090E00E94B90260ED77E0F7
:1008A00080E090E00E9405076CE97FEF84E690E02D
:1008B0000E94B90262E674E080E090E00E940507C1
:1008C00060E070E080E090E00E94B90260ED77E0C7
:1008D00080E090E00E9405078091B1019091B20103
:1008E00001969093B2018093B1018091B1019091F2
:1008F000B20104970CF4C0CFFFCF2AE939E949E9E6
:100900005EE32093BF013093C0014093C101509337
:10091000C20180E090E0A0E0B0E08093C30190933A
:10092000C401A093C501B093C6012093C7013093C1
:10093000C8014093C9015093CA018093CB019093A1
:10094000CC01A093CD01B093CE018091B3019091E1
:10095000B4012091A1013091A201821B930B9093CD
:10096000A6018093A5018091B5019091B6012091D7
:100970009F013091A001821B930B9093AC01809357
:10098000AB0161E082E00E94EC0761E083E00E943D
:10099000EC0761E084E00E94EC0761E085E00E94E2
:1009A000EC0761E086E00E94EC0781E0809398010B
:1009B00040E05BE460E070E084ED91E00E940605B9
:1009C0001092D0011092CF0184E690E09093D20172
:1009D0008093D10108950E943D070E947D040E94EA
:1009E0001F04FDCF81E991E09093D5018093D4015C
:1009F0000895862F0E94DA0808950E94120908952A
:100A00000E94F30808950E94E2080895CB01BA01FC
:100A10000E94A1080895DC01ED91FC910190F08104
:100A2000E02D09950895DC01ED91FC910190F08194
:100A3000E02D099508950F931F93CF93DF938C01B9
:100A4000EB0109C02196D801ED91FC910190F08154
:100A5000E02DC801099568816623A1F7DF91CF9148
:100A60001F910F9108950F931F938C01DC01ED915D
:100A7000FC910190F081E02D6DE00995D801ED9198
:100A8000FC910190F081E02D6AE0C80109951F9169
:100A90000F9108950F931F938C01DC01ED91FC9150
:100AA0000190F081E02D0995C8010E9433051F9146
:100AB0000F9108950F931F938C010E941B05C8018D
:100AC0000E9433051F910F9108950F931F938C017E
:100AD000DC01ED91FC910190F081E02D0995C801B8
:100AE0000E9433051F910F9108952F923F924F92CC
:100AF0005F926F927F928F929F92AF92BF92CF92AE
:100B0000DF92EF92FF920F931F93DF93CF93CDB7B6
:100B1000DEB7A0970FB6F894DEBF0FBECDBF1C01A5
:100B20006A017B01411551056105710549F4DC013C
:100B3000ED91FC910190F081E02D60E3099554C0A6
:100B4000882499245401422E55246624772401E0F8
:100B500010E00C0F1D1F080D191DC701B601A301E0
:100B600092010E94B70BF80160830894811C911CCC
:100B7000A11CB11CC701B601A30192010E94B70BD1
:100B8000C901DA016C017D01C114D104E104F10451
:100B9000F1F681E0E82EF12CEC0EFD1EE80CF91CBC
:100BA0003E010894611C711CD501C4010197A10983
:100BB000B1096C01C818D90814C0F601EE0DFF1D6B
:100BC00060816A3010F4605D01C0695CD101ED9113
:100BD000FC910190F081E02DC10109950894E10894
:100BE000F1086E147F0449F7A0960FB6F894DEBFA3
:100BF0000FBECDBFCF91DF911F910F91FF90EF906E
:100C0000DF90CF90BF90AF909F908F907F906F902C
:100C10005F904F903F902F9008952AE00E947505B5
:100C200008950F931F938C010E940D06C8010E9426
:100C300033051F910F910895AB0160E070E00E94B1
:100C40000D0608950F931F938C01AB0160E070E0D7
:100C50000E940D06C8010E9433051F910F9108954F
:100C6000EF92FF920F931F93CF93DF93EC017A01E2
:100C70008B0177FF0FC0E881F9810190F081E02DB1
:100C80006DE2099510950095F094E094E11CF11C3B
:100C9000011D111D2AE0B801A701CE010E947505B2
:100CA000DF91CF911F910F91FF90EF9008950F93D7
:100CB0001F938C010E943006C8010E9433051F91CA
:100CC0000F910895AB01662757FD6095762F0E941E
:100CD000300608950F931F938C01AB01662757FDD3
:100CE0006095762F0E943006C8010E9433051F913F
:100CF0000F910895DC012115310541F4ED91FC912E
:100D00000190F081E02D642F099508952A30310576
:100D100019F40E94300608950E94750508950F93F6
:100D20001F938C010E947A06C8010E9433051F910F
:100D30000F9108951F920F920FB60F9211242F93C7
:100D40008F939F93AF93BF938091D6019091D701DA
:100D5000A091D801B091D9018050904CAF4FBF4FB6
:100D60008093D6019093D701A093D801B093D90175
:100D700027C08091D6019091D701A091D801B09160
:100D8000D90180549F41A040B0408093D6019093F8
:100D9000D701A093D801B093D9018091DA01909145
:100DA000DB01A091DC01B091DD010196A11DB11D17
:100DB0008093DA019093DB01A093DC01B093DD0115
:100DC0008091D6019091D701A091D801B091D9011D
:100DD00081549F41A040B04060F6BF91AF919F9178
:100DE0008F912F910F900FBE0F901F9018958FB776
:100DF000F8942091DA013091DB014091DC015091AF
:100E0000DD018FBFB901CA010895EF92FF920F93E0
:100E10001F937B018C018FB7F8944091DA015091B8
:100E2000DB016091DC017091DD018FBF2FB7F89479
:100E30008091DA019091DB01A091DC01B091DD019C
:100E40002FBF841B950BA60BB70B8E159F05A00714
:100E5000B10760F31F910F91FF90EF9008950197F4
:100E600059F0019749F0FC01EE0FFF1F31978FB742
:100E7000F8943197F1F78FBF0895789484B5826024
:100E800084BD84B5816084BD85B5826085BD85B52E
:100E9000816085BDEEE6F0E0808181608083E1E8DD
:100EA000F0E0808182608083808181608083E0E8DF
:100EB000F0E0808181608083E1EBF0E080818460FC
:100EC0008083E0EBF0E0808181608083EAE7F0E0FE
:100ED0008081846080838081826080838081816062
:100EE00080838081806880831092C1000895809300
:100EF000930108958F70909193019295990F990F96
:100F0000907C982B90937C0080917A0080648093F1
:100F10007A0080917A0086FDFCCF20917800409184
:100F20007900942F80E030E0282B392BC9010895F7
:100F30001F93CF93DF93182FEB0161E00E94EC0722
:100F4000E12FF0E0E156FF4F8491833051F480911E
:100F50008000806880938000D0938900C0938800CF
:100F600037C0843051F4809180008062809380008B
:100F7000D0938B00C0938A002BC0813029F484B5B4
:100F8000806884BDC7BD24C0823029F484B58062E6
:100F900084BDC8BD1DC0863041F48091B00080681A
:100FA0008093B000C093B30013C0873041F48091A8
:100FB000B00080628093B000C093B40009C0C03814
:100FC000D10514F460E001C061E0812F0E940A089D
:100FD000DF91CF911F910895282F30E0C9018557E7
:100FE0009F4FFC01949129583F4FF9018491882328
:100FF00081F0E82FF0E0E859FF4FE491F0E066233C
:1010000029F4808190958923808308958081892B9C
:1010100080830895482F50E0CA0181569F4FFC01FC
:101020002491CA0185579F4FFC01949149585F4F05
:10103000FA0134913323C1F1222331F1233021F419
:10104000809180008F7705C0243031F4809180003A
:101050008F7D8093800018C0213019F484B58F777C
:1010600004C0223021F484B58F7D84BD0DC02630AC
:1010700021F48091B0008F7705C0273029F480914A
:10108000B0008F7D8093B000E32FF0E0E359FF4F75
:10109000E491F0E0662329F4808190958923808390
:1010A00008958081892B80830895482F50E0CA01DC
:1010B00081569F4FFC012491CA0185579F4FFC0127
:1010C000949149585F4FFA013491332319F420E089
:1010D00030E035C0222331F1233021F480918000AB
:1010E0008F7705C0243031F4809180008F7D80930C
:1010F000800018C0213019F484B58F7704C02230E5
:1011000021F484B58F7D84BD0DC0263021F48091FB
:10111000B0008F7705C0273029F48091B0008F7D13
:101120008093B000E32FF0E0EE58FF4FE491F0E041
:10113000808120E030E0892311F021E030E0C90116
:101140000895EF92FF920F931F937B018C0122E091
:1011500030E040E050E00E94D90B205E3E45484F11
:101160005F4FCA01B901A80197010E94D90BC901BB
:10117000DA010197A109B109292F3A2F4B2F5527E1
:1011800047FD5A950196A11DB11D2093C5008150C0
:101190008093C400E1ECF0E08081806180838081F5
:1011A000886080838081806880831F910F91FF9089
:1011B000EF900895982F8091C00085FFFCCF909309
:1011C000C60008958091DE019091DF0180589F4F05
:1011D0002091E0013091E101821B930B60E870E007
:1011E0000E94A40B08954091E0015091E10180918B
:1011F000DE019091DF018417950719F42FEF3FEF7F
:101200000FC0FA01EE51FE4F2081CA01019660E83D
:1012100070E00E94A40B9093E1018093E00130E024
:10122000C90108958091E0019091E1019093DF015F
:101230008093DE0108951F920F920FB60F92112432
:101240002F933F934F935F936F937F938F939F93CE
:10125000AF93BF93EF93FF934091C600E091DE01FF
:10126000F091DF01CF01019660E870E00E94A40BCD
:101270009C018091E0019091E1012817390739F034
:10128000EE51FE4F40833093DF012093DE01FF914A
:10129000EF91BF91AF919F918F917F916F915F91EE
:1012A0004F913F912F910F900FBE0F901F90189567
:1012B0002F923F924F925F926F927F928F929F9266
:1012C000AF92BF92CF92DF92EF92FF920F931F9354
:1012D000DF93CF93CDB7DEB73B014C0119012A0153
:1012E0006D897E898F89988D6A197B098C099D0982
:1012F000621A730A840A950AA40193010E94850B5D
:10130000E218F30804091509A80197010E94D90BF6
:101310002A0D3B1D4C1D5D1DB901CA01CF91DF9106
:101320001F910F91FF90EF90DF90CF90BF90AF9003
:101330009F908F907F906F905F904F903F902F90F5
:101340000895AF92BF92CF92DF92EF92FF920F93E8
:101350001F935B016C01611571058105910529F4ED
:1013600020E030E040E050E01FC00E94530A7C01C2
:101370000E94530A0027F7FC0095102F8701FF24D5
:10138000EE24AA2797FDA095BA2FE80EF91E0A1F92
:101390001B1FC801B701A60195010E94D90BAC0122
:1013A000CB01DA019C01AD01B901CA011F910F9176
:1013B000FF90EF90DF90CF90BF90AF900895EF92A5
:1013C000FF920F931F937B018C01621773078407B1
:1013D000950764F4261B370B480B590BCA01B9015A
:1013E0000E94A109E60EF71E081F191FB701C801C8
:1013F0001F910F91FF90EF900895009711F00E94B8
:10140000580A0895A0E0B0E0E8E0FAE00C94160C69
:10141000EC01A880B980CA80DB80A114B104C104AA
:10142000D10441F484E2A82E89EDB82E8BE5C82EB4
:1014300087E0D82EC601B5012DE133EF41E050E041
:101440000E94D90B27EA31E440E050E00E94850B6E
:101450007B018C01C601B5012DE133EF41E050E085
:101460000E94D90BCA01B9012CEE34EF4FEF5FEFA8
:101470000E94850B6E0D7F1D801F911F97FF04C07A
:101480006150704080409048688379838A839B8351
:101490009B013F77C901CDB7DEB7EAE00C94320C6F
:1014A0000E94020A089584E991E00E94020A0895C8
:1014B000A0E0B0E08093940190939501A0939601F1
:1014C000B0939701089504D06894B1118DC0089528
:1014D00070D088F09F5790F0B92F9927B751A0F09E
:1014E000D1F0660F771F881F991F1AF0BA95C9F7B8
:1014F00012C0B13081F077D0B1E0089574C0672F89
:10150000782F8827B85F39F0B93FCCF38695779567
:101510006795B395D9F73EF4909580957095619550
:101520007F4F8F4F9F4F0895E89409C097FB3EF47B
:1015300090958095709561957F4F8F4F9F4F992320
:10154000A9F0F92F96E9BB279395F695879577959E
:101550006795B795F111F8CFFAF4BB0F11F460FF5E
:101560001BC06F5F7F4F8F4F9F4F16C0882311F0B6
:1015700096E911C0772321F09EE8872F762F05C0CA
:10158000662371F096E8862F70E060E02AF09A9565
:10159000660F771F881FDAF7880F9695879597F95A
:1015A000089557FD9058440F551F59F05F3F71F053
:1015B0004795880F97FB991F61F09F3F79F08795BA
:1015C0000895121613061406551FF2CF4695F1DF43
:1015D00008C0161617061806991FF1CF86957105D3
:1015E000610508940895E894BB2766277727CB0107
:1015F00097F908950BD078C069D028F06ED018F014
:10160000952309F05AC05FC01124EECFCADFA0F3C2
:10161000959FD1F3950F50E0551F629FF001729F87
:10162000BB27F00DB11D639FAA27F00DB11DAA1FA6
:10163000649F6627B00DA11D661F829F2227B00DF3
:10164000A11D621F739FB00DA11D621F839FA00D7E
:10165000611D221F749F3327A00D611D231F849FCE
:10166000600D211D822F762F6A2F11249F57504025
:101670008AF0E1F088234AF0EE0FFF1FBB1F661FC0
:10168000771F881F91505040A9F79E3F510570F079
:1016900014C0AACF5F3FECF3983EDCF386957795B4
:1016A0006795B795F795E7959F5FC1F7FE2B880F74
:1016B000911D9695879597F9089597F99F6780E80A
:1016C00070E060E008959FEF80EC089500240A9494
:1016D0001616170618060906089500240A9412160D
:1016E0001306140605060895092E0394000C11F440
:1016F000882352F0BB0F40F4BF2B11F460FF04C0ED
:101700006F5F7F4F8F4F9F4F0895629FD001739FF0
:10171000F001829FE00DF11D649FE00DF11D929F8D
:10172000F00D839FF00D749FF00D659FF00D9927CC
:10173000729FB00DE11DF91F639FB00DE11DF91FF0
:10174000BD01CF011124089597FB092E07260AD069
:1017500077FD04D049D006D000201AF47095619529
:101760007F4F0895F6F7909581959F4F0895A1E2D8
:101770001A2EAA1BBB1BFD010DC0AA1FBB1FEE1F0B
:10178000FF1FA217B307E407F50720F0A21BB30B56
:10179000E40BF50B661F771F881F991F1A9469F7D2
:1017A00060957095809590959B01AC01BD01CF012E
:1017B000089597FB092E05260ED057FD04D0D7DFDC
:1017C0000AD0001C38F450954095309521953F4F34
:1017D0004F4F5F4F0895F6F79095809570956195FE
:1017E0007F4F8F4F9F4F0895AA1BBB1B51E107C02E
:1017F000AA1FBB1FA617B70710F0A61BB70B881FA1
:10180000991F5A95A9F780959095BC01CD0108952F
:10181000EE0FFF1F0590F491E02D09942F923F9257
:101820004F925F926F927F928F929F92AF92BF92F0
:10183000CF92DF92EF92FF920F931F93CF93DF939C
:10184000CDB7DEB7CA1BDB0B0FB6F894DEBF0FBEF9
:10185000CDBF09942A88398848885F846E847D8446
:101860008C849B84AA84B984C884DF80EE80FD8048
:101870000C811B81AA81B981CE0FD11D0FB6F894BE
:0E188000DEBF0FBECDBFED010895F894FFCF7F
:10188E007472616E736C6174696F6E3D20002074AA
:10189E0072616E736C6174696F6E206572726F72B5
:1018AE003D200020726F746174696F6E3D200020C0
:1018BE00726F746174696F6E206572726F723D2003
:1018CE0000206C6566744D6F746F7253706565643D
:1018DE003D20002072696768744D6F746F7253708B
:1018EE006565643D20002B2B2B0041544348307816
:1018FE0030430041545752004154434E00140032BD
:10190E0000010002000300DC056400190000000065
:08191E0000F9040101000000C2
:00000001FF
