:100000000C9434000C944F000C944F000C944F004F
:100010000C944F000C944F000C944F000C944F0024
:100020000C944F000C944F000C944F000C944F0014
:100030000C944F000C944F000C944F000C944F0004
:100040000C944F000C944F000C9495040C944F00AA
:100050000C944F000C944F000C944F000C944F00E4
:100060000C944F000C944F0011241FBECFEFD4E02E
:10007000DEBFCDBF11E0A0E0B1E0EAECFDE002C0E0
:1000800005900D92A830B107D9F712E0A8E0B1E0D1
:1000900001C01D92AA31B107E1F70C9451000C94F4
:1000A0000000C3EFD4E0DEBFCDBF0E9461040E9418
:1000B00088060E9476040E94820410921602109212
:1000C0001101789484E08093250084E690E00E94FA
:1000D00017068FEF80932A0019821A8280910A01F5
:1000E000813091F59BEF80912B0089238460809370
:1000F0002B0080910801909109010E9449069BEF15
:1001000080912B00892380932B0020910401309152
:1001100005018091080190910901281B390BC90143
:100120000E94490684E190E00E94170689819A8125
:10013000019689839A8389819A818630910524F07A
:1001400010920A0119821A8280910B01813031F6D6
:100150000E94580280910E01282F33272B873C875D
:100160008B859C858730910509F4CFC02B853C8514
:100170002830310594F48B859C858530910509F4F0
:100180005AC02B853C85263031050CF089C08B8503
:100190009C8584309105D1F005C12B853C852C319F
:1001A000310509F4ECC08B859C858D3191053CF4BB
:1001B0002B853C852B31310509F4DCC0F3C08B85E0
:1001C0009C858D31910509F4E4C0ECC08AE18093EF
:1001D00007011092100110920F0110921302109259
:1001E000120220910F01309110012B833C838B81EF
:1001F0009C8199233CF42B813C81309521953F4F84
:100200002B833C8380910C0190910D012091020180
:1002100030910301821B930B2B813C8128173907F6
:1002200038F40E9458026FEF8FEF0E94DB01D9CFA4
:100230000E944B02B7C08AE180930701109210011F
:1002400010920F01109213021092120280910F016E
:10025000909110018D839E832D813E8133233CF448
:100260008D819E81909581959F4F8D839E838091F6
:100270000C0190910D012091020130910301821B2C
:10028000930B2D813E812817390738F40E945802BC
:100290006FEF8FEF0E94F701D9CF0E944B0282C00F
:1002A0008AE1809307011092100110920F011092C1
:1002B00013021092120280911202909113028F8306
:1002C00098872F81388533233CF48F8198859095CA
:1002D00081959F4F8F83988780910C0190910D019C
:1002E0002091000130910101821B930B2F813885F1
:1002F0002817390738F40E9458026FEF8FEF0E94D9
:100300001302D9CF0E944B024DC08AE180930701AE
:100310001092100110920F0110921302109212020B
:10032000809112029091130289879A8729853A85D4
:1003300033233CF489859A85909581959F4F8987D1
:100340009A8780910C0190910D01209100013091CC
:100350000101821B930B29853A852817390738F448
:100360000E9458026FEF8FEF0E942F02D9CF0E9498
:100370004B0218C0809107010E946D0613C08CEBE0
:1003800092E0909309018093080181E080930A0133
:1003900009C08CE093E0909309018093080181E00B
:1003A00080930A018AE00E946D0610920B0181E0A1
:1003B0008093070193CECF93DF93CDB7DEB722971B
:1003C0000FB6F894DEBF0FBECDBF89836A8397E86E
:1003D00080912B008923806680932B0022960FB694
:1003E000F894DEBF0FBECDBFDF91CF910895CF93BC
:1003F000DF93CDB7DEB722970FB6F894DEBF0FBEFE
:10040000CDBF89836A8397E880912B008923886117
:1004100080932B0022960FB6F894DEBF0FBECDBF9F
:10042000DF91CF910895CF93DF93CDB7DEB72297B9
:100430000FB6F894DEBF0FBECDBF89836A8397E8FD
:1004400080912B008923886480932B0022960FB61D
:10045000F894DEBF0FBECDBFDF91CF910895CF934B
:10046000DF93CDB7DEB722970FB6F894DEBF0FBE8D
:10047000CDBF89836A8397E880912B0089238063AD
:1004800080932B0022960FB6F894DEBF0FBECDBF2F
:10049000DF91CF910895CF93DF93CDB7DEB787E893
:1004A00090912B00892380932B00DF91CF910895A9
:1004B000CF93DF93CDB7DEB722970FB6F894DEBFA8
:1004C0000FBECDBF83E40E947103898382E40E9442
:1004D00071038A838A81282F332727FD30958091E5
:1004E0000F0190911001820F931F90931001809340
:1004F0000F018981282F332727FD30958091120223
:1005000090911302820F931F909313028093120213
:1005100022960FB6F894DEBF0FBECDBFDF91CF910C
:100520000895CF93DF93CDB7DEB724970FB6F89435
:10053000DEBF0FBECDBF89836A8386E0809324002F
:1005400099EF80912500892382608B838B81809332
:10055000250099EF80912500892386608B838B810C
:100560008093250086E08C838C8188230CF455C011
:100570008981482F55278C81282F332727FD3095D7
:1005800081E090E002C0880F991F2A95E2F79A0156
:10059000282339238C81992787FD909502C03595B2
:1005A00027958A95E2F7C9019C01220F331F99EF25
:1005B000809125008923822B8B838B81809325005A
:1005C0008981482F55278C81282F332727FD309587
:1005D00081E090E002C0880F991F2A95E2F79A0106
:1005E000282339238C81992787FD909502C0359562
:1005F00027958A95E2F7C9019C01220F331F99EFD5
:10060000809125008923822B84608B838B8180934A
:1006100025008C8181508C83A7CF87E08C838C81CF
:1006200088230CF455C08A81482F55278C81282FA8
:10063000332727FD309581E090E002C0880F991F95
:100640002A95E2F79A01282339238C81992787FD7F
:10065000909502C0359527958A95E2F7C9019C01CE
:10066000220F331F99EF809125008923822B8B83E2
:100670008B81809325008A81482F55278C81282FD4
:10068000332727FD309581E090E002C0880F991F45
:100690002A95E2F79A01282339238C81992787FD2F
:1006A000909502C0359527958A95E2F7C9019C017E
:1006B000220F331F99EF809125008923822B8460BC
:1006C0008B838B81809325008C8181508C83A7CF75
:1006D00024960FB6F894DEBF0FBECDBFDF91CF9149
:1006E0000895CF93DF93CDB7DEB724970FB6F89474
:1006F000DEBF0FBECDBF89831B8286E080932400BE
:1007000099EF8091250089238A838A81809325002F
:1007100099EF80912500892384608A838A81809360
:10072000250086E08C838C8188230CF455C0898158
:10073000482F55278C81282F332727FD309581E0BE
:1007400090E002C0880F991F2A95E2F79A012823AA
:1007500039238C81992787FD909502C0359527957F
:100760008A95E2F7C9019C01220F331F99EF80910E
:1007700025008923822B8A838A81809325008981A1
:10078000482F55278C81282F332727FD309581E06E
:1007900090E002C0880F991F2A95E2F79A0128235A
:1007A00039238C81992787FD909502C0359527952F
:1007B0008A95E2F7C9019C01220F331F99EF8091BE
:1007C00025008923822B84608A838A818093250077
:1007D0008C8181508C83A7CF84E08093240099EF93
:1007E00080912500892384608093250082E390E036
:1007F0000E94490687E08C838C81882354F199EF0D
:100800008091250089238A838A818093250099EF2E
:1008100080912500892384608A8380912300992711
:10082000827090709C01359527958C81992787FD62
:10083000909502C0220F331F8A95E2F7C9012B81E0
:10084000822B8B838A81809325008C8181508C83BD
:10085000D3CF8B81809328008B81992724960FB664
:10086000F894DEBF0FBECDBFDF91CF910895CF9337
:10087000DF93CDB7DEB724970FB6F894DEBF0FBE77
:10088000CDBF89839A8389819A8199235CF42981D8
:100890003A8180E090E0821B930B89839A838B835B
:1008A0009C8304C089819A818B839C838B819C81EA
:1008B00024960FB6F894DEBF0FBECDBFDF91CF9167
:1008C0000895CF93DF93CDB7DEB782E88093C00061
:1008D00088E98093C10086E08093C2001092C50031
:1008E00087E68093C400DF91CF910895CF93DF9383
:1008F000CDB7DEB780912400846080932400DF911F
:10090000CF910895CF93DF93CDB7DEB78FE7809374
:100910002A008FEF8093270088EC90E090930901E4
:1009200080930801DF91CF9108951F920F920FB627
:100930000F9211242F933F934F935F936F937F9365
:100940008F939F93AF93BF93EF93FF93CF93DF93D7
:10095000CDB7DEB72397DEBFCDBFF8948091C60038
:10096000898389818093280080910601282F33276D
:100970002A833B834A815B814C30510509F45AC07C
:100980008A819B818D30910564F42A813B812130DD
:100990003105F9F04A815B814B30510509F440C0C3
:1009A0008DC08A819B818531910509F465C02A81BA
:1009B0003B81263131053CF44A815B81433151054D
:1009C00009F461C07BC08A819B818631910561F009
:1009D00075C08981823021F486E1809306016EC062
:1009E00084E10E946D066AC089810E94DB05813026
:1009F00081F4898180930E0189810E94AB05813049
:100A000021F485E18093060159C08BE080930601B3
:100A100055C087E10E946D0681E0809306014EC0BB
:100A20008981992790931902809318028CE0809312
:100A3000060144C08981992790931502809314027E
:100A400085E180930601209118023091190280E01F
:100A500091E0289FA001299F500D389F500D11242F
:100A60009A018091140290911502820F931F909326
:100A70000D0180930C0122C089818093170283E1CC
:100A8000809306011BC08981883091F40E9476050D
:100A9000813039F481E080930B0181E0809306017D
:100AA0000DC088E10E946D0681E08093060106C0BA
:100AB00089E10E946D0681E0809306017894239677
:100AC000F894DEBFCDBFDF91CF91FF91EF91BF9141
:100AD000AF919F918F917F916F915F914F913F91D6
:100AE0002F910F900FBE0F901F901895CF93DF930B
:100AF000CDB7DEB723970FB6F894DEBF0FBECDBFDC
:100B0000198280910E010E94AB05882321F080910B
:100B10000E01898309C09091180280910E01980FEF
:100B200080911402890F8983998180911702981707
:100B300029F481E090E08A839B8302C01A821B82A1
:100B40008A819B8123960FB6F894DEBF0FBECDBF7E
:100B5000DF91CF910895CF93DF93CDB7DEB7239781
:100B60000FB6F894DEBF0FBECDBF898389818E306A
:100B700081F089818F3069F08981803151F08981DC
:100B80008B3139F089818C3121F089818D3109F0E7
:100B900005C081E090E08A839B8302C01A821B8299
:100BA0008A819B8123960FB6F894DEBF0FBECDBF1E
:100BB000DF91CF910895CF93DF93CDB7DEB7239721
:100BC0000FB6F894DEBF0FBECDBF898389818E300A
:100BD000E1F089818F30C9F089818031B1F089815C
:100BE000843099F08981853081F08981863069F07F
:100BF0008981873051F089818B3139F089818C313D
:100C000021F089818D3109F005C081E090E08A836F
:100C10009B8302C01A821B828A819B8123960FB616
:100C2000F894DEBF0FBECDBFDF91CF910895CF9373
:100C3000DF93CDB7DEB726970FB6F894DEBF0FBEB1
:100C4000CDBF89839A831B821C822B813C81898141
:100C50009A8128173907A4F41D821E828D819E81F6
:100C600023E0883E920734F48D819E8101968D8326
:100C70009E83F4CF8B819C8101968B839C83E5CFEF
:100C800026960FB6F894DEBF0FBECDBFDF91CF9191
:100C90000895CF93DF93CDB7DEB724970FB6F894BE
:100CA000DEBF0FBECDBF89839A831B821C822B813E
:100CB0003C8189819A812817390734F48B819C8182
:100CC00001968B839C83F3CF24960FB6F894DEBFF6
:100CD0000FBECDBFDF91CF910895CF93DF93CDB7F6
:100CE000DEB721970FB6F894DEBF0FBECDBF898364
:100CF00089818093C60081E090E00E9417062196CA
:100D00000FB6F894DEBF0FBECDBFDF91CF9108952F
:100D1000CF93DF93CDB7DEB780E480937C008091E2
:100D20007A00876880937A00DF91CF910895CF93FE
:100D3000DF93CDB7DEB721970FB6F894DEBF0FBEB5
:100D4000CDBF89838981282F332727FD309581E006
:100D500090E0022E02C0880F991F0A94E2F7809358
:100D60007C0080917A00806480937A0010927B00EE
:100D700080917A0099270024880F991F001C880F02
:100D8000991F001C892F902D81709070009709F099
:100D9000EFCF80917900992721960FB6F894DEBFA6
:100DA0000FBECDBFDF91CF910895CF93DF93CDB725
:100DB000DEB78FEF809328008AE090E00E9417064C
:0A0DC00010922800DF91CF910895F2
:080DCA0014003200D007010102
:04000005008002165F
:00000001FF
